{
  "_format": "hh-sol-artifact-1",
  "contractName": "SpendDAO",
  "sourceName": "contracts/SpendDAO.sol",
  "abi": [
    {
      "inputs": [],
      "stateMutability": "nonpayable",
      "type": "constructor"
    },
    {
      "anonymous": false,
      "inputs": [
        {
          "indexed": true,
          "internalType": "address",
          "name": "owner",
          "type": "address"
        },
        {
          "indexed": true,
          "internalType": "address",
          "name": "approved",
          "type": "address"
        },
        {
          "indexed": true,
          "internalType": "uint256",
          "name": "tokenId",
          "type": "uint256"
        }
      ],
      "name": "Approval",
      "type": "event"
    },
    {
      "anonymous": false,
      "inputs": [
        {
          "indexed": true,
          "internalType": "address",
          "name": "owner",
          "type": "address"
        },
        {
          "indexed": true,
          "internalType": "address",
          "name": "operator",
          "type": "address"
        },
        {
          "indexed": false,
          "internalType": "bool",
          "name": "approved",
          "type": "bool"
        }
      ],
      "name": "ApprovalForAll",
      "type": "event"
    },
    {
      "anonymous": false,
      "inputs": [
        {
          "indexed": true,
          "internalType": "address",
          "name": "previousOwner",
          "type": "address"
        },
        {
          "indexed": true,
          "internalType": "address",
          "name": "newOwner",
          "type": "address"
        }
      ],
      "name": "OwnershipTransferred",
      "type": "event"
    },
    {
      "anonymous": false,
      "inputs": [
        {
          "indexed": true,
          "internalType": "address",
          "name": "from",
          "type": "address"
        },
        {
          "indexed": true,
          "internalType": "address",
          "name": "to",
          "type": "address"
        },
        {
          "indexed": true,
          "internalType": "uint256",
          "name": "tokenId",
          "type": "uint256"
        }
      ],
      "name": "Transfer",
      "type": "event"
    },
    {
      "inputs": [
        {
          "internalType": "address",
          "name": "to",
          "type": "address"
        },
        {
          "internalType": "uint256",
          "name": "tokenId",
          "type": "uint256"
        }
      ],
      "name": "approve",
      "outputs": [],
      "stateMutability": "nonpayable",
      "type": "function"
    },
    {
      "inputs": [
        {
          "internalType": "address",
          "name": "owner",
          "type": "address"
        }
      ],
      "name": "balanceOf",
      "outputs": [
        {
          "internalType": "uint256",
          "name": "",
          "type": "uint256"
        }
      ],
      "stateMutability": "view",
      "type": "function"
    },
    {
      "inputs": [
        {
          "internalType": "uint256",
          "name": "tokenId",
          "type": "uint256"
        }
      ],
      "name": "burn",
      "outputs": [],
      "stateMutability": "nonpayable",
      "type": "function"
    },
    {
      "inputs": [
        {
          "internalType": "uint256",
          "name": "tokenId",
          "type": "uint256"
        }
      ],
      "name": "getApproved",
      "outputs": [
        {
          "internalType": "address",
          "name": "",
          "type": "address"
        }
      ],
      "stateMutability": "view",
      "type": "function"
    },
    {
      "inputs": [
        {
          "internalType": "address",
          "name": "owner",
          "type": "address"
        },
        {
          "internalType": "address",
          "name": "operator",
          "type": "address"
        }
      ],
      "name": "isApprovedForAll",
      "outputs": [
        {
          "internalType": "bool",
          "name": "",
          "type": "bool"
        }
      ],
      "stateMutability": "view",
      "type": "function"
    },
    {
      "inputs": [],
      "name": "name",
      "outputs": [
        {
          "internalType": "string",
          "name": "",
          "type": "string"
        }
      ],
      "stateMutability": "view",
      "type": "function"
    },
    {
      "inputs": [],
      "name": "owner",
      "outputs": [
        {
          "internalType": "address",
          "name": "",
          "type": "address"
        }
      ],
      "stateMutability": "view",
      "type": "function"
    },
    {
      "inputs": [
        {
          "internalType": "uint256",
          "name": "tokenId",
          "type": "uint256"
        }
      ],
      "name": "ownerOf",
      "outputs": [
        {
          "internalType": "address",
          "name": "",
          "type": "address"
        }
      ],
      "stateMutability": "view",
      "type": "function"
    },
    {
      "inputs": [
        {
          "internalType": "address",
          "name": "",
          "type": "address"
        },
        {
          "internalType": "uint256",
          "name": "",
          "type": "uint256"
        }
      ],
      "name": "ownerToTokenIds",
      "outputs": [
        {
          "internalType": "uint256",
          "name": "",
          "type": "uint256"
        }
      ],
      "stateMutability": "view",
      "type": "function"
    },
    {
      "inputs": [],
      "name": "renounceOwnership",
      "outputs": [],
      "stateMutability": "nonpayable",
      "type": "function"
    },
    {
      "inputs": [
        {
          "internalType": "address",
          "name": "to",
          "type": "address"
        },
        {
          "internalType": "string",
          "name": "uri",
          "type": "string"
        }
      ],
      "name": "safeMint",
      "outputs": [],
      "stateMutability": "nonpayable",
      "type": "function"
    },
    {
      "inputs": [
        {
          "internalType": "address",
          "name": "from",
          "type": "address"
        },
        {
          "internalType": "address",
          "name": "to",
          "type": "address"
        },
        {
          "internalType": "uint256",
          "name": "tokenId",
          "type": "uint256"
        }
      ],
      "name": "safeTransferFrom",
      "outputs": [],
      "stateMutability": "nonpayable",
      "type": "function"
    },
    {
      "inputs": [
        {
          "internalType": "address",
          "name": "from",
          "type": "address"
        },
        {
          "internalType": "address",
          "name": "to",
          "type": "address"
        },
        {
          "internalType": "uint256",
          "name": "tokenId",
          "type": "uint256"
        },
        {
          "internalType": "bytes",
          "name": "data",
          "type": "bytes"
        }
      ],
      "name": "safeTransferFrom",
      "outputs": [],
      "stateMutability": "nonpayable",
      "type": "function"
    },
    {
      "inputs": [
        {
          "internalType": "address",
          "name": "operator",
          "type": "address"
        },
        {
          "internalType": "bool",
          "name": "approved",
          "type": "bool"
        }
      ],
      "name": "setApprovalForAll",
      "outputs": [],
      "stateMutability": "nonpayable",
      "type": "function"
    },
    {
      "inputs": [
        {
          "internalType": "bytes4",
          "name": "interfaceId",
          "type": "bytes4"
        }
      ],
      "name": "supportsInterface",
      "outputs": [
        {
          "internalType": "bool",
          "name": "",
          "type": "bool"
        }
      ],
      "stateMutability": "view",
      "type": "function"
    },
    {
      "inputs": [],
      "name": "symbol",
      "outputs": [
        {
          "internalType": "string",
          "name": "",
          "type": "string"
        }
      ],
      "stateMutability": "view",
      "type": "function"
    },
    {
      "inputs": [
        {
          "internalType": "uint256",
          "name": "index",
          "type": "uint256"
        }
      ],
      "name": "tokenByIndex",
      "outputs": [
        {
          "internalType": "uint256",
          "name": "",
          "type": "uint256"
        }
      ],
      "stateMutability": "view",
      "type": "function"
    },
    {
      "inputs": [
        {
          "internalType": "address",
          "name": "owner",
          "type": "address"
        },
        {
          "internalType": "uint256",
          "name": "index",
          "type": "uint256"
        }
      ],
      "name": "tokenOfOwnerByIndex",
      "outputs": [
        {
          "internalType": "uint256",
          "name": "",
          "type": "uint256"
        }
      ],
      "stateMutability": "view",
      "type": "function"
    },
    {
      "inputs": [
        {
          "internalType": "uint256",
          "name": "tokenId",
          "type": "uint256"
        }
      ],
      "name": "tokenURI",
      "outputs": [
        {
          "internalType": "string",
          "name": "",
          "type": "string"
        }
      ],
      "stateMutability": "view",
      "type": "function"
    },
    {
      "inputs": [],
      "name": "totalSupply",
      "outputs": [
        {
          "internalType": "uint256",
          "name": "",
          "type": "uint256"
        }
      ],
      "stateMutability": "view",
      "type": "function"
    },
    {
      "inputs": [
        {
          "internalType": "address",
          "name": "from",
          "type": "address"
        },
        {
          "internalType": "address",
          "name": "to",
          "type": "address"
        },
        {
          "internalType": "uint256",
          "name": "tokenId",
          "type": "uint256"
        }
      ],
      "name": "transferFrom",
      "outputs": [],
      "stateMutability": "nonpayable",
      "type": "function"
    },
    {
      "inputs": [
        {
          "internalType": "address",
          "name": "newOwner",
          "type": "address"
        }
      ],
      "name": "transferOwnership",
      "outputs": [],
      "stateMutability": "nonpayable",
      "type": "function"
    }
  ],
  "bytecode": "0x60806040523480156200001157600080fd5b506040518060400160405280600981526020017f5370656e642044414f00000000000000000000000000000000000000000000008152506040518060400160405280600381526020017f53504e000000000000000000000000000000000000000000000000000000000081525081600090816200008f919062000412565b508060019081620000a1919062000412565b505050620000c4620000b8620000ca60201b60201c565b620000d260201b60201c565b620004f9565b600033905090565b6000600b60009054906101000a900473ffffffffffffffffffffffffffffffffffffffff16905081600b60006101000a81548173ffffffffffffffffffffffffffffffffffffffff021916908373ffffffffffffffffffffffffffffffffffffffff1602179055508173ffffffffffffffffffffffffffffffffffffffff168173ffffffffffffffffffffffffffffffffffffffff167f8be0079c531659141344cd1fd0a4f28419497f9722a3daafe3b4186f6b6457e060405160405180910390a35050565b600081519050919050565b7f4e487b7100000000000000000000000000000000000000000000000000000000600052604160045260246000fd5b7f4e487b7100000000000000000000000000000000000000000000000000000000600052602260045260246000fd5b600060028204905060018216806200021a57607f821691505b60208210810362000230576200022f620001d2565b5b50919050565b60008190508160005260206000209050919050565b60006020601f8301049050919050565b600082821b905092915050565b6000600883026200029a7fffffffffffffffffffffffffffffffffffffffffffffffffffffffffffffffff826200025b565b620002a686836200025b565b95508019841693508086168417925050509392505050565b6000819050919050565b6000819050919050565b6000620002f3620002ed620002e784620002be565b620002c8565b620002be565b9050919050565b6000819050919050565b6200030f83620002d2565b620003276200031e82620002fa565b84845462000268565b825550505050565b600090565b6200033e6200032f565b6200034b81848462000304565b505050565b5b8181101562000373576200036760008262000334565b60018101905062000351565b5050565b601f821115620003c2576200038c8162000236565b62000397846200024b565b81016020851015620003a7578190505b620003bf620003b6856200024b565b83018262000350565b50505b505050565b600082821c905092915050565b6000620003e760001984600802620003c7565b1980831691505092915050565b6000620004028383620003d4565b9150826002028217905092915050565b6200041d8262000198565b67ffffffffffffffff811115620004395762000438620001a3565b5b62000445825462000201565b6200045282828562000377565b600060209050601f8311600181146200048a576000841562000475578287015190505b620004818582620003f4565b865550620004f1565b601f1984166200049a8662000236565b60005b82811015620004c4578489015182556001820191506020850194506020810190506200049d565b86831015620004e45784890151620004e0601f891682620003d4565b8355505b6001600288020188555050505b505050505050565b61363380620005096000396000f3fe608060405234801561001057600080fd5b50600436106101425760003560e01c806368a596c7116100b8578063a22cb4651161007c578063a22cb46514610389578063b88d4fde146103a5578063c87b56dd146103c1578063d204c45e146103f1578063e985e9c51461040d578063f2fde38b1461043d57610142565b806368a596c7146102e357806370a0823114610313578063715018a6146103435780638da5cb5b1461034d57806395d89b411461036b57610142565b806323b872dd1161010a57806323b872dd146101ff5780632f745c591461021b57806342842e0e1461024b57806342966c68146102675780634f6ccce7146102835780636352211e146102b357610142565b806301ffc9a71461014757806306fdde0314610177578063081812fc14610195578063095ea7b3146101c557806318160ddd146101e1575b600080fd5b610161600480360381019061015c9190612219565b610459565b60405161016e9190612261565b60405180910390f35b61017f61046b565b60405161018c919061230c565b60405180910390f35b6101af60048036038101906101aa9190612364565b6104fd565b6040516101bc91906123d2565b60405180910390f35b6101df60048036038101906101da9190612419565b610543565b005b6101e961065a565b6040516101f69190612468565b60405180910390f35b61021960048036038101906102149190612483565b610667565b005b61023560048036038101906102309190612419565b6106c7565b6040516102429190612468565b60405180910390f35b61026560048036038101906102609190612483565b61076c565b005b610281600480360381019061027c9190612364565b61078c565b005b61029d60048036038101906102989190612364565b6107e8565b6040516102aa9190612468565b60405180910390f35b6102cd60048036038101906102c89190612364565b610859565b6040516102da91906123d2565b60405180910390f35b6102fd60048036038101906102f89190612419565b6108df565b60405161030a9190612468565b60405180910390f35b61032d600480360381019061032891906124d6565b610910565b60405161033a9190612468565b60405180910390f35b61034b6109c7565b005b6103556109db565b60405161036291906123d2565b60405180910390f35b610373610a05565b604051610380919061230c565b60405180910390f35b6103a3600480360381019061039e919061252f565b610a97565b005b6103bf60048036038101906103ba91906126a4565b610aad565b005b6103db60048036038101906103d69190612364565b610b0f565b6040516103e8919061230c565b60405180910390f35b61040b600480360381019061040691906127c8565b610b21565b005b61042760048036038101906104229190612824565b610bc0565b6040516104349190612261565b60405180910390f35b610457600480360381019061045291906124d6565b610c54565b005b600061046482610cd7565b9050919050565b60606000805461047a90612893565b80601f01602080910402602001604051908101604052809291908181526020018280546104a690612893565b80156104f35780601f106104c8576101008083540402835291602001916104f3565b820191906000526020600020905b8154815290600101906020018083116104d657829003601f168201915b5050505050905090565b600061050882610d51565b6004600083815260200190815260200160002060009054906101000a900473ffffffffffffffffffffffffffffffffffffffff169050919050565b600061054e82610859565b90508073ffffffffffffffffffffffffffffffffffffffff168373ffffffffffffffffffffffffffffffffffffffff16036105be576040517f08c379a00000000000000000000000000000000000000000000000000000000081526004016105b590612936565b60405180910390fd5b8073ffffffffffffffffffffffffffffffffffffffff166105dd610d9c565b73ffffffffffffffffffffffffffffffffffffffff16148061060c575061060b81610606610d9c565b610bc0565b5b61064b576040517f08c379a0000000000000000000000000000000000000000000000000000000008152600401610642906129c8565b60405180910390fd5b6106558383610da4565b505050565b6000600880549050905090565b610678610672610d9c565b82610e5d565b6106b7576040517f08c379a00000000000000000000000000000000000000000000000000000000081526004016106ae90612a5a565b60405180910390fd5b6106c2838383610ef2565b505050565b60006106d283610910565b8210610713576040517f08c379a000000000000000000000000000000000000000000000000000000000815260040161070a90612aec565b60405180910390fd5b600660008473ffffffffffffffffffffffffffffffffffffffff1673ffffffffffffffffffffffffffffffffffffffff168152602001908152602001600020600083815260200190815260200160002054905092915050565b61078783838360405180602001604052806000815250610aad565b505050565b61079d610797610d9c565b82610e5d565b6107dc576040517f08c379a00000000000000000000000000000000000000000000000000000000081526004016107d390612a5a565b60405180910390fd5b6107e5816111eb565b50565b60006107f261065a565b8210610833576040517f08c379a000000000000000000000000000000000000000000000000000000000815260040161082a90612b7e565b60405180910390fd5b6008828154811061084757610846612b9e565b5b90600052602060002001549050919050565b600080610865836111f7565b9050600073ffffffffffffffffffffffffffffffffffffffff168173ffffffffffffffffffffffffffffffffffffffff16036108d6576040517f08c379a00000000000000000000000000000000000000000000000000000000081526004016108cd90612c19565b60405180910390fd5b80915050919050565b600d60205281600052604060002081815481106108fb57600080fd5b90600052602060002001600091509150505481565b60008073ffffffffffffffffffffffffffffffffffffffff168273ffffffffffffffffffffffffffffffffffffffff1603610980576040517f08c379a000000000000000000000000000000000000000000000000000000000815260040161097790612cab565b60405180910390fd5b600360008373ffffffffffffffffffffffffffffffffffffffff1673ffffffffffffffffffffffffffffffffffffffff168152602001908152602001600020549050919050565b6109cf611234565b6109d960006112b2565b565b6000600b60009054906101000a900473ffffffffffffffffffffffffffffffffffffffff16905090565b606060018054610a1490612893565b80601f0160208091040260200160405190810160405280929190818152602001828054610a4090612893565b8015610a8d5780601f10610a6257610100808354040283529160200191610a8d565b820191906000526020600020905b815481529060010190602001808311610a7057829003601f168201915b5050505050905090565b610aa9610aa2610d9c565b8383611378565b5050565b610abe610ab8610d9c565b83610e5d565b610afd576040517f08c379a0000000000000000000000000000000000000000000000000000000008152600401610af490612a5a565b60405180910390fd5b610b09848484846114e4565b50505050565b6060610b1a82611540565b9050919050565b610b29611234565b6000610b35600c611652565b9050610b41600c611660565b610b4b8382611676565b610b558183611893565b600d60008473ffffffffffffffffffffffffffffffffffffffff1673ffffffffffffffffffffffffffffffffffffffff168152602001908152602001600020819080600181540180825580915050600190039060005260206000200160009091909190915055505050565b6000600560008473ffffffffffffffffffffffffffffffffffffffff1673ffffffffffffffffffffffffffffffffffffffff16815260200190815260200160002060008373ffffffffffffffffffffffffffffffffffffffff1673ffffffffffffffffffffffffffffffffffffffff16815260200190815260200160002060009054906101000a900460ff16905092915050565b610c5c611234565b600073ffffffffffffffffffffffffffffffffffffffff168173ffffffffffffffffffffffffffffffffffffffff1603610ccb576040517f08c379a0000000000000000000000000000000000000000000000000000000008152600401610cc290612d3d565b60405180910390fd5b610cd4816112b2565b50565b60007f780e9d63000000000000000000000000000000000000000000000000000000007bffffffffffffffffffffffffffffffffffffffffffffffffffffffff1916827bffffffffffffffffffffffffffffffffffffffffffffffffffffffff19161480610d4a5750610d4982611900565b5b9050919050565b610d5a816119e2565b610d99576040517f08c379a0000000000000000000000000000000000000000000000000000000008152600401610d9090612c19565b60405180910390fd5b50565b600033905090565b816004600083815260200190815260200160002060006101000a81548173ffffffffffffffffffffffffffffffffffffffff021916908373ffffffffffffffffffffffffffffffffffffffff160217905550808273ffffffffffffffffffffffffffffffffffffffff16610e1783610859565b73ffffffffffffffffffffffffffffffffffffffff167f8c5be1e5ebec7d5bd14f71427d1e84f3dd0314c0f7b2291e5b200ac8c7c3b92560405160405180910390a45050565b600080610e6983610859565b90508073ffffffffffffffffffffffffffffffffffffffff168473ffffffffffffffffffffffffffffffffffffffff161480610eab5750610eaa8185610bc0565b5b80610ee957508373ffffffffffffffffffffffffffffffffffffffff16610ed1846104fd565b73ffffffffffffffffffffffffffffffffffffffff16145b91505092915050565b8273ffffffffffffffffffffffffffffffffffffffff16610f1282610859565b73ffffffffffffffffffffffffffffffffffffffff1614610f68576040517f08c379a0000000000000000000000000000000000000000000000000000000008152600401610f5f90612dcf565b60405180910390fd5b600073ffffffffffffffffffffffffffffffffffffffff168273ffffffffffffffffffffffffffffffffffffffff1603610fd7576040517f08c379a0000000000000000000000000000000000000000000000000000000008152600401610fce90612e61565b60405180910390fd5b610fe48383836001611a23565b8273ffffffffffffffffffffffffffffffffffffffff1661100482610859565b73ffffffffffffffffffffffffffffffffffffffff161461105a576040517f08c379a000000000000000000000000000000000000000000000000000000000815260040161105190612dcf565b60405180910390fd5b6004600082815260200190815260200160002060006101000a81549073ffffffffffffffffffffffffffffffffffffffff02191690556001600360008573ffffffffffffffffffffffffffffffffffffffff1673ffffffffffffffffffffffffffffffffffffffff168152602001908152602001600020600082825403925050819055506001600360008473ffffffffffffffffffffffffffffffffffffffff1673ffffffffffffffffffffffffffffffffffffffff16815260200190815260200160002060008282540192505081905550816002600083815260200190815260200160002060006101000a81548173ffffffffffffffffffffffffffffffffffffffff021916908373ffffffffffffffffffffffffffffffffffffffff160217905550808273ffffffffffffffffffffffffffffffffffffffff168473ffffffffffffffffffffffffffffffffffffffff167fddf252ad1be2c89b69c2b068fc378daa952ba7f163c4a11628f55a4df523b3ef60405160405180910390a46111e68383836001611acf565b505050565b6111f481611ad5565b50565b60006002600083815260200190815260200160002060009054906101000a900473ffffffffffffffffffffffffffffffffffffffff169050919050565b61123c610d9c565b73ffffffffffffffffffffffffffffffffffffffff1661125a6109db565b73ffffffffffffffffffffffffffffffffffffffff16146112b0576040517f08c379a00000000000000000000000000000000000000000000000000000000081526004016112a790612ecd565b60405180910390fd5b565b6000600b60009054906101000a900473ffffffffffffffffffffffffffffffffffffffff16905081600b60006101000a81548173ffffffffffffffffffffffffffffffffffffffff021916908373ffffffffffffffffffffffffffffffffffffffff1602179055508173ffffffffffffffffffffffffffffffffffffffff168173ffffffffffffffffffffffffffffffffffffffff167f8be0079c531659141344cd1fd0a4f28419497f9722a3daafe3b4186f6b6457e060405160405180910390a35050565b8173ffffffffffffffffffffffffffffffffffffffff168373ffffffffffffffffffffffffffffffffffffffff16036113e6576040517f08c379a00000000000000000000000000000000000000000000000000000000081526004016113dd90612f39565b60405180910390fd5b80600560008573ffffffffffffffffffffffffffffffffffffffff1673ffffffffffffffffffffffffffffffffffffffff16815260200190815260200160002060008473ffffffffffffffffffffffffffffffffffffffff1673ffffffffffffffffffffffffffffffffffffffff16815260200190815260200160002060006101000a81548160ff0219169083151502179055508173ffffffffffffffffffffffffffffffffffffffff168373ffffffffffffffffffffffffffffffffffffffff167f17307eab39ab6107e8899845ad3d59bd9653f200f220920489ca2b5937696c31836040516114d79190612261565b60405180910390a3505050565b6114ef848484610ef2565b6114fb84848484611b28565b61153a576040517f08c379a000000000000000000000000000000000000000000000000000000000815260040161153190612fcb565b60405180910390fd5b50505050565b606061154b82610d51565b6000600a6000848152602001908152602001600020805461156b90612893565b80601f016020809104026020016040519081016040528092919081815260200182805461159790612893565b80156115e45780601f106115b9576101008083540402835291602001916115e4565b820191906000526020600020905b8154815290600101906020018083116115c757829003601f168201915b5050505050905060006115f5611caf565b9050600081510361160a57819250505061164d565b60008251111561163f578082604051602001611627929190613027565b6040516020818303038152906040529250505061164d565b61164884611cec565b925050505b919050565b600081600001549050919050565b6001816000016000828254019250508190555050565b600073ffffffffffffffffffffffffffffffffffffffff168273ffffffffffffffffffffffffffffffffffffffff16036116e5576040517f08c379a00000000000000000000000000000000000000000000000000000000081526004016116dc90613097565b60405180910390fd5b6116ee816119e2565b1561172e576040517f08c379a000000000000000000000000000000000000000000000000000000000815260040161172590613103565b60405180910390fd5b61173c600083836001611a23565b611745816119e2565b15611785576040517f08c379a000000000000000000000000000000000000000000000000000000000815260040161177c90613103565b60405180910390fd5b6001600360008473ffffffffffffffffffffffffffffffffffffffff1673ffffffffffffffffffffffffffffffffffffffff16815260200190815260200160002060008282540192505081905550816002600083815260200190815260200160002060006101000a81548173ffffffffffffffffffffffffffffffffffffffff021916908373ffffffffffffffffffffffffffffffffffffffff160217905550808273ffffffffffffffffffffffffffffffffffffffff16600073ffffffffffffffffffffffffffffffffffffffff167fddf252ad1be2c89b69c2b068fc378daa952ba7f163c4a11628f55a4df523b3ef60405160405180910390a461188f600083836001611acf565b5050565b61189c826119e2565b6118db576040517f08c379a00000000000000000000000000000000000000000000000000000000081526004016118d290613195565b60405180910390fd5b80600a600084815260200190815260200160002090816118fb9190613361565b505050565b60007f80ac58cd000000000000000000000000000000000000000000000000000000007bffffffffffffffffffffffffffffffffffffffffffffffffffffffff1916827bffffffffffffffffffffffffffffffffffffffffffffffffffffffff191614806119cb57507f5b5e139f000000000000000000000000000000000000000000000000000000007bffffffffffffffffffffffffffffffffffffffffffffffffffffffff1916827bffffffffffffffffffffffffffffffffffffffffffffffffffffffff1916145b806119db57506119da82611d54565b5b9050919050565b60008073ffffffffffffffffffffffffffffffffffffffff16611a04836111f7565b73ffffffffffffffffffffffffffffffffffffffff1614159050919050565b600073ffffffffffffffffffffffffffffffffffffffff168473ffffffffffffffffffffffffffffffffffffffff161480611a8a5750600073ffffffffffffffffffffffffffffffffffffffff168373ffffffffffffffffffffffffffffffffffffffff16145b611ac9576040517f08c379a0000000000000000000000000000000000000000000000000000000008152600401611ac0906134cb565b60405180910390fd5b50505050565b50505050565b611ade81611dbe565b6000600a60008381526020019081526020016000208054611afe90612893565b905014611b2557600a60008281526020019081526020016000206000611b249190612150565b5b50565b6000611b498473ffffffffffffffffffffffffffffffffffffffff16611f0c565b15611ca2578373ffffffffffffffffffffffffffffffffffffffff1663150b7a02611b72610d9c565b8786866040518563ffffffff1660e01b8152600401611b949493929190613540565b6020604051808303816000875af1925050508015611bd057506040513d601f19601f82011682018060405250810190611bcd91906135a1565b60015b611c52573d8060008114611c00576040519150601f19603f3d011682016040523d82523d6000602084013e611c05565b606091505b506000815103611c4a576040517f08c379a0000000000000000000000000000000000000000000000000000000008152600401611c4190612fcb565b60405180910390fd5b805181602001fd5b63150b7a0260e01b7bffffffffffffffffffffffffffffffffffffffffffffffffffffffff1916817bffffffffffffffffffffffffffffffffffffffffffffffffffffffff191614915050611ca7565b600190505b949350505050565b60606040518060400160405280601d81526020017f68747470733a2f2f636364616f2e6d7970696e6174612e636c6f75642f000000815250905090565b6060611cf782610d51565b6000611d01611caf565b90506000815111611d215760405180602001604052806000815250611d4c565b80611d2b84611f2f565b604051602001611d3c929190613027565b6040516020818303038152906040525b915050919050565b60007f01ffc9a7000000000000000000000000000000000000000000000000000000007bffffffffffffffffffffffffffffffffffffffffffffffffffffffff1916827bffffffffffffffffffffffffffffffffffffffffffffffffffffffff1916149050919050565b6000611dc982610859565b9050611dd9816000846001611a23565b611de282610859565b90506004600083815260200190815260200160002060006101000a81549073ffffffffffffffffffffffffffffffffffffffff02191690556001600360008373ffffffffffffffffffffffffffffffffffffffff1673ffffffffffffffffffffffffffffffffffffffff168152602001908152602001600020600082825403925050819055506002600083815260200190815260200160002060006101000a81549073ffffffffffffffffffffffffffffffffffffffff021916905581600073ffffffffffffffffffffffffffffffffffffffff168273ffffffffffffffffffffffffffffffffffffffff167fddf252ad1be2c89b69c2b068fc378daa952ba7f163c4a11628f55a4df523b3ef60405160405180910390a4611f08816000846001611acf565b5050565b6000808273ffffffffffffffffffffffffffffffffffffffff163b119050919050565b606060006001611f3e84611ffd565b01905060008167ffffffffffffffff811115611f5d57611f5c612579565b5b6040519080825280601f01601f191660200182016040528015611f8f5781602001600182028036833780820191505090505b509050600082602001820190505b600115611ff2578080600190039150507f3031323334353637383961626364656600000000000000000000000000000000600a86061a8153600a8581611fe657611fe56135ce565b5b04945060008503611f9d575b819350505050919050565b600080600090507a184f03e93ff9f4daa797ed6e38ed64bf6a1f010000000000000000831061205b577a184f03e93ff9f4daa797ed6e38ed64bf6a1f0100000000000000008381612051576120506135ce565b5b0492506040810190505b6d04ee2d6d415b85acef81000000008310612098576d04ee2d6d415b85acef8100000000838161208e5761208d6135ce565b5b0492506020810190505b662386f26fc1000083106120c757662386f26fc1000083816120bd576120bc6135ce565b5b0492506010810190505b6305f5e10083106120f0576305f5e10083816120e6576120e56135ce565b5b0492506008810190505b612710831061211557612710838161210b5761210a6135ce565b5b0492506004810190505b60648310612138576064838161212e5761212d6135ce565b5b0492506002810190505b600a8310612147576001810190505b80915050919050565b50805461215c90612893565b6000825580601f1061216e575061218d565b601f01602090049060005260206000209081019061218c9190612190565b5b50565b5b808211156121a9576000816000905550600101612191565b5090565b6000604051905090565b600080fd5b600080fd5b60007fffffffff0000000000000000000000000000000000000000000000000000000082169050919050565b6121f6816121c1565b811461220157600080fd5b50565b600081359050612213816121ed565b92915050565b60006020828403121561222f5761222e6121b7565b5b600061223d84828501612204565b91505092915050565b60008115159050919050565b61225b81612246565b82525050565b60006020820190506122766000830184612252565b92915050565b600081519050919050565b600082825260208201905092915050565b60005b838110156122b657808201518184015260208101905061229b565b60008484015250505050565b6000601f19601f8301169050919050565b60006122de8261227c565b6122e88185612287565b93506122f8818560208601612298565b612301816122c2565b840191505092915050565b6000602082019050818103600083015261232681846122d3565b905092915050565b6000819050919050565b6123418161232e565b811461234c57600080fd5b50565b60008135905061235e81612338565b92915050565b60006020828403121561237a576123796121b7565b5b60006123888482850161234f565b91505092915050565b600073ffffffffffffffffffffffffffffffffffffffff82169050919050565b60006123bc82612391565b9050919050565b6123cc816123b1565b82525050565b60006020820190506123e760008301846123c3565b92915050565b6123f6816123b1565b811461240157600080fd5b50565b600081359050612413816123ed565b92915050565b600080604083850312156124305761242f6121b7565b5b600061243e85828601612404565b925050602061244f8582860161234f565b9150509250929050565b6124628161232e565b82525050565b600060208201905061247d6000830184612459565b92915050565b60008060006060848603121561249c5761249b6121b7565b5b60006124aa86828701612404565b93505060206124bb86828701612404565b92505060406124cc8682870161234f565b9150509250925092565b6000602082840312156124ec576124eb6121b7565b5b60006124fa84828501612404565b91505092915050565b61250c81612246565b811461251757600080fd5b50565b60008135905061252981612503565b92915050565b60008060408385031215612546576125456121b7565b5b600061255485828601612404565b92505060206125658582860161251a565b9150509250929050565b600080fd5b600080fd5b7f4e487b7100000000000000000000000000000000000000000000000000000000600052604160045260246000fd5b6125b1826122c2565b810181811067ffffffffffffffff821117156125d0576125cf612579565b5b80604052505050565b60006125e36121ad565b90506125ef82826125a8565b919050565b600067ffffffffffffffff82111561260f5761260e612579565b5b612618826122c2565b9050602081019050919050565b82818337600083830152505050565b6000612647612642846125f4565b6125d9565b90508281526020810184848401111561266357612662612574565b5b61266e848285612625565b509392505050565b600082601f83011261268b5761268a61256f565b5b813561269b848260208601612634565b91505092915050565b600080600080608085870312156126be576126bd6121b7565b5b60006126cc87828801612404565b94505060206126dd87828801612404565b93505060406126ee8782880161234f565b925050606085013567ffffffffffffffff81111561270f5761270e6121bc565b5b61271b87828801612676565b91505092959194509250565b600067ffffffffffffffff82111561274257612741612579565b5b61274b826122c2565b9050602081019050919050565b600061276b61276684612727565b6125d9565b90508281526020810184848401111561278757612786612574565b5b612792848285612625565b509392505050565b600082601f8301126127af576127ae61256f565b5b81356127bf848260208601612758565b91505092915050565b600080604083850312156127df576127de6121b7565b5b60006127ed85828601612404565b925050602083013567ffffffffffffffff81111561280e5761280d6121bc565b5b61281a8582860161279a565b9150509250929050565b6000806040838503121561283b5761283a6121b7565b5b600061284985828601612404565b925050602061285a85828601612404565b9150509250929050565b7f4e487b7100000000000000000000000000000000000000000000000000000000600052602260045260246000fd5b600060028204905060018216806128ab57607f821691505b6020821081036128be576128bd612864565b5b50919050565b7f4552433732313a20617070726f76616c20746f2063757272656e74206f776e6560008201527f7200000000000000000000000000000000000000000000000000000000000000602082015250565b6000612920602183612287565b915061292b826128c4565b604082019050919050565b6000602082019050818103600083015261294f81612913565b9050919050565b7f4552433732313a20617070726f76652063616c6c6572206973206e6f7420746f60008201527f6b656e206f776e6572206f7220617070726f76656420666f7220616c6c000000602082015250565b60006129b2603d83612287565b91506129bd82612956565b604082019050919050565b600060208201905081810360008301526129e1816129a5565b9050919050565b7f4552433732313a2063616c6c6572206973206e6f7420746f6b656e206f776e6560008201527f72206f7220617070726f76656400000000000000000000000000000000000000602082015250565b6000612a44602d83612287565b9150612a4f826129e8565b604082019050919050565b60006020820190508181036000830152612a7381612a37565b9050919050565b7f455243373231456e756d657261626c653a206f776e657220696e646578206f7560008201527f74206f6620626f756e6473000000000000000000000000000000000000000000602082015250565b6000612ad6602b83612287565b9150612ae182612a7a565b604082019050919050565b60006020820190508181036000830152612b0581612ac9565b9050919050565b7f455243373231456e756d657261626c653a20676c6f62616c20696e646578206f60008201527f7574206f6620626f756e64730000000000000000000000000000000000000000602082015250565b6000612b68602c83612287565b9150612b7382612b0c565b604082019050919050565b60006020820190508181036000830152612b9781612b5b565b9050919050565b7f4e487b7100000000000000000000000000000000000000000000000000000000600052603260045260246000fd5b7f4552433732313a20696e76616c696420746f6b656e2049440000000000000000600082015250565b6000612c03601883612287565b9150612c0e82612bcd565b602082019050919050565b60006020820190508181036000830152612c3281612bf6565b9050919050565b7f4552433732313a2061646472657373207a65726f206973206e6f74206120766160008201527f6c6964206f776e65720000000000000000000000000000000000000000000000602082015250565b6000612c95602983612287565b9150612ca082612c39565b604082019050919050565b60006020820190508181036000830152612cc481612c88565b9050919050565b7f4f776e61626c653a206e6577206f776e657220697320746865207a65726f206160008201527f6464726573730000000000000000000000000000000000000000000000000000602082015250565b6000612d27602683612287565b9150612d3282612ccb565b604082019050919050565b60006020820190508181036000830152612d5681612d1a565b9050919050565b7f4552433732313a207472616e736665722066726f6d20696e636f72726563742060008201527f6f776e6572000000000000000000000000000000000000000000000000000000602082015250565b6000612db9602583612287565b9150612dc482612d5d565b604082019050919050565b60006020820190508181036000830152612de881612dac565b9050919050565b7f4552433732313a207472616e7366657220746f20746865207a65726f2061646460008201527f7265737300000000000000000000000000000000000000000000000000000000602082015250565b6000612e4b602483612287565b9150612e5682612def565b604082019050919050565b60006020820190508181036000830152612e7a81612e3e565b9050919050565b7f4f776e61626c653a2063616c6c6572206973206e6f7420746865206f776e6572600082015250565b6000612eb7602083612287565b9150612ec282612e81565b602082019050919050565b60006020820190508181036000830152612ee681612eaa565b9050919050565b7f4552433732313a20617070726f766520746f2063616c6c657200000000000000600082015250565b6000612f23601983612287565b9150612f2e82612eed565b602082019050919050565b60006020820190508181036000830152612f5281612f16565b9050919050565b7f4552433732313a207472616e7366657220746f206e6f6e20455243373231526560008201527f63656976657220696d706c656d656e7465720000000000000000000000000000602082015250565b6000612fb5603283612287565b9150612fc082612f59565b604082019050919050565b60006020820190508181036000830152612fe481612fa8565b9050919050565b600081905092915050565b60006130018261227c565b61300b8185612feb565b935061301b818560208601612298565b80840191505092915050565b60006130338285612ff6565b915061303f8284612ff6565b91508190509392505050565b7f4552433732313a206d696e7420746f20746865207a65726f2061646472657373600082015250565b6000613081602083612287565b915061308c8261304b565b602082019050919050565b600060208201905081810360008301526130b081613074565b9050919050565b7f4552433732313a20746f6b656e20616c7265616479206d696e74656400000000600082015250565b60006130ed601c83612287565b91506130f8826130b7565b602082019050919050565b6000602082019050818103600083015261311c816130e0565b9050919050565b7f45524337323155524953746f726167653a2055524920736574206f66206e6f6e60008201527f6578697374656e7420746f6b656e000000000000000000000000000000000000602082015250565b600061317f602e83612287565b915061318a82613123565b604082019050919050565b600060208201905081810360008301526131ae81613172565b9050919050565b60008190508160005260206000209050919050565b60006020601f8301049050919050565b600082821b905092915050565b6000600883026132177fffffffffffffffffffffffffffffffffffffffffffffffffffffffffffffffff826131da565b61322186836131da565b95508019841693508086168417925050509392505050565b6000819050919050565b600061325e6132596132548461232e565b613239565b61232e565b9050919050565b6000819050919050565b61327883613243565b61328c61328482613265565b8484546131e7565b825550505050565b600090565b6132a1613294565b6132ac81848461326f565b505050565b5b818110156132d0576132c5600082613299565b6001810190506132b2565b5050565b601f821115613315576132e6816131b5565b6132ef846131ca565b810160208510156132fe578190505b61331261330a856131ca565b8301826132b1565b50505b505050565b600082821c905092915050565b60006133386000198460080261331a565b1980831691505092915050565b60006133518383613327565b9150826002028217905092915050565b61336a8261227c565b67ffffffffffffffff81111561338357613382612579565b5b61338d8254612893565b6133988282856132d4565b600060209050601f8311600181146133cb57600084156133b9578287015190505b6133c38582613345565b86555061342b565b601f1984166133d9866131b5565b60005b82811015613401578489015182556001820191506020850194506020810190506133dc565b8683101561341e578489015161341a601f891682613327565b8355505b6001600288020188555050505b505050505050565b7f54686973206120536f756c626f756e6420746f6b656e2e2049742063616e6e6f60008201527f74206265207472616e736665727265642e2049742063616e206f6e6c7920626560208201527f206275726e65642062792074686520746f6b656e206f776e65722e0000000000604082015250565b60006134b5605b83612287565b91506134c082613433565b606082019050919050565b600060208201905081810360008301526134e4816134a8565b9050919050565b600081519050919050565b600082825260208201905092915050565b6000613512826134eb565b61351c81856134f6565b935061352c818560208601612298565b613535816122c2565b840191505092915050565b600060808201905061355560008301876123c3565b61356260208301866123c3565b61356f6040830185612459565b81810360608301526135818184613507565b905095945050505050565b60008151905061359b816121ed565b92915050565b6000602082840312156135b7576135b66121b7565b5b60006135c58482850161358c565b91505092915050565b7f4e487b7100000000000000000000000000000000000000000000000000000000600052601260045260246000fdfea264697066735822122083322bbfa8ccd332fc9951cbc36f38d34a2ceaf3398ca969b68891dac9ebb48f64736f6c63430008110033",
  "linkReferences": {},
  "deployedLinkReferences": {}
}