{
  "_format": "hh-sol-artifact-1",
  "contractName": "SpendAdmin",
  "sourceName": "contracts/SpendAdmin.sol",
  "abi": [
    {
      "inputs": [],
      "stateMutability": "nonpayable",
      "type": "constructor"
    },
    {
      "anonymous": false,
      "inputs": [
        {
          "indexed": true,
          "internalType": "address",
          "name": "owner",
          "type": "address"
        },
        {
          "indexed": true,
          "internalType": "address",
          "name": "approved",
          "type": "address"
        },
        {
          "indexed": true,
          "internalType": "uint256",
          "name": "tokenId",
          "type": "uint256"
        }
      ],
      "name": "Approval",
      "type": "event"
    },
    {
      "anonymous": false,
      "inputs": [
        {
          "indexed": true,
          "internalType": "address",
          "name": "owner",
          "type": "address"
        },
        {
          "indexed": true,
          "internalType": "address",
          "name": "operator",
          "type": "address"
        },
        {
          "indexed": false,
          "internalType": "bool",
          "name": "approved",
          "type": "bool"
        }
      ],
      "name": "ApprovalForAll",
      "type": "event"
    },
    {
      "anonymous": false,
      "inputs": [
        {
          "indexed": true,
          "internalType": "address",
          "name": "previousOwner",
          "type": "address"
        },
        {
          "indexed": true,
          "internalType": "address",
          "name": "newOwner",
          "type": "address"
        }
      ],
      "name": "OwnershipTransferred",
      "type": "event"
    },
    {
      "anonymous": false,
      "inputs": [
        {
          "indexed": false,
          "internalType": "address",
          "name": "account",
          "type": "address"
        }
      ],
      "name": "Paused",
      "type": "event"
    },
    {
      "anonymous": false,
      "inputs": [
        {
          "indexed": true,
          "internalType": "address",
          "name": "from",
          "type": "address"
        },
        {
          "indexed": true,
          "internalType": "address",
          "name": "to",
          "type": "address"
        },
        {
          "indexed": true,
          "internalType": "uint256",
          "name": "tokenId",
          "type": "uint256"
        }
      ],
      "name": "Transfer",
      "type": "event"
    },
    {
      "anonymous": false,
      "inputs": [
        {
          "indexed": false,
          "internalType": "address",
          "name": "account",
          "type": "address"
        }
      ],
      "name": "Unpaused",
      "type": "event"
    },
    {
      "inputs": [
        {
          "internalType": "address",
          "name": "to",
          "type": "address"
        },
        {
          "internalType": "uint256",
          "name": "tokenId",
          "type": "uint256"
        }
      ],
      "name": "approve",
      "outputs": [],
      "stateMutability": "nonpayable",
      "type": "function"
    },
    {
      "inputs": [
        {
          "internalType": "address",
          "name": "owner",
          "type": "address"
        }
      ],
      "name": "balanceOf",
      "outputs": [
        {
          "internalType": "uint256",
          "name": "",
          "type": "uint256"
        }
      ],
      "stateMutability": "view",
      "type": "function"
    },
    {
      "inputs": [
        {
          "internalType": "uint256",
          "name": "tokenId",
          "type": "uint256"
        }
      ],
      "name": "burn",
      "outputs": [],
      "stateMutability": "nonpayable",
      "type": "function"
    },
    {
      "inputs": [
        {
          "internalType": "uint256",
          "name": "tokenId",
          "type": "uint256"
        }
      ],
      "name": "getApproved",
      "outputs": [
        {
          "internalType": "address",
          "name": "",
          "type": "address"
        }
      ],
      "stateMutability": "view",
      "type": "function"
    },
    {
      "inputs": [
        {
          "internalType": "address",
          "name": "owner",
          "type": "address"
        },
        {
          "internalType": "address",
          "name": "operator",
          "type": "address"
        }
      ],
      "name": "isApprovedForAll",
      "outputs": [
        {
          "internalType": "bool",
          "name": "",
          "type": "bool"
        }
      ],
      "stateMutability": "view",
      "type": "function"
    },
    {
      "inputs": [],
      "name": "name",
      "outputs": [
        {
          "internalType": "string",
          "name": "",
          "type": "string"
        }
      ],
      "stateMutability": "view",
      "type": "function"
    },
    {
      "inputs": [],
      "name": "owner",
      "outputs": [
        {
          "internalType": "address",
          "name": "",
          "type": "address"
        }
      ],
      "stateMutability": "view",
      "type": "function"
    },
    {
      "inputs": [
        {
          "internalType": "uint256",
          "name": "tokenId",
          "type": "uint256"
        }
      ],
      "name": "ownerOf",
      "outputs": [
        {
          "internalType": "address",
          "name": "",
          "type": "address"
        }
      ],
      "stateMutability": "view",
      "type": "function"
    },
    {
      "inputs": [],
      "name": "pause",
      "outputs": [],
      "stateMutability": "nonpayable",
      "type": "function"
    },
    {
      "inputs": [],
      "name": "paused",
      "outputs": [
        {
          "internalType": "bool",
          "name": "",
          "type": "bool"
        }
      ],
      "stateMutability": "view",
      "type": "function"
    },
    {
      "inputs": [],
      "name": "renounceOwnership",
      "outputs": [],
      "stateMutability": "nonpayable",
      "type": "function"
    },
    {
      "inputs": [
        {
          "internalType": "address",
          "name": "to",
          "type": "address"
        },
        {
          "internalType": "string",
          "name": "uri",
          "type": "string"
        }
      ],
      "name": "safeMint",
      "outputs": [],
      "stateMutability": "nonpayable",
      "type": "function"
    },
    {
      "inputs": [
        {
          "internalType": "address",
          "name": "from",
          "type": "address"
        },
        {
          "internalType": "address",
          "name": "to",
          "type": "address"
        },
        {
          "internalType": "uint256",
          "name": "tokenId",
          "type": "uint256"
        }
      ],
      "name": "safeTransferFrom",
      "outputs": [],
      "stateMutability": "nonpayable",
      "type": "function"
    },
    {
      "inputs": [
        {
          "internalType": "address",
          "name": "from",
          "type": "address"
        },
        {
          "internalType": "address",
          "name": "to",
          "type": "address"
        },
        {
          "internalType": "uint256",
          "name": "tokenId",
          "type": "uint256"
        },
        {
          "internalType": "bytes",
          "name": "data",
          "type": "bytes"
        }
      ],
      "name": "safeTransferFrom",
      "outputs": [],
      "stateMutability": "nonpayable",
      "type": "function"
    },
    {
      "inputs": [
        {
          "internalType": "address",
          "name": "operator",
          "type": "address"
        },
        {
          "internalType": "bool",
          "name": "approved",
          "type": "bool"
        }
      ],
      "name": "setApprovalForAll",
      "outputs": [],
      "stateMutability": "nonpayable",
      "type": "function"
    },
    {
      "inputs": [
        {
          "internalType": "bytes4",
          "name": "interfaceId",
          "type": "bytes4"
        }
      ],
      "name": "supportsInterface",
      "outputs": [
        {
          "internalType": "bool",
          "name": "",
          "type": "bool"
        }
      ],
      "stateMutability": "view",
      "type": "function"
    },
    {
      "inputs": [],
      "name": "symbol",
      "outputs": [
        {
          "internalType": "string",
          "name": "",
          "type": "string"
        }
      ],
      "stateMutability": "view",
      "type": "function"
    },
    {
      "inputs": [
        {
          "internalType": "uint256",
          "name": "index",
          "type": "uint256"
        }
      ],
      "name": "tokenByIndex",
      "outputs": [
        {
          "internalType": "uint256",
          "name": "",
          "type": "uint256"
        }
      ],
      "stateMutability": "view",
      "type": "function"
    },
    {
      "inputs": [
        {
          "internalType": "address",
          "name": "owner",
          "type": "address"
        },
        {
          "internalType": "uint256",
          "name": "index",
          "type": "uint256"
        }
      ],
      "name": "tokenOfOwnerByIndex",
      "outputs": [
        {
          "internalType": "uint256",
          "name": "",
          "type": "uint256"
        }
      ],
      "stateMutability": "view",
      "type": "function"
    },
    {
      "inputs": [
        {
          "internalType": "uint256",
          "name": "tokenId",
          "type": "uint256"
        }
      ],
      "name": "tokenURI",
      "outputs": [
        {
          "internalType": "string",
          "name": "",
          "type": "string"
        }
      ],
      "stateMutability": "view",
      "type": "function"
    },
    {
      "inputs": [],
      "name": "totalSupply",
      "outputs": [
        {
          "internalType": "uint256",
          "name": "",
          "type": "uint256"
        }
      ],
      "stateMutability": "view",
      "type": "function"
    },
    {
      "inputs": [
        {
          "internalType": "address",
          "name": "from",
          "type": "address"
        },
        {
          "internalType": "address",
          "name": "to",
          "type": "address"
        },
        {
          "internalType": "uint256",
          "name": "tokenId",
          "type": "uint256"
        }
      ],
      "name": "transferFrom",
      "outputs": [],
      "stateMutability": "nonpayable",
      "type": "function"
    },
    {
      "inputs": [
        {
          "internalType": "address",
          "name": "newOwner",
          "type": "address"
        }
      ],
      "name": "transferOwnership",
      "outputs": [],
      "stateMutability": "nonpayable",
      "type": "function"
    },
    {
      "inputs": [],
      "name": "unpause",
      "outputs": [],
      "stateMutability": "nonpayable",
      "type": "function"
    }
  ],
  "bytecode": "0x60806040523480156200001157600080fd5b506040518060400160405280600a81526020017f5370656e6441646d696e000000000000000000000000000000000000000000008152506040518060400160405280600481526020017f535054410000000000000000000000000000000000000000000000000000000081525081600090816200008f91906200042d565b508060019081620000a191906200042d565b5050506000600b60006101000a81548160ff021916908315150217905550620000df620000d3620000e560201b60201c565b620000ed60201b60201c565b62000514565b600033905090565b6000600b60019054906101000a900473ffffffffffffffffffffffffffffffffffffffff16905081600b60016101000a81548173ffffffffffffffffffffffffffffffffffffffff021916908373ffffffffffffffffffffffffffffffffffffffff1602179055508173ffffffffffffffffffffffffffffffffffffffff168173ffffffffffffffffffffffffffffffffffffffff167f8be0079c531659141344cd1fd0a4f28419497f9722a3daafe3b4186f6b6457e060405160405180910390a35050565b600081519050919050565b7f4e487b7100000000000000000000000000000000000000000000000000000000600052604160045260246000fd5b7f4e487b7100000000000000000000000000000000000000000000000000000000600052602260045260246000fd5b600060028204905060018216806200023557607f821691505b6020821081036200024b576200024a620001ed565b5b50919050565b60008190508160005260206000209050919050565b60006020601f8301049050919050565b600082821b905092915050565b600060088302620002b57fffffffffffffffffffffffffffffffffffffffffffffffffffffffffffffffff8262000276565b620002c1868362000276565b95508019841693508086168417925050509392505050565b6000819050919050565b6000819050919050565b60006200030e620003086200030284620002d9565b620002e3565b620002d9565b9050919050565b6000819050919050565b6200032a83620002ed565b62000342620003398262000315565b84845462000283565b825550505050565b600090565b620003596200034a565b620003668184846200031f565b505050565b5b818110156200038e57620003826000826200034f565b6001810190506200036c565b5050565b601f821115620003dd57620003a78162000251565b620003b28462000266565b81016020851015620003c2578190505b620003da620003d18562000266565b8301826200036b565b50505b505050565b600082821c905092915050565b60006200040260001984600802620003e2565b1980831691505092915050565b60006200041d8383620003ef565b9150826002028217905092915050565b6200043882620001b3565b67ffffffffffffffff811115620004545762000453620001be565b5b6200046082546200021c565b6200046d82828562000392565b600060209050601f831160018114620004a5576000841562000490578287015190505b6200049c85826200040f565b8655506200050c565b601f198416620004b58662000251565b60005b82811015620004df57848901518255600182019150602085019450602081019050620004b8565b86831015620004ff5784890151620004fb601f891682620003ef565b8355505b6001600288020188555050505b505050505050565b61382d80620005246000396000f3fe608060405234801561001057600080fd5b50600436106101585760003560e01c80636352211e116100c3578063a22cb4651161007c578063a22cb465146103a1578063b88d4fde146103bd578063c87b56dd146103d9578063d204c45e14610409578063e985e9c514610425578063f2fde38b1461045557610158565b80636352211e146102f157806370a0823114610321578063715018a6146103515780638456cb591461035b5780638da5cb5b1461036557806395d89b411461038357610158565b80632f745c59116101155780632f745c59146102315780633f4ba83a1461026157806342842e0e1461026b57806342966c68146102875780634f6ccce7146102a35780635c975abb146102d357610158565b806301ffc9a71461015d57806306fdde031461018d578063081812fc146101ab578063095ea7b3146101db57806318160ddd146101f757806323b872dd14610215575b600080fd5b61017760048036038101906101729190612319565b610471565b6040516101849190612361565b60405180910390f35b610195610483565b6040516101a2919061240c565b60405180910390f35b6101c560048036038101906101c09190612464565b610515565b6040516101d291906124d2565b60405180910390f35b6101f560048036038101906101f09190612519565b61055b565b005b6101ff610672565b60405161020c9190612568565b60405180910390f35b61022f600480360381019061022a9190612583565b61067f565b005b61024b60048036038101906102469190612519565b6106df565b6040516102589190612568565b60405180910390f35b610269610784565b005b61028560048036038101906102809190612583565b610796565b005b6102a1600480360381019061029c9190612464565b6107b6565b005b6102bd60048036038101906102b89190612464565b610812565b6040516102ca9190612568565b60405180910390f35b6102db610883565b6040516102e89190612361565b60405180910390f35b61030b60048036038101906103069190612464565b61089a565b60405161031891906124d2565b60405180910390f35b61033b600480360381019061033691906125d6565b610920565b6040516103489190612568565b60405180910390f35b6103596109d7565b005b6103636109eb565b005b61036d6109fd565b60405161037a91906124d2565b60405180910390f35b61038b610a27565b604051610398919061240c565b60405180910390f35b6103bb60048036038101906103b6919061262f565b610ab9565b005b6103d760048036038101906103d291906127a4565b610acf565b005b6103f360048036038101906103ee9190612464565b610b31565b604051610400919061240c565b60405180910390f35b610423600480360381019061041e91906128c8565b610b43565b005b61043f600480360381019061043a9190612924565b610b7c565b60405161044c9190612361565b60405180910390f35b61046f600480360381019061046a91906125d6565b610c10565b005b600061047c82610c93565b9050919050565b60606000805461049290612993565b80601f01602080910402602001604051908101604052809291908181526020018280546104be90612993565b801561050b5780601f106104e05761010080835404028352916020019161050b565b820191906000526020600020905b8154815290600101906020018083116104ee57829003601f168201915b5050505050905090565b600061052082610d0d565b6004600083815260200190815260200160002060009054906101000a900473ffffffffffffffffffffffffffffffffffffffff169050919050565b60006105668261089a565b90508073ffffffffffffffffffffffffffffffffffffffff168373ffffffffffffffffffffffffffffffffffffffff16036105d6576040517f08c379a00000000000000000000000000000000000000000000000000000000081526004016105cd90612a36565b60405180910390fd5b8073ffffffffffffffffffffffffffffffffffffffff166105f5610d58565b73ffffffffffffffffffffffffffffffffffffffff16148061062457506106238161061e610d58565b610b7c565b5b610663576040517f08c379a000000000000000000000000000000000000000000000000000000000815260040161065a90612ac8565b60405180910390fd5b61066d8383610d60565b505050565b6000600880549050905090565b61069061068a610d58565b82610e19565b6106cf576040517f08c379a00000000000000000000000000000000000000000000000000000000081526004016106c690612b5a565b60405180910390fd5b6106da838383610eae565b505050565b60006106ea83610920565b821061072b576040517f08c379a000000000000000000000000000000000000000000000000000000000815260040161072290612bec565b60405180910390fd5b600660008473ffffffffffffffffffffffffffffffffffffffff1673ffffffffffffffffffffffffffffffffffffffff168152602001908152602001600020600083815260200190815260200160002054905092915050565b61078c6111a7565b610794611225565b565b6107b183838360405180602001604052806000815250610acf565b505050565b6107c76107c1610d58565b82610e19565b610806576040517f08c379a00000000000000000000000000000000000000000000000000000000081526004016107fd90612b5a565b60405180910390fd5b61080f81611288565b50565b600061081c610672565b821061085d576040517f08c379a000000000000000000000000000000000000000000000000000000000815260040161085490612c7e565b60405180910390fd5b6008828154811061087157610870612c9e565b5b90600052602060002001549050919050565b6000600b60009054906101000a900460ff16905090565b6000806108a683611294565b9050600073ffffffffffffffffffffffffffffffffffffffff168173ffffffffffffffffffffffffffffffffffffffff1603610917576040517f08c379a000000000000000000000000000000000000000000000000000000000815260040161090e90612d19565b60405180910390fd5b80915050919050565b60008073ffffffffffffffffffffffffffffffffffffffff168273ffffffffffffffffffffffffffffffffffffffff1603610990576040517f08c379a000000000000000000000000000000000000000000000000000000000815260040161098790612dab565b60405180910390fd5b600360008373ffffffffffffffffffffffffffffffffffffffff1673ffffffffffffffffffffffffffffffffffffffff168152602001908152602001600020549050919050565b6109df6111a7565b6109e960006112d1565b565b6109f36111a7565b6109fb611397565b565b6000600b60019054906101000a900473ffffffffffffffffffffffffffffffffffffffff16905090565b606060018054610a3690612993565b80601f0160208091040260200160405190810160405280929190818152602001828054610a6290612993565b8015610aaf5780601f10610a8457610100808354040283529160200191610aaf565b820191906000526020600020905b815481529060010190602001808311610a9257829003601f168201915b5050505050905090565b610acb610ac4610d58565b83836113fa565b5050565b610ae0610ada610d58565b83610e19565b610b1f576040517f08c379a0000000000000000000000000000000000000000000000000000000008152600401610b1690612b5a565b60405180910390fd5b610b2b84848484611566565b50505050565b6060610b3c826115c2565b9050919050565b610b4b6111a7565b6000610b57600c6116d4565b9050610b63600c6116e2565b610b6d83826116f8565b610b778183611915565b505050565b6000600560008473ffffffffffffffffffffffffffffffffffffffff1673ffffffffffffffffffffffffffffffffffffffff16815260200190815260200160002060008373ffffffffffffffffffffffffffffffffffffffff1673ffffffffffffffffffffffffffffffffffffffff16815260200190815260200160002060009054906101000a900460ff16905092915050565b610c186111a7565b600073ffffffffffffffffffffffffffffffffffffffff168173ffffffffffffffffffffffffffffffffffffffff1603610c87576040517f08c379a0000000000000000000000000000000000000000000000000000000008152600401610c7e90612e3d565b60405180910390fd5b610c90816112d1565b50565b60007f780e9d63000000000000000000000000000000000000000000000000000000007bffffffffffffffffffffffffffffffffffffffffffffffffffffffff1916827bffffffffffffffffffffffffffffffffffffffffffffffffffffffff19161480610d065750610d0582611982565b5b9050919050565b610d1681611a64565b610d55576040517f08c379a0000000000000000000000000000000000000000000000000000000008152600401610d4c90612d19565b60405180910390fd5b50565b600033905090565b816004600083815260200190815260200160002060006101000a81548173ffffffffffffffffffffffffffffffffffffffff021916908373ffffffffffffffffffffffffffffffffffffffff160217905550808273ffffffffffffffffffffffffffffffffffffffff16610dd38361089a565b73ffffffffffffffffffffffffffffffffffffffff167f8c5be1e5ebec7d5bd14f71427d1e84f3dd0314c0f7b2291e5b200ac8c7c3b92560405160405180910390a45050565b600080610e258361089a565b90508073ffffffffffffffffffffffffffffffffffffffff168473ffffffffffffffffffffffffffffffffffffffff161480610e675750610e668185610b7c565b5b80610ea557508373ffffffffffffffffffffffffffffffffffffffff16610e8d84610515565b73ffffffffffffffffffffffffffffffffffffffff16145b91505092915050565b8273ffffffffffffffffffffffffffffffffffffffff16610ece8261089a565b73ffffffffffffffffffffffffffffffffffffffff1614610f24576040517f08c379a0000000000000000000000000000000000000000000000000000000008152600401610f1b90612ecf565b60405180910390fd5b600073ffffffffffffffffffffffffffffffffffffffff168273ffffffffffffffffffffffffffffffffffffffff1603610f93576040517f08c379a0000000000000000000000000000000000000000000000000000000008152600401610f8a90612f61565b60405180910390fd5b610fa08383836001611aa5565b8273ffffffffffffffffffffffffffffffffffffffff16610fc08261089a565b73ffffffffffffffffffffffffffffffffffffffff1614611016576040517f08c379a000000000000000000000000000000000000000000000000000000000815260040161100d90612ecf565b60405180910390fd5b6004600082815260200190815260200160002060006101000a81549073ffffffffffffffffffffffffffffffffffffffff02191690556001600360008573ffffffffffffffffffffffffffffffffffffffff1673ffffffffffffffffffffffffffffffffffffffff168152602001908152602001600020600082825403925050819055506001600360008473ffffffffffffffffffffffffffffffffffffffff1673ffffffffffffffffffffffffffffffffffffffff16815260200190815260200160002060008282540192505081905550816002600083815260200190815260200160002060006101000a81548173ffffffffffffffffffffffffffffffffffffffff021916908373ffffffffffffffffffffffffffffffffffffffff160217905550808273ffffffffffffffffffffffffffffffffffffffff168473ffffffffffffffffffffffffffffffffffffffff167fddf252ad1be2c89b69c2b068fc378daa952ba7f163c4a11628f55a4df523b3ef60405160405180910390a46111a28383836001611b59565b505050565b6111af610d58565b73ffffffffffffffffffffffffffffffffffffffff166111cd6109fd565b73ffffffffffffffffffffffffffffffffffffffff1614611223576040517f08c379a000000000000000000000000000000000000000000000000000000000815260040161121a90612fcd565b60405180910390fd5b565b61122d611b5f565b6000600b60006101000a81548160ff0219169083151502179055507f5db9ee0a495bf2e6ff9c91a7834c1ba4fdd244a5e8aa4e537bd38aeae4b073aa611271610d58565b60405161127e91906124d2565b60405180910390a1565b61129181611ba8565b50565b60006002600083815260200190815260200160002060009054906101000a900473ffffffffffffffffffffffffffffffffffffffff169050919050565b6000600b60019054906101000a900473ffffffffffffffffffffffffffffffffffffffff16905081600b60016101000a81548173ffffffffffffffffffffffffffffffffffffffff021916908373ffffffffffffffffffffffffffffffffffffffff1602179055508173ffffffffffffffffffffffffffffffffffffffff168173ffffffffffffffffffffffffffffffffffffffff167f8be0079c531659141344cd1fd0a4f28419497f9722a3daafe3b4186f6b6457e060405160405180910390a35050565b61139f611bfb565b6001600b60006101000a81548160ff0219169083151502179055507f62e78cea01bee320cd4e420270b5ea74000d11b0c9f74754ebdbfc544b05a2586113e3610d58565b6040516113f091906124d2565b60405180910390a1565b8173ffffffffffffffffffffffffffffffffffffffff168373ffffffffffffffffffffffffffffffffffffffff1603611468576040517f08c379a000000000000000000000000000000000000000000000000000000000815260040161145f90613039565b60405180910390fd5b80600560008573ffffffffffffffffffffffffffffffffffffffff1673ffffffffffffffffffffffffffffffffffffffff16815260200190815260200160002060008473ffffffffffffffffffffffffffffffffffffffff1673ffffffffffffffffffffffffffffffffffffffff16815260200190815260200160002060006101000a81548160ff0219169083151502179055508173ffffffffffffffffffffffffffffffffffffffff168373ffffffffffffffffffffffffffffffffffffffff167f17307eab39ab6107e8899845ad3d59bd9653f200f220920489ca2b5937696c31836040516115599190612361565b60405180910390a3505050565b611571848484610eae565b61157d84848484611c45565b6115bc576040517f08c379a00000000000000000000000000000000000000000000000000000000081526004016115b3906130cb565b60405180910390fd5b50505050565b60606115cd82610d0d565b6000600a600084815260200190815260200160002080546115ed90612993565b80601f016020809104026020016040519081016040528092919081815260200182805461161990612993565b80156116665780601f1061163b57610100808354040283529160200191611666565b820191906000526020600020905b81548152906001019060200180831161164957829003601f168201915b505050505090506000611677611dcc565b9050600081510361168c5781925050506116cf565b6000825111156116c15780826040516020016116a9929190613127565b604051602081830303815290604052925050506116cf565b6116ca84611dec565b925050505b919050565b600081600001549050919050565b6001816000016000828254019250508190555050565b600073ffffffffffffffffffffffffffffffffffffffff168273ffffffffffffffffffffffffffffffffffffffff1603611767576040517f08c379a000000000000000000000000000000000000000000000000000000000815260040161175e90613197565b60405180910390fd5b61177081611a64565b156117b0576040517f08c379a00000000000000000000000000000000000000000000000000000000081526004016117a790613203565b60405180910390fd5b6117be600083836001611aa5565b6117c781611a64565b15611807576040517f08c379a00000000000000000000000000000000000000000000000000000000081526004016117fe90613203565b60405180910390fd5b6001600360008473ffffffffffffffffffffffffffffffffffffffff1673ffffffffffffffffffffffffffffffffffffffff16815260200190815260200160002060008282540192505081905550816002600083815260200190815260200160002060006101000a81548173ffffffffffffffffffffffffffffffffffffffff021916908373ffffffffffffffffffffffffffffffffffffffff160217905550808273ffffffffffffffffffffffffffffffffffffffff16600073ffffffffffffffffffffffffffffffffffffffff167fddf252ad1be2c89b69c2b068fc378daa952ba7f163c4a11628f55a4df523b3ef60405160405180910390a4611911600083836001611b59565b5050565b61191e82611a64565b61195d576040517f08c379a000000000000000000000000000000000000000000000000000000000815260040161195490613295565b60405180910390fd5b80600a6000848152602001908152602001600020908161197d9190613461565b505050565b60007f80ac58cd000000000000000000000000000000000000000000000000000000007bffffffffffffffffffffffffffffffffffffffffffffffffffffffff1916827bffffffffffffffffffffffffffffffffffffffffffffffffffffffff19161480611a4d57507f5b5e139f000000000000000000000000000000000000000000000000000000007bffffffffffffffffffffffffffffffffffffffffffffffffffffffff1916827bffffffffffffffffffffffffffffffffffffffffffffffffffffffff1916145b80611a5d5750611a5c82611e54565b5b9050919050565b60008073ffffffffffffffffffffffffffffffffffffffff16611a8683611294565b73ffffffffffffffffffffffffffffffffffffffff1614159050919050565b611aad611bfb565b600073ffffffffffffffffffffffffffffffffffffffff168473ffffffffffffffffffffffffffffffffffffffff161480611b145750600073ffffffffffffffffffffffffffffffffffffffff168373ffffffffffffffffffffffffffffffffffffffff16145b611b53576040517f08c379a0000000000000000000000000000000000000000000000000000000008152600401611b4a906135cb565b60405180910390fd5b50505050565b50505050565b611b67610883565b611ba6576040517f08c379a0000000000000000000000000000000000000000000000000000000008152600401611b9d90613637565b60405180910390fd5b565b611bb181611ebe565b6000600a60008381526020019081526020016000208054611bd190612993565b905014611bf857600a60008281526020019081526020016000206000611bf79190612250565b5b50565b611c03610883565b15611c43576040517f08c379a0000000000000000000000000000000000000000000000000000000008152600401611c3a906136a3565b60405180910390fd5b565b6000611c668473ffffffffffffffffffffffffffffffffffffffff1661200c565b15611dbf578373ffffffffffffffffffffffffffffffffffffffff1663150b7a02611c8f610d58565b8786866040518563ffffffff1660e01b8152600401611cb19493929190613718565b6020604051808303816000875af1925050508015611ced57506040513d601f19601f82011682018060405250810190611cea9190613779565b60015b611d6f573d8060008114611d1d576040519150601f19603f3d011682016040523d82523d6000602084013e611d22565b606091505b506000815103611d67576040517f08c379a0000000000000000000000000000000000000000000000000000000008152600401611d5e906130cb565b60405180910390fd5b805181602001fd5b63150b7a0260e01b7bffffffffffffffffffffffffffffffffffffffffffffffffffffffff1916817bffffffffffffffffffffffffffffffffffffffffffffffffffffffff191614915050611dc4565b600190505b949350505050565b60606040518060600160405280602281526020016137d660229139905090565b6060611df782610d0d565b6000611e01611dcc565b90506000815111611e215760405180602001604052806000815250611e4c565b80611e2b8461202f565b604051602001611e3c929190613127565b6040516020818303038152906040525b915050919050565b60007f01ffc9a7000000000000000000000000000000000000000000000000000000007bffffffffffffffffffffffffffffffffffffffffffffffffffffffff1916827bffffffffffffffffffffffffffffffffffffffffffffffffffffffff1916149050919050565b6000611ec98261089a565b9050611ed9816000846001611aa5565b611ee28261089a565b90506004600083815260200190815260200160002060006101000a81549073ffffffffffffffffffffffffffffffffffffffff02191690556001600360008373ffffffffffffffffffffffffffffffffffffffff1673ffffffffffffffffffffffffffffffffffffffff168152602001908152602001600020600082825403925050819055506002600083815260200190815260200160002060006101000a81549073ffffffffffffffffffffffffffffffffffffffff021916905581600073ffffffffffffffffffffffffffffffffffffffff168273ffffffffffffffffffffffffffffffffffffffff167fddf252ad1be2c89b69c2b068fc378daa952ba7f163c4a11628f55a4df523b3ef60405160405180910390a4612008816000846001611b59565b5050565b6000808273ffffffffffffffffffffffffffffffffffffffff163b119050919050565b60606000600161203e846120fd565b01905060008167ffffffffffffffff81111561205d5761205c612679565b5b6040519080825280601f01601f19166020018201604052801561208f5781602001600182028036833780820191505090505b509050600082602001820190505b6001156120f2578080600190039150507f3031323334353637383961626364656600000000000000000000000000000000600a86061a8153600a85816120e6576120e56137a6565b5b0494506000850361209d575b819350505050919050565b600080600090507a184f03e93ff9f4daa797ed6e38ed64bf6a1f010000000000000000831061215b577a184f03e93ff9f4daa797ed6e38ed64bf6a1f0100000000000000008381612151576121506137a6565b5b0492506040810190505b6d04ee2d6d415b85acef81000000008310612198576d04ee2d6d415b85acef8100000000838161218e5761218d6137a6565b5b0492506020810190505b662386f26fc1000083106121c757662386f26fc1000083816121bd576121bc6137a6565b5b0492506010810190505b6305f5e10083106121f0576305f5e10083816121e6576121e56137a6565b5b0492506008810190505b612710831061221557612710838161220b5761220a6137a6565b5b0492506004810190505b60648310612238576064838161222e5761222d6137a6565b5b0492506002810190505b600a8310612247576001810190505b80915050919050565b50805461225c90612993565b6000825580601f1061226e575061228d565b601f01602090049060005260206000209081019061228c9190612290565b5b50565b5b808211156122a9576000816000905550600101612291565b5090565b6000604051905090565b600080fd5b600080fd5b60007fffffffff0000000000000000000000000000000000000000000000000000000082169050919050565b6122f6816122c1565b811461230157600080fd5b50565b600081359050612313816122ed565b92915050565b60006020828403121561232f5761232e6122b7565b5b600061233d84828501612304565b91505092915050565b60008115159050919050565b61235b81612346565b82525050565b60006020820190506123766000830184612352565b92915050565b600081519050919050565b600082825260208201905092915050565b60005b838110156123b657808201518184015260208101905061239b565b60008484015250505050565b6000601f19601f8301169050919050565b60006123de8261237c565b6123e88185612387565b93506123f8818560208601612398565b612401816123c2565b840191505092915050565b6000602082019050818103600083015261242681846123d3565b905092915050565b6000819050919050565b6124418161242e565b811461244c57600080fd5b50565b60008135905061245e81612438565b92915050565b60006020828403121561247a576124796122b7565b5b60006124888482850161244f565b91505092915050565b600073ffffffffffffffffffffffffffffffffffffffff82169050919050565b60006124bc82612491565b9050919050565b6124cc816124b1565b82525050565b60006020820190506124e760008301846124c3565b92915050565b6124f6816124b1565b811461250157600080fd5b50565b600081359050612513816124ed565b92915050565b600080604083850312156125305761252f6122b7565b5b600061253e85828601612504565b925050602061254f8582860161244f565b9150509250929050565b6125628161242e565b82525050565b600060208201905061257d6000830184612559565b92915050565b60008060006060848603121561259c5761259b6122b7565b5b60006125aa86828701612504565b93505060206125bb86828701612504565b92505060406125cc8682870161244f565b9150509250925092565b6000602082840312156125ec576125eb6122b7565b5b60006125fa84828501612504565b91505092915050565b61260c81612346565b811461261757600080fd5b50565b60008135905061262981612603565b92915050565b60008060408385031215612646576126456122b7565b5b600061265485828601612504565b92505060206126658582860161261a565b9150509250929050565b600080fd5b600080fd5b7f4e487b7100000000000000000000000000000000000000000000000000000000600052604160045260246000fd5b6126b1826123c2565b810181811067ffffffffffffffff821117156126d0576126cf612679565b5b80604052505050565b60006126e36122ad565b90506126ef82826126a8565b919050565b600067ffffffffffffffff82111561270f5761270e612679565b5b612718826123c2565b9050602081019050919050565b82818337600083830152505050565b6000612747612742846126f4565b6126d9565b90508281526020810184848401111561276357612762612674565b5b61276e848285612725565b509392505050565b600082601f83011261278b5761278a61266f565b5b813561279b848260208601612734565b91505092915050565b600080600080608085870312156127be576127bd6122b7565b5b60006127cc87828801612504565b94505060206127dd87828801612504565b93505060406127ee8782880161244f565b925050606085013567ffffffffffffffff81111561280f5761280e6122bc565b5b61281b87828801612776565b91505092959194509250565b600067ffffffffffffffff82111561284257612841612679565b5b61284b826123c2565b9050602081019050919050565b600061286b61286684612827565b6126d9565b90508281526020810184848401111561288757612886612674565b5b612892848285612725565b509392505050565b600082601f8301126128af576128ae61266f565b5b81356128bf848260208601612858565b91505092915050565b600080604083850312156128df576128de6122b7565b5b60006128ed85828601612504565b925050602083013567ffffffffffffffff81111561290e5761290d6122bc565b5b61291a8582860161289a565b9150509250929050565b6000806040838503121561293b5761293a6122b7565b5b600061294985828601612504565b925050602061295a85828601612504565b9150509250929050565b7f4e487b7100000000000000000000000000000000000000000000000000000000600052602260045260246000fd5b600060028204905060018216806129ab57607f821691505b6020821081036129be576129bd612964565b5b50919050565b7f4552433732313a20617070726f76616c20746f2063757272656e74206f776e6560008201527f7200000000000000000000000000000000000000000000000000000000000000602082015250565b6000612a20602183612387565b9150612a2b826129c4565b604082019050919050565b60006020820190508181036000830152612a4f81612a13565b9050919050565b7f4552433732313a20617070726f76652063616c6c6572206973206e6f7420746f60008201527f6b656e206f776e6572206f7220617070726f76656420666f7220616c6c000000602082015250565b6000612ab2603d83612387565b9150612abd82612a56565b604082019050919050565b60006020820190508181036000830152612ae181612aa5565b9050919050565b7f4552433732313a2063616c6c6572206973206e6f7420746f6b656e206f776e6560008201527f72206f7220617070726f76656400000000000000000000000000000000000000602082015250565b6000612b44602d83612387565b9150612b4f82612ae8565b604082019050919050565b60006020820190508181036000830152612b7381612b37565b9050919050565b7f455243373231456e756d657261626c653a206f776e657220696e646578206f7560008201527f74206f6620626f756e6473000000000000000000000000000000000000000000602082015250565b6000612bd6602b83612387565b9150612be182612b7a565b604082019050919050565b60006020820190508181036000830152612c0581612bc9565b9050919050565b7f455243373231456e756d657261626c653a20676c6f62616c20696e646578206f60008201527f7574206f6620626f756e64730000000000000000000000000000000000000000602082015250565b6000612c68602c83612387565b9150612c7382612c0c565b604082019050919050565b60006020820190508181036000830152612c9781612c5b565b9050919050565b7f4e487b7100000000000000000000000000000000000000000000000000000000600052603260045260246000fd5b7f4552433732313a20696e76616c696420746f6b656e2049440000000000000000600082015250565b6000612d03601883612387565b9150612d0e82612ccd565b602082019050919050565b60006020820190508181036000830152612d3281612cf6565b9050919050565b7f4552433732313a2061646472657373207a65726f206973206e6f74206120766160008201527f6c6964206f776e65720000000000000000000000000000000000000000000000602082015250565b6000612d95602983612387565b9150612da082612d39565b604082019050919050565b60006020820190508181036000830152612dc481612d88565b9050919050565b7f4f776e61626c653a206e6577206f776e657220697320746865207a65726f206160008201527f6464726573730000000000000000000000000000000000000000000000000000602082015250565b6000612e27602683612387565b9150612e3282612dcb565b604082019050919050565b60006020820190508181036000830152612e5681612e1a565b9050919050565b7f4552433732313a207472616e736665722066726f6d20696e636f72726563742060008201527f6f776e6572000000000000000000000000000000000000000000000000000000602082015250565b6000612eb9602583612387565b9150612ec482612e5d565b604082019050919050565b60006020820190508181036000830152612ee881612eac565b9050919050565b7f4552433732313a207472616e7366657220746f20746865207a65726f2061646460008201527f7265737300000000000000000000000000000000000000000000000000000000602082015250565b6000612f4b602483612387565b9150612f5682612eef565b604082019050919050565b60006020820190508181036000830152612f7a81612f3e565b9050919050565b7f4f776e61626c653a2063616c6c6572206973206e6f7420746865206f776e6572600082015250565b6000612fb7602083612387565b9150612fc282612f81565b602082019050919050565b60006020820190508181036000830152612fe681612faa565b9050919050565b7f4552433732313a20617070726f766520746f2063616c6c657200000000000000600082015250565b6000613023601983612387565b915061302e82612fed565b602082019050919050565b6000602082019050818103600083015261305281613016565b9050919050565b7f4552433732313a207472616e7366657220746f206e6f6e20455243373231526560008201527f63656976657220696d706c656d656e7465720000000000000000000000000000602082015250565b60006130b5603283612387565b91506130c082613059565b604082019050919050565b600060208201905081810360008301526130e4816130a8565b9050919050565b600081905092915050565b60006131018261237c565b61310b81856130eb565b935061311b818560208601612398565b80840191505092915050565b600061313382856130f6565b915061313f82846130f6565b91508190509392505050565b7f4552433732313a206d696e7420746f20746865207a65726f2061646472657373600082015250565b6000613181602083612387565b915061318c8261314b565b602082019050919050565b600060208201905081810360008301526131b081613174565b9050919050565b7f4552433732313a20746f6b656e20616c7265616479206d696e74656400000000600082015250565b60006131ed601c83612387565b91506131f8826131b7565b602082019050919050565b6000602082019050818103600083015261321c816131e0565b9050919050565b7f45524337323155524953746f726167653a2055524920736574206f66206e6f6e60008201527f6578697374656e7420746f6b656e000000000000000000000000000000000000602082015250565b600061327f602e83612387565b915061328a82613223565b604082019050919050565b600060208201905081810360008301526132ae81613272565b9050919050565b60008190508160005260206000209050919050565b60006020601f8301049050919050565b600082821b905092915050565b6000600883026133177fffffffffffffffffffffffffffffffffffffffffffffffffffffffffffffffff826132da565b61332186836132da565b95508019841693508086168417925050509392505050565b6000819050919050565b600061335e6133596133548461242e565b613339565b61242e565b9050919050565b6000819050919050565b61337883613343565b61338c61338482613365565b8484546132e7565b825550505050565b600090565b6133a1613394565b6133ac81848461336f565b505050565b5b818110156133d0576133c5600082613399565b6001810190506133b2565b5050565b601f821115613415576133e6816132b5565b6133ef846132ca565b810160208510156133fe578190505b61341261340a856132ca565b8301826133b1565b50505b505050565b600082821c905092915050565b60006134386000198460080261341a565b1980831691505092915050565b60006134518383613427565b9150826002028217905092915050565b61346a8261237c565b67ffffffffffffffff81111561348357613482612679565b5b61348d8254612993565b6134988282856133d4565b600060209050601f8311600181146134cb57600084156134b9578287015190505b6134c38582613445565b86555061352b565b601f1984166134d9866132b5565b60005b82811015613501578489015182556001820191506020850194506020810190506134dc565b8683101561351e578489015161351a601f891682613427565b8355505b6001600288020188555050505b505050505050565b7f54686973206120536f756c626f756e6420746f6b656e2e2049742063616e6e6f60008201527f74206265207472616e736665727265642e2049742063616e206f6e6c7920626560208201527f206275726e65642062792074686520746f6b656e206f776e65722e0000000000604082015250565b60006135b5605b83612387565b91506135c082613533565b606082019050919050565b600060208201905081810360008301526135e4816135a8565b9050919050565b7f5061757361626c653a206e6f7420706175736564000000000000000000000000600082015250565b6000613621601483612387565b915061362c826135eb565b602082019050919050565b6000602082019050818103600083015261365081613614565b9050919050565b7f5061757361626c653a2070617573656400000000000000000000000000000000600082015250565b600061368d601083612387565b915061369882613657565b602082019050919050565b600060208201905081810360008301526136bc81613680565b9050919050565b600081519050919050565b600082825260208201905092915050565b60006136ea826136c3565b6136f481856136ce565b9350613704818560208601612398565b61370d816123c2565b840191505092915050565b600060808201905061372d60008301876124c3565b61373a60208301866124c3565b6137476040830185612559565b818103606083015261375981846136df565b905095945050505050565b600081519050613773816122ed565b92915050565b60006020828403121561378f5761378e6122b7565b5b600061379d84828501613764565b91505092915050565b7f4e487b7100000000000000000000000000000000000000000000000000000000600052601260045260246000fdfe68747470733a2f2f636364616f2e6d7970696e6174612e636c6f75642f697066732fa2646970667358221220cfafaeb0ff1956d208502300080ceb5b18926cd22840bc30fed38172b8fab2f564736f6c63430008110033",
  "linkReferences": {},
  "deployedLinkReferences": {}
}