{
  "_format": "hh-sol-artifact-1",
  "contractName": "SpendSBT",
  "sourceName": "contracts/SpendSBT.sol",
  "abi": [
    {
      "inputs": [],
      "stateMutability": "nonpayable",
      "type": "constructor"
    },
    {
      "anonymous": false,
      "inputs": [
        {
          "indexed": true,
          "internalType": "address",
          "name": "owner",
          "type": "address"
        },
        {
          "indexed": true,
          "internalType": "address",
          "name": "approved",
          "type": "address"
        },
        {
          "indexed": true,
          "internalType": "uint256",
          "name": "tokenId",
          "type": "uint256"
        }
      ],
      "name": "Approval",
      "type": "event"
    },
    {
      "anonymous": false,
      "inputs": [
        {
          "indexed": true,
          "internalType": "address",
          "name": "owner",
          "type": "address"
        },
        {
          "indexed": true,
          "internalType": "address",
          "name": "operator",
          "type": "address"
        },
        {
          "indexed": false,
          "internalType": "bool",
          "name": "approved",
          "type": "bool"
        }
      ],
      "name": "ApprovalForAll",
      "type": "event"
    },
    {
      "anonymous": false,
      "inputs": [
        {
          "indexed": true,
          "internalType": "address",
          "name": "previousOwner",
          "type": "address"
        },
        {
          "indexed": true,
          "internalType": "address",
          "name": "newOwner",
          "type": "address"
        }
      ],
      "name": "OwnershipTransferred",
      "type": "event"
    },
    {
      "anonymous": false,
      "inputs": [
        {
          "indexed": true,
          "internalType": "address",
          "name": "from",
          "type": "address"
        },
        {
          "indexed": true,
          "internalType": "address",
          "name": "to",
          "type": "address"
        },
        {
          "indexed": true,
          "internalType": "uint256",
          "name": "tokenId",
          "type": "uint256"
        }
      ],
      "name": "Transfer",
      "type": "event"
    },
    {
      "inputs": [
        {
          "internalType": "address",
          "name": "to",
          "type": "address"
        },
        {
          "internalType": "uint256",
          "name": "tokenId",
          "type": "uint256"
        }
      ],
      "name": "approve",
      "outputs": [],
      "stateMutability": "nonpayable",
      "type": "function"
    },
    {
      "inputs": [
        {
          "internalType": "address",
          "name": "owner",
          "type": "address"
        }
      ],
      "name": "balanceOf",
      "outputs": [
        {
          "internalType": "uint256",
          "name": "",
          "type": "uint256"
        }
      ],
      "stateMutability": "view",
      "type": "function"
    },
    {
      "inputs": [
        {
          "internalType": "uint256",
          "name": "tokenId",
          "type": "uint256"
        }
      ],
      "name": "burn",
      "outputs": [],
      "stateMutability": "nonpayable",
      "type": "function"
    },
    {
      "inputs": [
        {
          "internalType": "uint256",
          "name": "",
          "type": "uint256"
        }
      ],
      "name": "cidList",
      "outputs": [
        {
          "internalType": "string",
          "name": "",
          "type": "string"
        }
      ],
      "stateMutability": "view",
      "type": "function"
    },
    {
      "inputs": [
        {
          "internalType": "uint256",
          "name": "tokenId",
          "type": "uint256"
        }
      ],
      "name": "getApproved",
      "outputs": [
        {
          "internalType": "address",
          "name": "",
          "type": "address"
        }
      ],
      "stateMutability": "view",
      "type": "function"
    },
    {
      "inputs": [
        {
          "internalType": "address",
          "name": "owner",
          "type": "address"
        },
        {
          "internalType": "address",
          "name": "operator",
          "type": "address"
        }
      ],
      "name": "isApprovedForAll",
      "outputs": [
        {
          "internalType": "bool",
          "name": "",
          "type": "bool"
        }
      ],
      "stateMutability": "view",
      "type": "function"
    },
    {
      "inputs": [],
      "name": "name",
      "outputs": [
        {
          "internalType": "string",
          "name": "",
          "type": "string"
        }
      ],
      "stateMutability": "view",
      "type": "function"
    },
    {
      "inputs": [],
      "name": "owner",
      "outputs": [
        {
          "internalType": "address",
          "name": "",
          "type": "address"
        }
      ],
      "stateMutability": "view",
      "type": "function"
    },
    {
      "inputs": [
        {
          "internalType": "uint256",
          "name": "tokenId",
          "type": "uint256"
        }
      ],
      "name": "ownerOf",
      "outputs": [
        {
          "internalType": "address",
          "name": "",
          "type": "address"
        }
      ],
      "stateMutability": "view",
      "type": "function"
    },
    {
      "inputs": [
        {
          "internalType": "address",
          "name": "",
          "type": "address"
        },
        {
          "internalType": "uint256",
          "name": "",
          "type": "uint256"
        }
      ],
      "name": "ownerToTokenIds",
      "outputs": [
        {
          "internalType": "uint256",
          "name": "",
          "type": "uint256"
        }
      ],
      "stateMutability": "view",
      "type": "function"
    },
    {
      "inputs": [],
      "name": "renounceOwnership",
      "outputs": [],
      "stateMutability": "nonpayable",
      "type": "function"
    },
    {
      "inputs": [
        {
          "internalType": "address",
          "name": "to",
          "type": "address"
        },
        {
          "internalType": "string",
          "name": "uri",
          "type": "string"
        }
      ],
      "name": "safeMint",
      "outputs": [],
      "stateMutability": "nonpayable",
      "type": "function"
    },
    {
      "inputs": [
        {
          "internalType": "address",
          "name": "from",
          "type": "address"
        },
        {
          "internalType": "address",
          "name": "to",
          "type": "address"
        },
        {
          "internalType": "uint256",
          "name": "tokenId",
          "type": "uint256"
        }
      ],
      "name": "safeTransferFrom",
      "outputs": [],
      "stateMutability": "nonpayable",
      "type": "function"
    },
    {
      "inputs": [
        {
          "internalType": "address",
          "name": "from",
          "type": "address"
        },
        {
          "internalType": "address",
          "name": "to",
          "type": "address"
        },
        {
          "internalType": "uint256",
          "name": "tokenId",
          "type": "uint256"
        },
        {
          "internalType": "bytes",
          "name": "data",
          "type": "bytes"
        }
      ],
      "name": "safeTransferFrom",
      "outputs": [],
      "stateMutability": "nonpayable",
      "type": "function"
    },
    {
      "inputs": [
        {
          "internalType": "address",
          "name": "operator",
          "type": "address"
        },
        {
          "internalType": "bool",
          "name": "approved",
          "type": "bool"
        }
      ],
      "name": "setApprovalForAll",
      "outputs": [],
      "stateMutability": "nonpayable",
      "type": "function"
    },
    {
      "inputs": [
        {
          "internalType": "bytes4",
          "name": "interfaceId",
          "type": "bytes4"
        }
      ],
      "name": "supportsInterface",
      "outputs": [
        {
          "internalType": "bool",
          "name": "",
          "type": "bool"
        }
      ],
      "stateMutability": "view",
      "type": "function"
    },
    {
      "inputs": [],
      "name": "symbol",
      "outputs": [
        {
          "internalType": "string",
          "name": "",
          "type": "string"
        }
      ],
      "stateMutability": "view",
      "type": "function"
    },
    {
      "inputs": [
        {
          "internalType": "uint256",
          "name": "index",
          "type": "uint256"
        }
      ],
      "name": "tokenByIndex",
      "outputs": [
        {
          "internalType": "uint256",
          "name": "",
          "type": "uint256"
        }
      ],
      "stateMutability": "view",
      "type": "function"
    },
    {
      "inputs": [
        {
          "internalType": "address",
          "name": "owner",
          "type": "address"
        },
        {
          "internalType": "uint256",
          "name": "index",
          "type": "uint256"
        }
      ],
      "name": "tokenOfOwnerByIndex",
      "outputs": [
        {
          "internalType": "uint256",
          "name": "",
          "type": "uint256"
        }
      ],
      "stateMutability": "view",
      "type": "function"
    },
    {
      "inputs": [
        {
          "internalType": "uint256",
          "name": "tokenId",
          "type": "uint256"
        }
      ],
      "name": "tokenURI",
      "outputs": [
        {
          "internalType": "string",
          "name": "",
          "type": "string"
        }
      ],
      "stateMutability": "view",
      "type": "function"
    },
    {
      "inputs": [],
      "name": "totalSupply",
      "outputs": [
        {
          "internalType": "uint256",
          "name": "",
          "type": "uint256"
        }
      ],
      "stateMutability": "view",
      "type": "function"
    },
    {
      "inputs": [
        {
          "internalType": "address",
          "name": "from",
          "type": "address"
        },
        {
          "internalType": "address",
          "name": "to",
          "type": "address"
        },
        {
          "internalType": "uint256",
          "name": "tokenId",
          "type": "uint256"
        }
      ],
      "name": "transferFrom",
      "outputs": [],
      "stateMutability": "nonpayable",
      "type": "function"
    },
    {
      "inputs": [
        {
          "internalType": "address",
          "name": "newOwner",
          "type": "address"
        }
      ],
      "name": "transferOwnership",
      "outputs": [],
      "stateMutability": "nonpayable",
      "type": "function"
    }
  ],
  "bytecode": "0x60806040523480156200001157600080fd5b506040518060400160405280600981526020017f5370656e642044414f00000000000000000000000000000000000000000000008152506040518060400160405280600381526020017f53504e000000000000000000000000000000000000000000000000000000000081525081600090816200008f91906200094b565b508060019081620000a191906200094b565b505050620000c4620000b8620000eb60201b60201c565b620000f360201b60201c565b620000e53360405180602001604052806000815250620001b960201b60201c565b62000c7d565b600033905090565b6000600b60009054906101000a900473ffffffffffffffffffffffffffffffffffffffff16905081600b60006101000a81548173ffffffffffffffffffffffffffffffffffffffff021916908373ffffffffffffffffffffffffffffffffffffffff1602179055508173ffffffffffffffffffffffffffffffffffffffff168173ffffffffffffffffffffffffffffffffffffffff167f8be0079c531659141344cd1fd0a4f28419497f9722a3daafe3b4186f6b6457e060405160405180910390a35050565b6000620001d2600c620002b160201b62000deb1760201c565b9050620001eb600c620002bf60201b62000df91760201c565b620001fd8382620002d560201b60201c565b6200020f81836200051b60201b60201c565b600d60008473ffffffffffffffffffffffffffffffffffffffff1673ffffffffffffffffffffffffffffffffffffffff168152602001908152602001600020819080600181540180825580915050600190039060005260206000200160009091909190915055600e82908060018154018082558091505060019003906000526020600020016000909190919091509081620002ab91906200094b565b50505050565b600081600001549050919050565b6001816000016000828254019250508190555050565b600073ffffffffffffffffffffffffffffffffffffffff168273ffffffffffffffffffffffffffffffffffffffff160362000347576040517f08c379a00000000000000000000000000000000000000000000000000000000081526004016200033e9062000a93565b60405180910390fd5b62000358816200059560201b60201c565b156200039b576040517f08c379a0000000000000000000000000000000000000000000000000000000008152600401620003929062000b05565b60405180910390fd5b620003b1600083836001620005de60201b60201c565b620003c2816200059560201b60201c565b1562000405576040517f08c379a0000000000000000000000000000000000000000000000000000000008152600401620003fc9062000b05565b60405180910390fd5b6001600360008473ffffffffffffffffffffffffffffffffffffffff1673ffffffffffffffffffffffffffffffffffffffff16815260200190815260200160002060008282540192505081905550816002600083815260200190815260200160002060006101000a81548173ffffffffffffffffffffffffffffffffffffffff021916908373ffffffffffffffffffffffffffffffffffffffff160217905550808273ffffffffffffffffffffffffffffffffffffffff16600073ffffffffffffffffffffffffffffffffffffffff167fddf252ad1be2c89b69c2b068fc378daa952ba7f163c4a11628f55a4df523b3ef60405160405180910390a4620005176000838360016200068e60201b60201c565b5050565b6200052c826200059560201b60201c565b6200056e576040517f08c379a0000000000000000000000000000000000000000000000000000000008152600401620005659062000b9d565b60405180910390fd5b80600a600084815260200190815260200160002090816200059091906200094b565b505050565b60008073ffffffffffffffffffffffffffffffffffffffff16620005bf836200069460201b60201c565b73ffffffffffffffffffffffffffffffffffffffff1614159050919050565b600073ffffffffffffffffffffffffffffffffffffffff168473ffffffffffffffffffffffffffffffffffffffff161480620006465750600073ffffffffffffffffffffffffffffffffffffffff168373ffffffffffffffffffffffffffffffffffffffff16145b62000688576040517f08c379a00000000000000000000000000000000000000000000000000000000081526004016200067f9062000c5b565b60405180910390fd5b50505050565b50505050565b60006002600083815260200190815260200160002060009054906101000a900473ffffffffffffffffffffffffffffffffffffffff169050919050565b600081519050919050565b7f4e487b7100000000000000000000000000000000000000000000000000000000600052604160045260246000fd5b7f4e487b7100000000000000000000000000000000000000000000000000000000600052602260045260246000fd5b600060028204905060018216806200075357607f821691505b6020821081036200076957620007686200070b565b5b50919050565b60008190508160005260206000209050919050565b60006020601f8301049050919050565b600082821b905092915050565b600060088302620007d37fffffffffffffffffffffffffffffffffffffffffffffffffffffffffffffffff8262000794565b620007df868362000794565b95508019841693508086168417925050509392505050565b6000819050919050565b6000819050919050565b60006200082c620008266200082084620007f7565b62000801565b620007f7565b9050919050565b6000819050919050565b62000848836200080b565b62000860620008578262000833565b848454620007a1565b825550505050565b600090565b6200087762000868565b620008848184846200083d565b505050565b5b81811015620008ac57620008a06000826200086d565b6001810190506200088a565b5050565b601f821115620008fb57620008c5816200076f565b620008d08462000784565b81016020851015620008e0578190505b620008f8620008ef8562000784565b83018262000889565b50505b505050565b600082821c905092915050565b6000620009206000198460080262000900565b1980831691505092915050565b60006200093b83836200090d565b9150826002028217905092915050565b6200095682620006d1565b67ffffffffffffffff811115620009725762000971620006dc565b5b6200097e82546200073a565b6200098b828285620008b0565b600060209050601f831160018114620009c35760008415620009ae578287015190505b620009ba85826200092d565b86555062000a2a565b601f198416620009d3866200076f565b60005b82811015620009fd57848901518255600182019150602085019450602081019050620009d6565b8683101562000a1d578489015162000a19601f8916826200090d565b8355505b6001600288020188555050505b505050505050565b600082825260208201905092915050565b7f4552433732313a206d696e7420746f20746865207a65726f2061646472657373600082015250565b600062000a7b60208362000a32565b915062000a888262000a43565b602082019050919050565b6000602082019050818103600083015262000aae8162000a6c565b9050919050565b7f4552433732313a20746f6b656e20616c7265616479206d696e74656400000000600082015250565b600062000aed601c8362000a32565b915062000afa8262000ab5565b602082019050919050565b6000602082019050818103600083015262000b208162000ade565b9050919050565b7f45524337323155524953746f726167653a2055524920736574206f66206e6f6e60008201527f6578697374656e7420746f6b656e000000000000000000000000000000000000602082015250565b600062000b85602e8362000a32565b915062000b928262000b27565b604082019050919050565b6000602082019050818103600083015262000bb88162000b76565b9050919050565b7f54686973206120536f756c626f756e6420746f6b656e2e2049742063616e6e6f60008201527f74206265207472616e736665727265642e2049742063616e206f6e6c7920626560208201527f206275726e65642062792074686520746f6b656e206f776e65722e0000000000604082015250565b600062000c43605b8362000a32565b915062000c508262000bbf565b606082019050919050565b6000602082019050818103600083015262000c768162000c34565b9050919050565b61374c8062000c8d6000396000f3fe608060405234801561001057600080fd5b506004361061014d5760003560e01c806368a596c7116100c3578063b21ec0b81161007c578063b21ec0b8146103b0578063b88d4fde146103e0578063c87b56dd146103fc578063d204c45e1461042c578063e985e9c514610448578063f2fde38b146104785761014d565b806368a596c7146102ee57806370a082311461031e578063715018a61461034e5780638da5cb5b1461035857806395d89b4114610376578063a22cb465146103945761014d565b806323b872dd1161011557806323b872dd1461020a5780632f745c591461022657806342842e0e1461025657806342966c68146102725780634f6ccce71461028e5780636352211e146102be5761014d565b806301ffc9a71461015257806306fdde0314610182578063081812fc146101a0578063095ea7b3146101d057806318160ddd146101ec575b600080fd5b61016c60048036038101906101679190612310565b610494565b6040516101799190612358565b60405180910390f35b61018a6104a6565b6040516101979190612403565b60405180910390f35b6101ba60048036038101906101b5919061245b565b610538565b6040516101c791906124c9565b60405180910390f35b6101ea60048036038101906101e59190612510565b61057e565b005b6101f4610695565b604051610201919061255f565b60405180910390f35b610224600480360381019061021f919061257a565b6106a2565b005b610240600480360381019061023b9190612510565b610702565b60405161024d919061255f565b60405180910390f35b610270600480360381019061026b919061257a565b6107a7565b005b61028c6004803603810190610287919061245b565b6107c7565b005b6102a860048036038101906102a3919061245b565b610823565b6040516102b5919061255f565b60405180910390f35b6102d860048036038101906102d3919061245b565b610894565b6040516102e591906124c9565b60405180910390f35b61030860048036038101906103039190612510565b61091a565b604051610315919061255f565b60405180910390f35b610338600480360381019061033391906125cd565b61094b565b604051610345919061255f565b60405180910390f35b610356610a02565b005b610360610a16565b60405161036d91906124c9565b60405180910390f35b61037e610a40565b60405161038b9190612403565b60405180910390f35b6103ae60048036038101906103a99190612626565b610ad2565b005b6103ca60048036038101906103c5919061245b565b610ae8565b6040516103d79190612403565b60405180910390f35b6103fa60048036038101906103f5919061279b565b610b94565b005b6104166004803603810190610411919061245b565b610bf6565b6040516104239190612403565b60405180910390f35b610446600480360381019061044191906128bf565b610c08565b005b610462600480360381019061045d919061291b565b610cd4565b60405161046f9190612358565b60405180910390f35b610492600480360381019061048d91906125cd565b610d68565b005b600061049f82610e0f565b9050919050565b6060600080546104b59061298a565b80601f01602080910402602001604051908101604052809291908181526020018280546104e19061298a565b801561052e5780601f106105035761010080835404028352916020019161052e565b820191906000526020600020905b81548152906001019060200180831161051157829003601f168201915b5050505050905090565b600061054382610e89565b6004600083815260200190815260200160002060009054906101000a900473ffffffffffffffffffffffffffffffffffffffff169050919050565b600061058982610894565b90508073ffffffffffffffffffffffffffffffffffffffff168373ffffffffffffffffffffffffffffffffffffffff16036105f9576040517f08c379a00000000000000000000000000000000000000000000000000000000081526004016105f090612a2d565b60405180910390fd5b8073ffffffffffffffffffffffffffffffffffffffff16610618610ed4565b73ffffffffffffffffffffffffffffffffffffffff161480610647575061064681610641610ed4565b610cd4565b5b610686576040517f08c379a000000000000000000000000000000000000000000000000000000000815260040161067d90612abf565b60405180910390fd5b6106908383610edc565b505050565b6000600880549050905090565b6106b36106ad610ed4565b82610f95565b6106f2576040517f08c379a00000000000000000000000000000000000000000000000000000000081526004016106e990612b51565b60405180910390fd5b6106fd83838361102a565b505050565b600061070d8361094b565b821061074e576040517f08c379a000000000000000000000000000000000000000000000000000000000815260040161074590612be3565b60405180910390fd5b600660008473ffffffffffffffffffffffffffffffffffffffff1673ffffffffffffffffffffffffffffffffffffffff168152602001908152602001600020600083815260200190815260200160002054905092915050565b6107c283838360405180602001604052806000815250610b94565b505050565b6107d86107d2610ed4565b82610f95565b610817576040517f08c379a000000000000000000000000000000000000000000000000000000000815260040161080e90612b51565b60405180910390fd5b61082081611323565b50565b600061082d610695565b821061086e576040517f08c379a000000000000000000000000000000000000000000000000000000000815260040161086590612c75565b60405180910390fd5b6008828154811061088257610881612c95565b5b90600052602060002001549050919050565b6000806108a08361132f565b9050600073ffffffffffffffffffffffffffffffffffffffff168173ffffffffffffffffffffffffffffffffffffffff1603610911576040517f08c379a000000000000000000000000000000000000000000000000000000000815260040161090890612d10565b60405180910390fd5b80915050919050565b600d602052816000526040600020818154811061093657600080fd5b90600052602060002001600091509150505481565b60008073ffffffffffffffffffffffffffffffffffffffff168273ffffffffffffffffffffffffffffffffffffffff16036109bb576040517f08c379a00000000000000000000000000000000000000000000000000000000081526004016109b290612da2565b60405180910390fd5b600360008373ffffffffffffffffffffffffffffffffffffffff1673ffffffffffffffffffffffffffffffffffffffff168152602001908152602001600020549050919050565b610a0a61136c565b610a1460006113ea565b565b6000600b60009054906101000a900473ffffffffffffffffffffffffffffffffffffffff16905090565b606060018054610a4f9061298a565b80601f0160208091040260200160405190810160405280929190818152602001828054610a7b9061298a565b8015610ac85780601f10610a9d57610100808354040283529160200191610ac8565b820191906000526020600020905b815481529060010190602001808311610aab57829003601f168201915b5050505050905090565b610ae4610add610ed4565b83836114b0565b5050565b600e8181548110610af857600080fd5b906000526020600020016000915090508054610b139061298a565b80601f0160208091040260200160405190810160405280929190818152602001828054610b3f9061298a565b8015610b8c5780601f10610b6157610100808354040283529160200191610b8c565b820191906000526020600020905b815481529060010190602001808311610b6f57829003601f168201915b505050505081565b610ba5610b9f610ed4565b83610f95565b610be4576040517f08c379a0000000000000000000000000000000000000000000000000000000008152600401610bdb90612b51565b60405180910390fd5b610bf08484848461161c565b50505050565b6060610c0182611678565b9050919050565b6000610c14600c610deb565b9050610c20600c610df9565b610c2a838261178a565b610c3481836119a7565b600d60008473ffffffffffffffffffffffffffffffffffffffff1673ffffffffffffffffffffffffffffffffffffffff168152602001908152602001600020819080600181540180825580915050600190039060005260206000200160009091909190915055600e82908060018154018082558091505060019003906000526020600020016000909190919091509081610cce9190612f6e565b50505050565b6000600560008473ffffffffffffffffffffffffffffffffffffffff1673ffffffffffffffffffffffffffffffffffffffff16815260200190815260200160002060008373ffffffffffffffffffffffffffffffffffffffff1673ffffffffffffffffffffffffffffffffffffffff16815260200190815260200160002060009054906101000a900460ff16905092915050565b610d7061136c565b600073ffffffffffffffffffffffffffffffffffffffff168173ffffffffffffffffffffffffffffffffffffffff1603610ddf576040517f08c379a0000000000000000000000000000000000000000000000000000000008152600401610dd6906130b2565b60405180910390fd5b610de8816113ea565b50565b600081600001549050919050565b6001816000016000828254019250508190555050565b60007f780e9d63000000000000000000000000000000000000000000000000000000007bffffffffffffffffffffffffffffffffffffffffffffffffffffffff1916827bffffffffffffffffffffffffffffffffffffffffffffffffffffffff19161480610e825750610e8182611a14565b5b9050919050565b610e9281611af6565b610ed1576040517f08c379a0000000000000000000000000000000000000000000000000000000008152600401610ec890612d10565b60405180910390fd5b50565b600033905090565b816004600083815260200190815260200160002060006101000a81548173ffffffffffffffffffffffffffffffffffffffff021916908373ffffffffffffffffffffffffffffffffffffffff160217905550808273ffffffffffffffffffffffffffffffffffffffff16610f4f83610894565b73ffffffffffffffffffffffffffffffffffffffff167f8c5be1e5ebec7d5bd14f71427d1e84f3dd0314c0f7b2291e5b200ac8c7c3b92560405160405180910390a45050565b600080610fa183610894565b90508073ffffffffffffffffffffffffffffffffffffffff168473ffffffffffffffffffffffffffffffffffffffff161480610fe35750610fe28185610cd4565b5b8061102157508373ffffffffffffffffffffffffffffffffffffffff1661100984610538565b73ffffffffffffffffffffffffffffffffffffffff16145b91505092915050565b8273ffffffffffffffffffffffffffffffffffffffff1661104a82610894565b73ffffffffffffffffffffffffffffffffffffffff16146110a0576040517f08c379a000000000000000000000000000000000000000000000000000000000815260040161109790613144565b60405180910390fd5b600073ffffffffffffffffffffffffffffffffffffffff168273ffffffffffffffffffffffffffffffffffffffff160361110f576040517f08c379a0000000000000000000000000000000000000000000000000000000008152600401611106906131d6565b60405180910390fd5b61111c8383836001611b37565b8273ffffffffffffffffffffffffffffffffffffffff1661113c82610894565b73ffffffffffffffffffffffffffffffffffffffff1614611192576040517f08c379a000000000000000000000000000000000000000000000000000000000815260040161118990613144565b60405180910390fd5b6004600082815260200190815260200160002060006101000a81549073ffffffffffffffffffffffffffffffffffffffff02191690556001600360008573ffffffffffffffffffffffffffffffffffffffff1673ffffffffffffffffffffffffffffffffffffffff168152602001908152602001600020600082825403925050819055506001600360008473ffffffffffffffffffffffffffffffffffffffff1673ffffffffffffffffffffffffffffffffffffffff16815260200190815260200160002060008282540192505081905550816002600083815260200190815260200160002060006101000a81548173ffffffffffffffffffffffffffffffffffffffff021916908373ffffffffffffffffffffffffffffffffffffffff160217905550808273ffffffffffffffffffffffffffffffffffffffff168473ffffffffffffffffffffffffffffffffffffffff167fddf252ad1be2c89b69c2b068fc378daa952ba7f163c4a11628f55a4df523b3ef60405160405180910390a461131e8383836001611be3565b505050565b61132c81611be9565b50565b60006002600083815260200190815260200160002060009054906101000a900473ffffffffffffffffffffffffffffffffffffffff169050919050565b611374610ed4565b73ffffffffffffffffffffffffffffffffffffffff16611392610a16565b73ffffffffffffffffffffffffffffffffffffffff16146113e8576040517f08c379a00000000000000000000000000000000000000000000000000000000081526004016113df90613242565b60405180910390fd5b565b6000600b60009054906101000a900473ffffffffffffffffffffffffffffffffffffffff16905081600b60006101000a81548173ffffffffffffffffffffffffffffffffffffffff021916908373ffffffffffffffffffffffffffffffffffffffff1602179055508173ffffffffffffffffffffffffffffffffffffffff168173ffffffffffffffffffffffffffffffffffffffff167f8be0079c531659141344cd1fd0a4f28419497f9722a3daafe3b4186f6b6457e060405160405180910390a35050565b8173ffffffffffffffffffffffffffffffffffffffff168373ffffffffffffffffffffffffffffffffffffffff160361151e576040517f08c379a0000000000000000000000000000000000000000000000000000000008152600401611515906132ae565b60405180910390fd5b80600560008573ffffffffffffffffffffffffffffffffffffffff1673ffffffffffffffffffffffffffffffffffffffff16815260200190815260200160002060008473ffffffffffffffffffffffffffffffffffffffff1673ffffffffffffffffffffffffffffffffffffffff16815260200190815260200160002060006101000a81548160ff0219169083151502179055508173ffffffffffffffffffffffffffffffffffffffff168373ffffffffffffffffffffffffffffffffffffffff167f17307eab39ab6107e8899845ad3d59bd9653f200f220920489ca2b5937696c318360405161160f9190612358565b60405180910390a3505050565b61162784848461102a565b61163384848484611c3c565b611672576040517f08c379a000000000000000000000000000000000000000000000000000000000815260040161166990613340565b60405180910390fd5b50505050565b606061168382610e89565b6000600a600084815260200190815260200160002080546116a39061298a565b80601f01602080910402602001604051908101604052809291908181526020018280546116cf9061298a565b801561171c5780601f106116f15761010080835404028352916020019161171c565b820191906000526020600020905b8154815290600101906020018083116116ff57829003601f168201915b50505050509050600061172d611dc3565b90506000815103611742578192505050611785565b60008251111561177757808260405160200161175f92919061339c565b60405160208183030381529060405292505050611785565b61178084611de3565b925050505b919050565b600073ffffffffffffffffffffffffffffffffffffffff168273ffffffffffffffffffffffffffffffffffffffff16036117f9576040517f08c379a00000000000000000000000000000000000000000000000000000000081526004016117f09061340c565b60405180910390fd5b61180281611af6565b15611842576040517f08c379a000000000000000000000000000000000000000000000000000000000815260040161183990613478565b60405180910390fd5b611850600083836001611b37565b61185981611af6565b15611899576040517f08c379a000000000000000000000000000000000000000000000000000000000815260040161189090613478565b60405180910390fd5b6001600360008473ffffffffffffffffffffffffffffffffffffffff1673ffffffffffffffffffffffffffffffffffffffff16815260200190815260200160002060008282540192505081905550816002600083815260200190815260200160002060006101000a81548173ffffffffffffffffffffffffffffffffffffffff021916908373ffffffffffffffffffffffffffffffffffffffff160217905550808273ffffffffffffffffffffffffffffffffffffffff16600073ffffffffffffffffffffffffffffffffffffffff167fddf252ad1be2c89b69c2b068fc378daa952ba7f163c4a11628f55a4df523b3ef60405160405180910390a46119a3600083836001611be3565b5050565b6119b082611af6565b6119ef576040517f08c379a00000000000000000000000000000000000000000000000000000000081526004016119e69061350a565b60405180910390fd5b80600a60008481526020019081526020016000209081611a0f9190612f6e565b505050565b60007f80ac58cd000000000000000000000000000000000000000000000000000000007bffffffffffffffffffffffffffffffffffffffffffffffffffffffff1916827bffffffffffffffffffffffffffffffffffffffffffffffffffffffff19161480611adf57507f5b5e139f000000000000000000000000000000000000000000000000000000007bffffffffffffffffffffffffffffffffffffffffffffffffffffffff1916827bffffffffffffffffffffffffffffffffffffffffffffffffffffffff1916145b80611aef5750611aee82611e4b565b5b9050919050565b60008073ffffffffffffffffffffffffffffffffffffffff16611b188361132f565b73ffffffffffffffffffffffffffffffffffffffff1614159050919050565b600073ffffffffffffffffffffffffffffffffffffffff168473ffffffffffffffffffffffffffffffffffffffff161480611b9e5750600073ffffffffffffffffffffffffffffffffffffffff168373ffffffffffffffffffffffffffffffffffffffff16145b611bdd576040517f08c379a0000000000000000000000000000000000000000000000000000000008152600401611bd4906135c2565b60405180910390fd5b50505050565b50505050565b611bf281611eb5565b6000600a60008381526020019081526020016000208054611c129061298a565b905014611c3957600a60008281526020019081526020016000206000611c389190612247565b5b50565b6000611c5d8473ffffffffffffffffffffffffffffffffffffffff16612003565b15611db6578373ffffffffffffffffffffffffffffffffffffffff1663150b7a02611c86610ed4565b8786866040518563ffffffff1660e01b8152600401611ca89493929190613637565b6020604051808303816000875af1925050508015611ce457506040513d601f19601f82011682018060405250810190611ce19190613698565b60015b611d66573d8060008114611d14576040519150601f19603f3d011682016040523d82523d6000602084013e611d19565b606091505b506000815103611d5e576040517f08c379a0000000000000000000000000000000000000000000000000000000008152600401611d5590613340565b60405180910390fd5b805181602001fd5b63150b7a0260e01b7bffffffffffffffffffffffffffffffffffffffffffffffffffffffff1916817bffffffffffffffffffffffffffffffffffffffffffffffffffffffff191614915050611dbb565b600190505b949350505050565b60606040518060600160405280602281526020016136f560229139905090565b6060611dee82610e89565b6000611df8611dc3565b90506000815111611e185760405180602001604052806000815250611e43565b80611e2284612026565b604051602001611e3392919061339c565b6040516020818303038152906040525b915050919050565b60007f01ffc9a7000000000000000000000000000000000000000000000000000000007bffffffffffffffffffffffffffffffffffffffffffffffffffffffff1916827bffffffffffffffffffffffffffffffffffffffffffffffffffffffff1916149050919050565b6000611ec082610894565b9050611ed0816000846001611b37565b611ed982610894565b90506004600083815260200190815260200160002060006101000a81549073ffffffffffffffffffffffffffffffffffffffff02191690556001600360008373ffffffffffffffffffffffffffffffffffffffff1673ffffffffffffffffffffffffffffffffffffffff168152602001908152602001600020600082825403925050819055506002600083815260200190815260200160002060006101000a81549073ffffffffffffffffffffffffffffffffffffffff021916905581600073ffffffffffffffffffffffffffffffffffffffff168273ffffffffffffffffffffffffffffffffffffffff167fddf252ad1be2c89b69c2b068fc378daa952ba7f163c4a11628f55a4df523b3ef60405160405180910390a4611fff816000846001611be3565b5050565b6000808273ffffffffffffffffffffffffffffffffffffffff163b119050919050565b606060006001612035846120f4565b01905060008167ffffffffffffffff81111561205457612053612670565b5b6040519080825280601f01601f1916602001820160405280156120865781602001600182028036833780820191505090505b509050600082602001820190505b6001156120e9578080600190039150507f3031323334353637383961626364656600000000000000000000000000000000600a86061a8153600a85816120dd576120dc6136c5565b5b04945060008503612094575b819350505050919050565b600080600090507a184f03e93ff9f4daa797ed6e38ed64bf6a1f0100000000000000008310612152577a184f03e93ff9f4daa797ed6e38ed64bf6a1f0100000000000000008381612148576121476136c5565b5b0492506040810190505b6d04ee2d6d415b85acef8100000000831061218f576d04ee2d6d415b85acef81000000008381612185576121846136c5565b5b0492506020810190505b662386f26fc1000083106121be57662386f26fc1000083816121b4576121b36136c5565b5b0492506010810190505b6305f5e10083106121e7576305f5e10083816121dd576121dc6136c5565b5b0492506008810190505b612710831061220c576127108381612202576122016136c5565b5b0492506004810190505b6064831061222f5760648381612225576122246136c5565b5b0492506002810190505b600a831061223e576001810190505b80915050919050565b5080546122539061298a565b6000825580601f106122655750612284565b601f0160209004906000526020600020908101906122839190612287565b5b50565b5b808211156122a0576000816000905550600101612288565b5090565b6000604051905090565b600080fd5b600080fd5b60007fffffffff0000000000000000000000000000000000000000000000000000000082169050919050565b6122ed816122b8565b81146122f857600080fd5b50565b60008135905061230a816122e4565b92915050565b600060208284031215612326576123256122ae565b5b6000612334848285016122fb565b91505092915050565b60008115159050919050565b6123528161233d565b82525050565b600060208201905061236d6000830184612349565b92915050565b600081519050919050565b600082825260208201905092915050565b60005b838110156123ad578082015181840152602081019050612392565b60008484015250505050565b6000601f19601f8301169050919050565b60006123d582612373565b6123df818561237e565b93506123ef81856020860161238f565b6123f8816123b9565b840191505092915050565b6000602082019050818103600083015261241d81846123ca565b905092915050565b6000819050919050565b61243881612425565b811461244357600080fd5b50565b6000813590506124558161242f565b92915050565b600060208284031215612471576124706122ae565b5b600061247f84828501612446565b91505092915050565b600073ffffffffffffffffffffffffffffffffffffffff82169050919050565b60006124b382612488565b9050919050565b6124c3816124a8565b82525050565b60006020820190506124de60008301846124ba565b92915050565b6124ed816124a8565b81146124f857600080fd5b50565b60008135905061250a816124e4565b92915050565b60008060408385031215612527576125266122ae565b5b6000612535858286016124fb565b925050602061254685828601612446565b9150509250929050565b61255981612425565b82525050565b60006020820190506125746000830184612550565b92915050565b600080600060608486031215612593576125926122ae565b5b60006125a1868287016124fb565b93505060206125b2868287016124fb565b92505060406125c386828701612446565b9150509250925092565b6000602082840312156125e3576125e26122ae565b5b60006125f1848285016124fb565b91505092915050565b6126038161233d565b811461260e57600080fd5b50565b600081359050612620816125fa565b92915050565b6000806040838503121561263d5761263c6122ae565b5b600061264b858286016124fb565b925050602061265c85828601612611565b9150509250929050565b600080fd5b600080fd5b7f4e487b7100000000000000000000000000000000000000000000000000000000600052604160045260246000fd5b6126a8826123b9565b810181811067ffffffffffffffff821117156126c7576126c6612670565b5b80604052505050565b60006126da6122a4565b90506126e6828261269f565b919050565b600067ffffffffffffffff82111561270657612705612670565b5b61270f826123b9565b9050602081019050919050565b82818337600083830152505050565b600061273e612739846126eb565b6126d0565b90508281526020810184848401111561275a5761275961266b565b5b61276584828561271c565b509392505050565b600082601f83011261278257612781612666565b5b813561279284826020860161272b565b91505092915050565b600080600080608085870312156127b5576127b46122ae565b5b60006127c3878288016124fb565b94505060206127d4878288016124fb565b93505060406127e587828801612446565b925050606085013567ffffffffffffffff811115612806576128056122b3565b5b6128128782880161276d565b91505092959194509250565b600067ffffffffffffffff82111561283957612838612670565b5b612842826123b9565b9050602081019050919050565b600061286261285d8461281e565b6126d0565b90508281526020810184848401111561287e5761287d61266b565b5b61288984828561271c565b509392505050565b600082601f8301126128a6576128a5612666565b5b81356128b684826020860161284f565b91505092915050565b600080604083850312156128d6576128d56122ae565b5b60006128e4858286016124fb565b925050602083013567ffffffffffffffff811115612905576129046122b3565b5b61291185828601612891565b9150509250929050565b60008060408385031215612932576129316122ae565b5b6000612940858286016124fb565b9250506020612951858286016124fb565b9150509250929050565b7f4e487b7100000000000000000000000000000000000000000000000000000000600052602260045260246000fd5b600060028204905060018216806129a257607f821691505b6020821081036129b5576129b461295b565b5b50919050565b7f4552433732313a20617070726f76616c20746f2063757272656e74206f776e6560008201527f7200000000000000000000000000000000000000000000000000000000000000602082015250565b6000612a1760218361237e565b9150612a22826129bb565b604082019050919050565b60006020820190508181036000830152612a4681612a0a565b9050919050565b7f4552433732313a20617070726f76652063616c6c6572206973206e6f7420746f60008201527f6b656e206f776e6572206f7220617070726f76656420666f7220616c6c000000602082015250565b6000612aa9603d8361237e565b9150612ab482612a4d565b604082019050919050565b60006020820190508181036000830152612ad881612a9c565b9050919050565b7f4552433732313a2063616c6c6572206973206e6f7420746f6b656e206f776e6560008201527f72206f7220617070726f76656400000000000000000000000000000000000000602082015250565b6000612b3b602d8361237e565b9150612b4682612adf565b604082019050919050565b60006020820190508181036000830152612b6a81612b2e565b9050919050565b7f455243373231456e756d657261626c653a206f776e657220696e646578206f7560008201527f74206f6620626f756e6473000000000000000000000000000000000000000000602082015250565b6000612bcd602b8361237e565b9150612bd882612b71565b604082019050919050565b60006020820190508181036000830152612bfc81612bc0565b9050919050565b7f455243373231456e756d657261626c653a20676c6f62616c20696e646578206f60008201527f7574206f6620626f756e64730000000000000000000000000000000000000000602082015250565b6000612c5f602c8361237e565b9150612c6a82612c03565b604082019050919050565b60006020820190508181036000830152612c8e81612c52565b9050919050565b7f4e487b7100000000000000000000000000000000000000000000000000000000600052603260045260246000fd5b7f4552433732313a20696e76616c696420746f6b656e2049440000000000000000600082015250565b6000612cfa60188361237e565b9150612d0582612cc4565b602082019050919050565b60006020820190508181036000830152612d2981612ced565b9050919050565b7f4552433732313a2061646472657373207a65726f206973206e6f74206120766160008201527f6c6964206f776e65720000000000000000000000000000000000000000000000602082015250565b6000612d8c60298361237e565b9150612d9782612d30565b604082019050919050565b60006020820190508181036000830152612dbb81612d7f565b9050919050565b60008190508160005260206000209050919050565b60006020601f8301049050919050565b600082821b905092915050565b600060088302612e247fffffffffffffffffffffffffffffffffffffffffffffffffffffffffffffffff82612de7565b612e2e8683612de7565b95508019841693508086168417925050509392505050565b6000819050919050565b6000612e6b612e66612e6184612425565b612e46565b612425565b9050919050565b6000819050919050565b612e8583612e50565b612e99612e9182612e72565b848454612df4565b825550505050565b600090565b612eae612ea1565b612eb9818484612e7c565b505050565b5b81811015612edd57612ed2600082612ea6565b600181019050612ebf565b5050565b601f821115612f2257612ef381612dc2565b612efc84612dd7565b81016020851015612f0b578190505b612f1f612f1785612dd7565b830182612ebe565b50505b505050565b600082821c905092915050565b6000612f4560001984600802612f27565b1980831691505092915050565b6000612f5e8383612f34565b9150826002028217905092915050565b612f7782612373565b67ffffffffffffffff811115612f9057612f8f612670565b5b612f9a825461298a565b612fa5828285612ee1565b600060209050601f831160018114612fd85760008415612fc6578287015190505b612fd08582612f52565b865550613038565b601f198416612fe686612dc2565b60005b8281101561300e57848901518255600182019150602085019450602081019050612fe9565b8683101561302b5784890151613027601f891682612f34565b8355505b6001600288020188555050505b505050505050565b7f4f776e61626c653a206e6577206f776e657220697320746865207a65726f206160008201527f6464726573730000000000000000000000000000000000000000000000000000602082015250565b600061309c60268361237e565b91506130a782613040565b604082019050919050565b600060208201905081810360008301526130cb8161308f565b9050919050565b7f4552433732313a207472616e736665722066726f6d20696e636f72726563742060008201527f6f776e6572000000000000000000000000000000000000000000000000000000602082015250565b600061312e60258361237e565b9150613139826130d2565b604082019050919050565b6000602082019050818103600083015261315d81613121565b9050919050565b7f4552433732313a207472616e7366657220746f20746865207a65726f2061646460008201527f7265737300000000000000000000000000000000000000000000000000000000602082015250565b60006131c060248361237e565b91506131cb82613164565b604082019050919050565b600060208201905081810360008301526131ef816131b3565b9050919050565b7f4f776e61626c653a2063616c6c6572206973206e6f7420746865206f776e6572600082015250565b600061322c60208361237e565b9150613237826131f6565b602082019050919050565b6000602082019050818103600083015261325b8161321f565b9050919050565b7f4552433732313a20617070726f766520746f2063616c6c657200000000000000600082015250565b600061329860198361237e565b91506132a382613262565b602082019050919050565b600060208201905081810360008301526132c78161328b565b9050919050565b7f4552433732313a207472616e7366657220746f206e6f6e20455243373231526560008201527f63656976657220696d706c656d656e7465720000000000000000000000000000602082015250565b600061332a60328361237e565b9150613335826132ce565b604082019050919050565b600060208201905081810360008301526133598161331d565b9050919050565b600081905092915050565b600061337682612373565b6133808185613360565b935061339081856020860161238f565b80840191505092915050565b60006133a8828561336b565b91506133b4828461336b565b91508190509392505050565b7f4552433732313a206d696e7420746f20746865207a65726f2061646472657373600082015250565b60006133f660208361237e565b9150613401826133c0565b602082019050919050565b60006020820190508181036000830152613425816133e9565b9050919050565b7f4552433732313a20746f6b656e20616c7265616479206d696e74656400000000600082015250565b6000613462601c8361237e565b915061346d8261342c565b602082019050919050565b6000602082019050818103600083015261349181613455565b9050919050565b7f45524337323155524953746f726167653a2055524920736574206f66206e6f6e60008201527f6578697374656e7420746f6b656e000000000000000000000000000000000000602082015250565b60006134f4602e8361237e565b91506134ff82613498565b604082019050919050565b60006020820190508181036000830152613523816134e7565b9050919050565b7f54686973206120536f756c626f756e6420746f6b656e2e2049742063616e6e6f60008201527f74206265207472616e736665727265642e2049742063616e206f6e6c7920626560208201527f206275726e65642062792074686520746f6b656e206f776e65722e0000000000604082015250565b60006135ac605b8361237e565b91506135b78261352a565b606082019050919050565b600060208201905081810360008301526135db8161359f565b9050919050565b600081519050919050565b600082825260208201905092915050565b6000613609826135e2565b61361381856135ed565b935061362381856020860161238f565b61362c816123b9565b840191505092915050565b600060808201905061364c60008301876124ba565b61365960208301866124ba565b6136666040830185612550565b818103606083015261367881846135fe565b905095945050505050565b600081519050613692816122e4565b92915050565b6000602082840312156136ae576136ad6122ae565b5b60006136bc84828501613683565b91505092915050565b7f4e487b7100000000000000000000000000000000000000000000000000000000600052601260045260246000fdfe68747470733a2f2f636364616f2e6d7970696e6174612e636c6f75642f697066732fa26469706673582212204b6c7dd44ae0637e9c3c98bcf4dfc8469ad8e71f045f40fafb602c9cfc25f58a64736f6c63430008110033",
  "linkReferences": {},
  "deployedLinkReferences": {}
}