{
  "_format": "hh-sol-artifact-1",
  "contractName": "SpendSBT",
  "sourceName": "contracts/SpendSBT.sol",
  "abi": [
    {
      "inputs": [],
      "stateMutability": "nonpayable",
      "type": "constructor"
    },
    {
      "anonymous": false,
      "inputs": [
        {
          "indexed": true,
          "internalType": "address",
          "name": "owner",
          "type": "address"
        },
        {
          "indexed": true,
          "internalType": "address",
          "name": "approved",
          "type": "address"
        },
        {
          "indexed": true,
          "internalType": "uint256",
          "name": "tokenId",
          "type": "uint256"
        }
      ],
      "name": "Approval",
      "type": "event"
    },
    {
      "anonymous": false,
      "inputs": [
        {
          "indexed": true,
          "internalType": "address",
          "name": "owner",
          "type": "address"
        },
        {
          "indexed": true,
          "internalType": "address",
          "name": "operator",
          "type": "address"
        },
        {
          "indexed": false,
          "internalType": "bool",
          "name": "approved",
          "type": "bool"
        }
      ],
      "name": "ApprovalForAll",
      "type": "event"
    },
    {
      "anonymous": false,
      "inputs": [
        {
          "indexed": true,
          "internalType": "address",
          "name": "previousOwner",
          "type": "address"
        },
        {
          "indexed": true,
          "internalType": "address",
          "name": "newOwner",
          "type": "address"
        }
      ],
      "name": "OwnershipTransferred",
      "type": "event"
    },
    {
      "anonymous": false,
      "inputs": [
        {
          "indexed": true,
          "internalType": "address",
          "name": "from",
          "type": "address"
        },
        {
          "indexed": true,
          "internalType": "address",
          "name": "to",
          "type": "address"
        },
        {
          "indexed": true,
          "internalType": "uint256",
          "name": "tokenId",
          "type": "uint256"
        }
      ],
      "name": "Transfer",
      "type": "event"
    },
    {
      "inputs": [
        {
          "internalType": "address",
          "name": "to",
          "type": "address"
        },
        {
          "internalType": "uint256",
          "name": "tokenId",
          "type": "uint256"
        }
      ],
      "name": "approve",
      "outputs": [],
      "stateMutability": "nonpayable",
      "type": "function"
    },
    {
      "inputs": [
        {
          "internalType": "address",
          "name": "owner",
          "type": "address"
        }
      ],
      "name": "balanceOf",
      "outputs": [
        {
          "internalType": "uint256",
          "name": "",
          "type": "uint256"
        }
      ],
      "stateMutability": "view",
      "type": "function"
    },
    {
      "inputs": [
        {
          "internalType": "uint256",
          "name": "tokenId",
          "type": "uint256"
        }
      ],
      "name": "burn",
      "outputs": [],
      "stateMutability": "nonpayable",
      "type": "function"
    },
    {
      "inputs": [
        {
          "internalType": "uint256",
          "name": "tokenId",
          "type": "uint256"
        }
      ],
      "name": "getApproved",
      "outputs": [
        {
          "internalType": "address",
          "name": "",
          "type": "address"
        }
      ],
      "stateMutability": "view",
      "type": "function"
    },
    {
      "inputs": [
        {
          "internalType": "address",
          "name": "owner",
          "type": "address"
        },
        {
          "internalType": "address",
          "name": "operator",
          "type": "address"
        }
      ],
      "name": "isApprovedForAll",
      "outputs": [
        {
          "internalType": "bool",
          "name": "",
          "type": "bool"
        }
      ],
      "stateMutability": "view",
      "type": "function"
    },
    {
      "inputs": [],
      "name": "name",
      "outputs": [
        {
          "internalType": "string",
          "name": "",
          "type": "string"
        }
      ],
      "stateMutability": "view",
      "type": "function"
    },
    {
      "inputs": [],
      "name": "owner",
      "outputs": [
        {
          "internalType": "address",
          "name": "",
          "type": "address"
        }
      ],
      "stateMutability": "view",
      "type": "function"
    },
    {
      "inputs": [
        {
          "internalType": "uint256",
          "name": "tokenId",
          "type": "uint256"
        }
      ],
      "name": "ownerOf",
      "outputs": [
        {
          "internalType": "address",
          "name": "",
          "type": "address"
        }
      ],
      "stateMutability": "view",
      "type": "function"
    },
    {
      "inputs": [
        {
          "internalType": "address",
          "name": "",
          "type": "address"
        },
        {
          "internalType": "uint256",
          "name": "",
          "type": "uint256"
        }
      ],
      "name": "ownerToTokenIds",
      "outputs": [
        {
          "internalType": "uint256",
          "name": "",
          "type": "uint256"
        }
      ],
      "stateMutability": "view",
      "type": "function"
    },
    {
      "inputs": [],
      "name": "renounceOwnership",
      "outputs": [],
      "stateMutability": "nonpayable",
      "type": "function"
    },
    {
      "inputs": [
        {
          "internalType": "address",
          "name": "to",
          "type": "address"
        },
        {
          "internalType": "string",
          "name": "uri",
          "type": "string"
        }
      ],
      "name": "safeMint",
      "outputs": [],
      "stateMutability": "nonpayable",
      "type": "function"
    },
    {
      "inputs": [
        {
          "internalType": "address",
          "name": "from",
          "type": "address"
        },
        {
          "internalType": "address",
          "name": "to",
          "type": "address"
        },
        {
          "internalType": "uint256",
          "name": "tokenId",
          "type": "uint256"
        }
      ],
      "name": "safeTransferFrom",
      "outputs": [],
      "stateMutability": "nonpayable",
      "type": "function"
    },
    {
      "inputs": [
        {
          "internalType": "address",
          "name": "from",
          "type": "address"
        },
        {
          "internalType": "address",
          "name": "to",
          "type": "address"
        },
        {
          "internalType": "uint256",
          "name": "tokenId",
          "type": "uint256"
        },
        {
          "internalType": "bytes",
          "name": "data",
          "type": "bytes"
        }
      ],
      "name": "safeTransferFrom",
      "outputs": [],
      "stateMutability": "nonpayable",
      "type": "function"
    },
    {
      "inputs": [
        {
          "internalType": "address",
          "name": "operator",
          "type": "address"
        },
        {
          "internalType": "bool",
          "name": "approved",
          "type": "bool"
        }
      ],
      "name": "setApprovalForAll",
      "outputs": [],
      "stateMutability": "nonpayable",
      "type": "function"
    },
    {
      "inputs": [
        {
          "internalType": "bytes4",
          "name": "interfaceId",
          "type": "bytes4"
        }
      ],
      "name": "supportsInterface",
      "outputs": [
        {
          "internalType": "bool",
          "name": "",
          "type": "bool"
        }
      ],
      "stateMutability": "view",
      "type": "function"
    },
    {
      "inputs": [],
      "name": "symbol",
      "outputs": [
        {
          "internalType": "string",
          "name": "",
          "type": "string"
        }
      ],
      "stateMutability": "view",
      "type": "function"
    },
    {
      "inputs": [
        {
          "internalType": "uint256",
          "name": "index",
          "type": "uint256"
        }
      ],
      "name": "tokenByIndex",
      "outputs": [
        {
          "internalType": "uint256",
          "name": "",
          "type": "uint256"
        }
      ],
      "stateMutability": "view",
      "type": "function"
    },
    {
      "inputs": [
        {
          "internalType": "address",
          "name": "owner",
          "type": "address"
        },
        {
          "internalType": "uint256",
          "name": "index",
          "type": "uint256"
        }
      ],
      "name": "tokenOfOwnerByIndex",
      "outputs": [
        {
          "internalType": "uint256",
          "name": "",
          "type": "uint256"
        }
      ],
      "stateMutability": "view",
      "type": "function"
    },
    {
      "inputs": [
        {
          "internalType": "uint256",
          "name": "tokenId",
          "type": "uint256"
        }
      ],
      "name": "tokenURI",
      "outputs": [
        {
          "internalType": "string",
          "name": "",
          "type": "string"
        }
      ],
      "stateMutability": "view",
      "type": "function"
    },
    {
      "inputs": [],
      "name": "totalSupply",
      "outputs": [
        {
          "internalType": "uint256",
          "name": "",
          "type": "uint256"
        }
      ],
      "stateMutability": "view",
      "type": "function"
    },
    {
      "inputs": [
        {
          "internalType": "address",
          "name": "from",
          "type": "address"
        },
        {
          "internalType": "address",
          "name": "to",
          "type": "address"
        },
        {
          "internalType": "uint256",
          "name": "tokenId",
          "type": "uint256"
        }
      ],
      "name": "transferFrom",
      "outputs": [],
      "stateMutability": "nonpayable",
      "type": "function"
    },
    {
      "inputs": [
        {
          "internalType": "address",
          "name": "newOwner",
          "type": "address"
        }
      ],
      "name": "transferOwnership",
      "outputs": [],
      "stateMutability": "nonpayable",
      "type": "function"
    }
  ],
  "bytecode": "0x60806040523480156200001157600080fd5b506040518060400160405280600981526020017f5370656e642044414f00000000000000000000000000000000000000000000008152506040518060400160405280600381526020017f53504e000000000000000000000000000000000000000000000000000000000081525081600090816200008f919062000412565b508060019081620000a1919062000412565b505050620000c4620000b8620000ca60201b60201c565b620000d260201b60201c565b620004f9565b600033905090565b6000600b60009054906101000a900473ffffffffffffffffffffffffffffffffffffffff16905081600b60006101000a81548173ffffffffffffffffffffffffffffffffffffffff021916908373ffffffffffffffffffffffffffffffffffffffff1602179055508173ffffffffffffffffffffffffffffffffffffffff168173ffffffffffffffffffffffffffffffffffffffff167f8be0079c531659141344cd1fd0a4f28419497f9722a3daafe3b4186f6b6457e060405160405180910390a35050565b600081519050919050565b7f4e487b7100000000000000000000000000000000000000000000000000000000600052604160045260246000fd5b7f4e487b7100000000000000000000000000000000000000000000000000000000600052602260045260246000fd5b600060028204905060018216806200021a57607f821691505b60208210810362000230576200022f620001d2565b5b50919050565b60008190508160005260206000209050919050565b60006020601f8301049050919050565b600082821b905092915050565b6000600883026200029a7fffffffffffffffffffffffffffffffffffffffffffffffffffffffffffffffff826200025b565b620002a686836200025b565b95508019841693508086168417925050509392505050565b6000819050919050565b6000819050919050565b6000620002f3620002ed620002e784620002be565b620002c8565b620002be565b9050919050565b6000819050919050565b6200030f83620002d2565b620003276200031e82620002fa565b84845462000268565b825550505050565b600090565b6200033e6200032f565b6200034b81848462000304565b505050565b5b8181101562000373576200036760008262000334565b60018101905062000351565b5050565b601f821115620003c2576200038c8162000236565b62000397846200024b565b81016020851015620003a7578190505b620003bf620003b6856200024b565b83018262000350565b50505b505050565b600082821c905092915050565b6000620003e760001984600802620003c7565b1980831691505092915050565b6000620004028383620003d4565b9150826002028217905092915050565b6200041d8262000198565b67ffffffffffffffff811115620004395762000438620001a3565b5b62000445825462000201565b6200045282828562000377565b600060209050601f8311600181146200048a576000841562000475578287015190505b620004818582620003f4565b865550620004f1565b601f1984166200049a8662000236565b60005b82811015620004c4578489015182556001820191506020850194506020810190506200049d565b86831015620004e45784890151620004e0601f891682620003d4565b8355505b6001600288020188555050505b505050505050565b61363880620005096000396000f3fe608060405234801561001057600080fd5b50600436106101425760003560e01c806368a596c7116100b8578063a22cb4651161007c578063a22cb46514610389578063b88d4fde146103a5578063c87b56dd146103c1578063d204c45e146103f1578063e985e9c51461040d578063f2fde38b1461043d57610142565b806368a596c7146102e357806370a0823114610313578063715018a6146103435780638da5cb5b1461034d57806395d89b411461036b57610142565b806323b872dd1161010a57806323b872dd146101ff5780632f745c591461021b57806342842e0e1461024b57806342966c68146102675780634f6ccce7146102835780636352211e146102b357610142565b806301ffc9a71461014757806306fdde0314610177578063081812fc14610195578063095ea7b3146101c557806318160ddd146101e1575b600080fd5b610161600480360381019061015c91906121fc565b610459565b60405161016e9190612244565b60405180910390f35b61017f61046b565b60405161018c91906122ef565b60405180910390f35b6101af60048036038101906101aa9190612347565b6104fd565b6040516101bc91906123b5565b60405180910390f35b6101df60048036038101906101da91906123fc565b610543565b005b6101e961065a565b6040516101f6919061244b565b60405180910390f35b61021960048036038101906102149190612466565b610667565b005b610235600480360381019061023091906123fc565b6106c7565b604051610242919061244b565b60405180910390f35b61026560048036038101906102609190612466565b61076c565b005b610281600480360381019061027c9190612347565b61078c565b005b61029d60048036038101906102989190612347565b6107e8565b6040516102aa919061244b565b60405180910390f35b6102cd60048036038101906102c89190612347565b610859565b6040516102da91906123b5565b60405180910390f35b6102fd60048036038101906102f891906123fc565b6108df565b60405161030a919061244b565b60405180910390f35b61032d600480360381019061032891906124b9565b610910565b60405161033a919061244b565b60405180910390f35b61034b6109c7565b005b6103556109db565b60405161036291906123b5565b60405180910390f35b610373610a05565b60405161038091906122ef565b60405180910390f35b6103a3600480360381019061039e9190612512565b610a97565b005b6103bf60048036038101906103ba9190612687565b610aad565b005b6103db60048036038101906103d69190612347565b610b0f565b6040516103e891906122ef565b60405180910390f35b61040b600480360381019061040691906127ab565b610b21565b005b61042760048036038101906104229190612807565b610bc0565b6040516104349190612244565b60405180910390f35b610457600480360381019061045291906124b9565b610c54565b005b600061046482610cd7565b9050919050565b60606000805461047a90612876565b80601f01602080910402602001604051908101604052809291908181526020018280546104a690612876565b80156104f35780601f106104c8576101008083540402835291602001916104f3565b820191906000526020600020905b8154815290600101906020018083116104d657829003601f168201915b5050505050905090565b600061050882610d51565b6004600083815260200190815260200160002060009054906101000a900473ffffffffffffffffffffffffffffffffffffffff169050919050565b600061054e82610859565b90508073ffffffffffffffffffffffffffffffffffffffff168373ffffffffffffffffffffffffffffffffffffffff16036105be576040517f08c379a00000000000000000000000000000000000000000000000000000000081526004016105b590612919565b60405180910390fd5b8073ffffffffffffffffffffffffffffffffffffffff166105dd610d9c565b73ffffffffffffffffffffffffffffffffffffffff16148061060c575061060b81610606610d9c565b610bc0565b5b61064b576040517f08c379a0000000000000000000000000000000000000000000000000000000008152600401610642906129ab565b60405180910390fd5b6106558383610da4565b505050565b6000600880549050905090565b610678610672610d9c565b82610e5d565b6106b7576040517f08c379a00000000000000000000000000000000000000000000000000000000081526004016106ae90612a3d565b60405180910390fd5b6106c2838383610ef2565b505050565b60006106d283610910565b8210610713576040517f08c379a000000000000000000000000000000000000000000000000000000000815260040161070a90612acf565b60405180910390fd5b600660008473ffffffffffffffffffffffffffffffffffffffff1673ffffffffffffffffffffffffffffffffffffffff168152602001908152602001600020600083815260200190815260200160002054905092915050565b61078783838360405180602001604052806000815250610aad565b505050565b61079d610797610d9c565b82610e5d565b6107dc576040517f08c379a00000000000000000000000000000000000000000000000000000000081526004016107d390612a3d565b60405180910390fd5b6107e5816111eb565b50565b60006107f261065a565b8210610833576040517f08c379a000000000000000000000000000000000000000000000000000000000815260040161082a90612b61565b60405180910390fd5b6008828154811061084757610846612b81565b5b90600052602060002001549050919050565b600080610865836111f7565b9050600073ffffffffffffffffffffffffffffffffffffffff168173ffffffffffffffffffffffffffffffffffffffff16036108d6576040517f08c379a00000000000000000000000000000000000000000000000000000000081526004016108cd90612bfc565b60405180910390fd5b80915050919050565b600d60205281600052604060002081815481106108fb57600080fd5b90600052602060002001600091509150505481565b60008073ffffffffffffffffffffffffffffffffffffffff168273ffffffffffffffffffffffffffffffffffffffff1603610980576040517f08c379a000000000000000000000000000000000000000000000000000000000815260040161097790612c8e565b60405180910390fd5b600360008373ffffffffffffffffffffffffffffffffffffffff1673ffffffffffffffffffffffffffffffffffffffff168152602001908152602001600020549050919050565b6109cf611234565b6109d960006112b2565b565b6000600b60009054906101000a900473ffffffffffffffffffffffffffffffffffffffff16905090565b606060018054610a1490612876565b80601f0160208091040260200160405190810160405280929190818152602001828054610a4090612876565b8015610a8d5780601f10610a6257610100808354040283529160200191610a8d565b820191906000526020600020905b815481529060010190602001808311610a7057829003601f168201915b5050505050905090565b610aa9610aa2610d9c565b8383611378565b5050565b610abe610ab8610d9c565b83610e5d565b610afd576040517f08c379a0000000000000000000000000000000000000000000000000000000008152600401610af490612a3d565b60405180910390fd5b610b09848484846114e4565b50505050565b6060610b1a82611540565b9050919050565b610b29611234565b6000610b35600c611652565b9050610b41600c611660565b610b4b8382611676565b610b558183611893565b600d60008473ffffffffffffffffffffffffffffffffffffffff1673ffffffffffffffffffffffffffffffffffffffff168152602001908152602001600020819080600181540180825580915050600190039060005260206000200160009091909190915055505050565b6000600560008473ffffffffffffffffffffffffffffffffffffffff1673ffffffffffffffffffffffffffffffffffffffff16815260200190815260200160002060008373ffffffffffffffffffffffffffffffffffffffff1673ffffffffffffffffffffffffffffffffffffffff16815260200190815260200160002060009054906101000a900460ff16905092915050565b610c5c611234565b600073ffffffffffffffffffffffffffffffffffffffff168173ffffffffffffffffffffffffffffffffffffffff1603610ccb576040517f08c379a0000000000000000000000000000000000000000000000000000000008152600401610cc290612d20565b60405180910390fd5b610cd4816112b2565b50565b60007f780e9d63000000000000000000000000000000000000000000000000000000007bffffffffffffffffffffffffffffffffffffffffffffffffffffffff1916827bffffffffffffffffffffffffffffffffffffffffffffffffffffffff19161480610d4a5750610d4982611900565b5b9050919050565b610d5a816119e2565b610d99576040517f08c379a0000000000000000000000000000000000000000000000000000000008152600401610d9090612bfc565b60405180910390fd5b50565b600033905090565b816004600083815260200190815260200160002060006101000a81548173ffffffffffffffffffffffffffffffffffffffff021916908373ffffffffffffffffffffffffffffffffffffffff160217905550808273ffffffffffffffffffffffffffffffffffffffff16610e1783610859565b73ffffffffffffffffffffffffffffffffffffffff167f8c5be1e5ebec7d5bd14f71427d1e84f3dd0314c0f7b2291e5b200ac8c7c3b92560405160405180910390a45050565b600080610e6983610859565b90508073ffffffffffffffffffffffffffffffffffffffff168473ffffffffffffffffffffffffffffffffffffffff161480610eab5750610eaa8185610bc0565b5b80610ee957508373ffffffffffffffffffffffffffffffffffffffff16610ed1846104fd565b73ffffffffffffffffffffffffffffffffffffffff16145b91505092915050565b8273ffffffffffffffffffffffffffffffffffffffff16610f1282610859565b73ffffffffffffffffffffffffffffffffffffffff1614610f68576040517f08c379a0000000000000000000000000000000000000000000000000000000008152600401610f5f90612db2565b60405180910390fd5b600073ffffffffffffffffffffffffffffffffffffffff168273ffffffffffffffffffffffffffffffffffffffff1603610fd7576040517f08c379a0000000000000000000000000000000000000000000000000000000008152600401610fce90612e44565b60405180910390fd5b610fe48383836001611a23565b8273ffffffffffffffffffffffffffffffffffffffff1661100482610859565b73ffffffffffffffffffffffffffffffffffffffff161461105a576040517f08c379a000000000000000000000000000000000000000000000000000000000815260040161105190612db2565b60405180910390fd5b6004600082815260200190815260200160002060006101000a81549073ffffffffffffffffffffffffffffffffffffffff02191690556001600360008573ffffffffffffffffffffffffffffffffffffffff1673ffffffffffffffffffffffffffffffffffffffff168152602001908152602001600020600082825403925050819055506001600360008473ffffffffffffffffffffffffffffffffffffffff1673ffffffffffffffffffffffffffffffffffffffff16815260200190815260200160002060008282540192505081905550816002600083815260200190815260200160002060006101000a81548173ffffffffffffffffffffffffffffffffffffffff021916908373ffffffffffffffffffffffffffffffffffffffff160217905550808273ffffffffffffffffffffffffffffffffffffffff168473ffffffffffffffffffffffffffffffffffffffff167fddf252ad1be2c89b69c2b068fc378daa952ba7f163c4a11628f55a4df523b3ef60405160405180910390a46111e68383836001611acf565b505050565b6111f481611ad5565b50565b60006002600083815260200190815260200160002060009054906101000a900473ffffffffffffffffffffffffffffffffffffffff169050919050565b61123c610d9c565b73ffffffffffffffffffffffffffffffffffffffff1661125a6109db565b73ffffffffffffffffffffffffffffffffffffffff16146112b0576040517f08c379a00000000000000000000000000000000000000000000000000000000081526004016112a790612eb0565b60405180910390fd5b565b6000600b60009054906101000a900473ffffffffffffffffffffffffffffffffffffffff16905081600b60006101000a81548173ffffffffffffffffffffffffffffffffffffffff021916908373ffffffffffffffffffffffffffffffffffffffff1602179055508173ffffffffffffffffffffffffffffffffffffffff168173ffffffffffffffffffffffffffffffffffffffff167f8be0079c531659141344cd1fd0a4f28419497f9722a3daafe3b4186f6b6457e060405160405180910390a35050565b8173ffffffffffffffffffffffffffffffffffffffff168373ffffffffffffffffffffffffffffffffffffffff16036113e6576040517f08c379a00000000000000000000000000000000000000000000000000000000081526004016113dd90612f1c565b60405180910390fd5b80600560008573ffffffffffffffffffffffffffffffffffffffff1673ffffffffffffffffffffffffffffffffffffffff16815260200190815260200160002060008473ffffffffffffffffffffffffffffffffffffffff1673ffffffffffffffffffffffffffffffffffffffff16815260200190815260200160002060006101000a81548160ff0219169083151502179055508173ffffffffffffffffffffffffffffffffffffffff168373ffffffffffffffffffffffffffffffffffffffff167f17307eab39ab6107e8899845ad3d59bd9653f200f220920489ca2b5937696c31836040516114d79190612244565b60405180910390a3505050565b6114ef848484610ef2565b6114fb84848484611b28565b61153a576040517f08c379a000000000000000000000000000000000000000000000000000000000815260040161153190612fae565b60405180910390fd5b50505050565b606061154b82610d51565b6000600a6000848152602001908152602001600020805461156b90612876565b80601f016020809104026020016040519081016040528092919081815260200182805461159790612876565b80156115e45780601f106115b9576101008083540402835291602001916115e4565b820191906000526020600020905b8154815290600101906020018083116115c757829003601f168201915b5050505050905060006115f5611caf565b9050600081510361160a57819250505061164d565b60008251111561163f57808260405160200161162792919061300a565b6040516020818303038152906040529250505061164d565b61164884611ccf565b925050505b919050565b600081600001549050919050565b6001816000016000828254019250508190555050565b600073ffffffffffffffffffffffffffffffffffffffff168273ffffffffffffffffffffffffffffffffffffffff16036116e5576040517f08c379a00000000000000000000000000000000000000000000000000000000081526004016116dc9061307a565b60405180910390fd5b6116ee816119e2565b1561172e576040517f08c379a0000000000000000000000000000000000000000000000000000000008152600401611725906130e6565b60405180910390fd5b61173c600083836001611a23565b611745816119e2565b15611785576040517f08c379a000000000000000000000000000000000000000000000000000000000815260040161177c906130e6565b60405180910390fd5b6001600360008473ffffffffffffffffffffffffffffffffffffffff1673ffffffffffffffffffffffffffffffffffffffff16815260200190815260200160002060008282540192505081905550816002600083815260200190815260200160002060006101000a81548173ffffffffffffffffffffffffffffffffffffffff021916908373ffffffffffffffffffffffffffffffffffffffff160217905550808273ffffffffffffffffffffffffffffffffffffffff16600073ffffffffffffffffffffffffffffffffffffffff167fddf252ad1be2c89b69c2b068fc378daa952ba7f163c4a11628f55a4df523b3ef60405160405180910390a461188f600083836001611acf565b5050565b61189c826119e2565b6118db576040517f08c379a00000000000000000000000000000000000000000000000000000000081526004016118d290613178565b60405180910390fd5b80600a600084815260200190815260200160002090816118fb9190613344565b505050565b60007f80ac58cd000000000000000000000000000000000000000000000000000000007bffffffffffffffffffffffffffffffffffffffffffffffffffffffff1916827bffffffffffffffffffffffffffffffffffffffffffffffffffffffff191614806119cb57507f5b5e139f000000000000000000000000000000000000000000000000000000007bffffffffffffffffffffffffffffffffffffffffffffffffffffffff1916827bffffffffffffffffffffffffffffffffffffffffffffffffffffffff1916145b806119db57506119da82611d37565b5b9050919050565b60008073ffffffffffffffffffffffffffffffffffffffff16611a04836111f7565b73ffffffffffffffffffffffffffffffffffffffff1614159050919050565b600073ffffffffffffffffffffffffffffffffffffffff168473ffffffffffffffffffffffffffffffffffffffff161480611a8a5750600073ffffffffffffffffffffffffffffffffffffffff168373ffffffffffffffffffffffffffffffffffffffff16145b611ac9576040517f08c379a0000000000000000000000000000000000000000000000000000000008152600401611ac0906134ae565b60405180910390fd5b50505050565b50505050565b611ade81611da1565b6000600a60008381526020019081526020016000208054611afe90612876565b905014611b2557600a60008281526020019081526020016000206000611b249190612133565b5b50565b6000611b498473ffffffffffffffffffffffffffffffffffffffff16611eef565b15611ca2578373ffffffffffffffffffffffffffffffffffffffff1663150b7a02611b72610d9c565b8786866040518563ffffffff1660e01b8152600401611b949493929190613523565b6020604051808303816000875af1925050508015611bd057506040513d601f19601f82011682018060405250810190611bcd9190613584565b60015b611c52573d8060008114611c00576040519150601f19603f3d011682016040523d82523d6000602084013e611c05565b606091505b506000815103611c4a576040517f08c379a0000000000000000000000000000000000000000000000000000000008152600401611c4190612fae565b60405180910390fd5b805181602001fd5b63150b7a0260e01b7bffffffffffffffffffffffffffffffffffffffffffffffffffffffff1916817bffffffffffffffffffffffffffffffffffffffffffffffffffffffff191614915050611ca7565b600190505b949350505050565b60606040518060600160405280602281526020016135e160229139905090565b6060611cda82610d51565b6000611ce4611caf565b90506000815111611d045760405180602001604052806000815250611d2f565b80611d0e84611f12565b604051602001611d1f92919061300a565b6040516020818303038152906040525b915050919050565b60007f01ffc9a7000000000000000000000000000000000000000000000000000000007bffffffffffffffffffffffffffffffffffffffffffffffffffffffff1916827bffffffffffffffffffffffffffffffffffffffffffffffffffffffff1916149050919050565b6000611dac82610859565b9050611dbc816000846001611a23565b611dc582610859565b90506004600083815260200190815260200160002060006101000a81549073ffffffffffffffffffffffffffffffffffffffff02191690556001600360008373ffffffffffffffffffffffffffffffffffffffff1673ffffffffffffffffffffffffffffffffffffffff168152602001908152602001600020600082825403925050819055506002600083815260200190815260200160002060006101000a81549073ffffffffffffffffffffffffffffffffffffffff021916905581600073ffffffffffffffffffffffffffffffffffffffff168273ffffffffffffffffffffffffffffffffffffffff167fddf252ad1be2c89b69c2b068fc378daa952ba7f163c4a11628f55a4df523b3ef60405160405180910390a4611eeb816000846001611acf565b5050565b6000808273ffffffffffffffffffffffffffffffffffffffff163b119050919050565b606060006001611f2184611fe0565b01905060008167ffffffffffffffff811115611f4057611f3f61255c565b5b6040519080825280601f01601f191660200182016040528015611f725781602001600182028036833780820191505090505b509050600082602001820190505b600115611fd5578080600190039150507f3031323334353637383961626364656600000000000000000000000000000000600a86061a8153600a8581611fc957611fc86135b1565b5b04945060008503611f80575b819350505050919050565b600080600090507a184f03e93ff9f4daa797ed6e38ed64bf6a1f010000000000000000831061203e577a184f03e93ff9f4daa797ed6e38ed64bf6a1f0100000000000000008381612034576120336135b1565b5b0492506040810190505b6d04ee2d6d415b85acef8100000000831061207b576d04ee2d6d415b85acef81000000008381612071576120706135b1565b5b0492506020810190505b662386f26fc1000083106120aa57662386f26fc1000083816120a05761209f6135b1565b5b0492506010810190505b6305f5e10083106120d3576305f5e10083816120c9576120c86135b1565b5b0492506008810190505b61271083106120f85761271083816120ee576120ed6135b1565b5b0492506004810190505b6064831061211b5760648381612111576121106135b1565b5b0492506002810190505b600a831061212a576001810190505b80915050919050565b50805461213f90612876565b6000825580601f106121515750612170565b601f01602090049060005260206000209081019061216f9190612173565b5b50565b5b8082111561218c576000816000905550600101612174565b5090565b6000604051905090565b600080fd5b600080fd5b60007fffffffff0000000000000000000000000000000000000000000000000000000082169050919050565b6121d9816121a4565b81146121e457600080fd5b50565b6000813590506121f6816121d0565b92915050565b6000602082840312156122125761221161219a565b5b6000612220848285016121e7565b91505092915050565b60008115159050919050565b61223e81612229565b82525050565b60006020820190506122596000830184612235565b92915050565b600081519050919050565b600082825260208201905092915050565b60005b8381101561229957808201518184015260208101905061227e565b60008484015250505050565b6000601f19601f8301169050919050565b60006122c18261225f565b6122cb818561226a565b93506122db81856020860161227b565b6122e4816122a5565b840191505092915050565b6000602082019050818103600083015261230981846122b6565b905092915050565b6000819050919050565b61232481612311565b811461232f57600080fd5b50565b6000813590506123418161231b565b92915050565b60006020828403121561235d5761235c61219a565b5b600061236b84828501612332565b91505092915050565b600073ffffffffffffffffffffffffffffffffffffffff82169050919050565b600061239f82612374565b9050919050565b6123af81612394565b82525050565b60006020820190506123ca60008301846123a6565b92915050565b6123d981612394565b81146123e457600080fd5b50565b6000813590506123f6816123d0565b92915050565b600080604083850312156124135761241261219a565b5b6000612421858286016123e7565b925050602061243285828601612332565b9150509250929050565b61244581612311565b82525050565b6000602082019050612460600083018461243c565b92915050565b60008060006060848603121561247f5761247e61219a565b5b600061248d868287016123e7565b935050602061249e868287016123e7565b92505060406124af86828701612332565b9150509250925092565b6000602082840312156124cf576124ce61219a565b5b60006124dd848285016123e7565b91505092915050565b6124ef81612229565b81146124fa57600080fd5b50565b60008135905061250c816124e6565b92915050565b600080604083850312156125295761252861219a565b5b6000612537858286016123e7565b9250506020612548858286016124fd565b9150509250929050565b600080fd5b600080fd5b7f4e487b7100000000000000000000000000000000000000000000000000000000600052604160045260246000fd5b612594826122a5565b810181811067ffffffffffffffff821117156125b3576125b261255c565b5b80604052505050565b60006125c6612190565b90506125d2828261258b565b919050565b600067ffffffffffffffff8211156125f2576125f161255c565b5b6125fb826122a5565b9050602081019050919050565b82818337600083830152505050565b600061262a612625846125d7565b6125bc565b90508281526020810184848401111561264657612645612557565b5b612651848285612608565b509392505050565b600082601f83011261266e5761266d612552565b5b813561267e848260208601612617565b91505092915050565b600080600080608085870312156126a1576126a061219a565b5b60006126af878288016123e7565b94505060206126c0878288016123e7565b93505060406126d187828801612332565b925050606085013567ffffffffffffffff8111156126f2576126f161219f565b5b6126fe87828801612659565b91505092959194509250565b600067ffffffffffffffff8211156127255761272461255c565b5b61272e826122a5565b9050602081019050919050565b600061274e6127498461270a565b6125bc565b90508281526020810184848401111561276a57612769612557565b5b612775848285612608565b509392505050565b600082601f83011261279257612791612552565b5b81356127a284826020860161273b565b91505092915050565b600080604083850312156127c2576127c161219a565b5b60006127d0858286016123e7565b925050602083013567ffffffffffffffff8111156127f1576127f061219f565b5b6127fd8582860161277d565b9150509250929050565b6000806040838503121561281e5761281d61219a565b5b600061282c858286016123e7565b925050602061283d858286016123e7565b9150509250929050565b7f4e487b7100000000000000000000000000000000000000000000000000000000600052602260045260246000fd5b6000600282049050600182168061288e57607f821691505b6020821081036128a1576128a0612847565b5b50919050565b7f4552433732313a20617070726f76616c20746f2063757272656e74206f776e6560008201527f7200000000000000000000000000000000000000000000000000000000000000602082015250565b600061290360218361226a565b915061290e826128a7565b604082019050919050565b60006020820190508181036000830152612932816128f6565b9050919050565b7f4552433732313a20617070726f76652063616c6c6572206973206e6f7420746f60008201527f6b656e206f776e6572206f7220617070726f76656420666f7220616c6c000000602082015250565b6000612995603d8361226a565b91506129a082612939565b604082019050919050565b600060208201905081810360008301526129c481612988565b9050919050565b7f4552433732313a2063616c6c6572206973206e6f7420746f6b656e206f776e6560008201527f72206f7220617070726f76656400000000000000000000000000000000000000602082015250565b6000612a27602d8361226a565b9150612a32826129cb565b604082019050919050565b60006020820190508181036000830152612a5681612a1a565b9050919050565b7f455243373231456e756d657261626c653a206f776e657220696e646578206f7560008201527f74206f6620626f756e6473000000000000000000000000000000000000000000602082015250565b6000612ab9602b8361226a565b9150612ac482612a5d565b604082019050919050565b60006020820190508181036000830152612ae881612aac565b9050919050565b7f455243373231456e756d657261626c653a20676c6f62616c20696e646578206f60008201527f7574206f6620626f756e64730000000000000000000000000000000000000000602082015250565b6000612b4b602c8361226a565b9150612b5682612aef565b604082019050919050565b60006020820190508181036000830152612b7a81612b3e565b9050919050565b7f4e487b7100000000000000000000000000000000000000000000000000000000600052603260045260246000fd5b7f4552433732313a20696e76616c696420746f6b656e2049440000000000000000600082015250565b6000612be660188361226a565b9150612bf182612bb0565b602082019050919050565b60006020820190508181036000830152612c1581612bd9565b9050919050565b7f4552433732313a2061646472657373207a65726f206973206e6f74206120766160008201527f6c6964206f776e65720000000000000000000000000000000000000000000000602082015250565b6000612c7860298361226a565b9150612c8382612c1c565b604082019050919050565b60006020820190508181036000830152612ca781612c6b565b9050919050565b7f4f776e61626c653a206e6577206f776e657220697320746865207a65726f206160008201527f6464726573730000000000000000000000000000000000000000000000000000602082015250565b6000612d0a60268361226a565b9150612d1582612cae565b604082019050919050565b60006020820190508181036000830152612d3981612cfd565b9050919050565b7f4552433732313a207472616e736665722066726f6d20696e636f72726563742060008201527f6f776e6572000000000000000000000000000000000000000000000000000000602082015250565b6000612d9c60258361226a565b9150612da782612d40565b604082019050919050565b60006020820190508181036000830152612dcb81612d8f565b9050919050565b7f4552433732313a207472616e7366657220746f20746865207a65726f2061646460008201527f7265737300000000000000000000000000000000000000000000000000000000602082015250565b6000612e2e60248361226a565b9150612e3982612dd2565b604082019050919050565b60006020820190508181036000830152612e5d81612e21565b9050919050565b7f4f776e61626c653a2063616c6c6572206973206e6f7420746865206f776e6572600082015250565b6000612e9a60208361226a565b9150612ea582612e64565b602082019050919050565b60006020820190508181036000830152612ec981612e8d565b9050919050565b7f4552433732313a20617070726f766520746f2063616c6c657200000000000000600082015250565b6000612f0660198361226a565b9150612f1182612ed0565b602082019050919050565b60006020820190508181036000830152612f3581612ef9565b9050919050565b7f4552433732313a207472616e7366657220746f206e6f6e20455243373231526560008201527f63656976657220696d706c656d656e7465720000000000000000000000000000602082015250565b6000612f9860328361226a565b9150612fa382612f3c565b604082019050919050565b60006020820190508181036000830152612fc781612f8b565b9050919050565b600081905092915050565b6000612fe48261225f565b612fee8185612fce565b9350612ffe81856020860161227b565b80840191505092915050565b60006130168285612fd9565b91506130228284612fd9565b91508190509392505050565b7f4552433732313a206d696e7420746f20746865207a65726f2061646472657373600082015250565b600061306460208361226a565b915061306f8261302e565b602082019050919050565b6000602082019050818103600083015261309381613057565b9050919050565b7f4552433732313a20746f6b656e20616c7265616479206d696e74656400000000600082015250565b60006130d0601c8361226a565b91506130db8261309a565b602082019050919050565b600060208201905081810360008301526130ff816130c3565b9050919050565b7f45524337323155524953746f726167653a2055524920736574206f66206e6f6e60008201527f6578697374656e7420746f6b656e000000000000000000000000000000000000602082015250565b6000613162602e8361226a565b915061316d82613106565b604082019050919050565b6000602082019050818103600083015261319181613155565b9050919050565b60008190508160005260206000209050919050565b60006020601f8301049050919050565b600082821b905092915050565b6000600883026131fa7fffffffffffffffffffffffffffffffffffffffffffffffffffffffffffffffff826131bd565b61320486836131bd565b95508019841693508086168417925050509392505050565b6000819050919050565b600061324161323c61323784612311565b61321c565b612311565b9050919050565b6000819050919050565b61325b83613226565b61326f61326782613248565b8484546131ca565b825550505050565b600090565b613284613277565b61328f818484613252565b505050565b5b818110156132b3576132a860008261327c565b600181019050613295565b5050565b601f8211156132f8576132c981613198565b6132d2846131ad565b810160208510156132e1578190505b6132f56132ed856131ad565b830182613294565b50505b505050565b600082821c905092915050565b600061331b600019846008026132fd565b1980831691505092915050565b6000613334838361330a565b9150826002028217905092915050565b61334d8261225f565b67ffffffffffffffff8111156133665761336561255c565b5b6133708254612876565b61337b8282856132b7565b600060209050601f8311600181146133ae576000841561339c578287015190505b6133a68582613328565b86555061340e565b601f1984166133bc86613198565b60005b828110156133e4578489015182556001820191506020850194506020810190506133bf565b8683101561340157848901516133fd601f89168261330a565b8355505b6001600288020188555050505b505050505050565b7f54686973206120536f756c626f756e6420746f6b656e2e2049742063616e6e6f60008201527f74206265207472616e736665727265642e2049742063616e206f6e6c7920626560208201527f206275726e65642062792074686520746f6b656e206f776e65722e0000000000604082015250565b6000613498605b8361226a565b91506134a382613416565b606082019050919050565b600060208201905081810360008301526134c78161348b565b9050919050565b600081519050919050565b600082825260208201905092915050565b60006134f5826134ce565b6134ff81856134d9565b935061350f81856020860161227b565b613518816122a5565b840191505092915050565b600060808201905061353860008301876123a6565b61354560208301866123a6565b613552604083018561243c565b818103606083015261356481846134ea565b905095945050505050565b60008151905061357e816121d0565b92915050565b60006020828403121561359a5761359961219a565b5b60006135a88482850161356f565b91505092915050565b7f4e487b7100000000000000000000000000000000000000000000000000000000600052601260045260246000fdfe68747470733a2f2f636364616f2e6d7970696e6174612e636c6f75642f697066732fa2646970667358221220cc3f8d0c8af95b99bdec3073f5909880e61bf49debcd0db4aba66c77f872e8ad64736f6c63430008110033",
  "linkReferences": {},
  "deployedLinkReferences": {}
}