{
  "_format": "hh-sol-artifact-1",
  "contractName": "SpendDAO",
  "sourceName": "contracts/SpendDAO.sol",
  "abi": [
    {
      "inputs": [],
      "stateMutability": "nonpayable",
      "type": "constructor"
    },
    {
      "anonymous": false,
      "inputs": [
        {
          "indexed": true,
          "internalType": "address",
          "name": "owner",
          "type": "address"
        },
        {
          "indexed": true,
          "internalType": "address",
          "name": "approved",
          "type": "address"
        },
        {
          "indexed": true,
          "internalType": "uint256",
          "name": "tokenId",
          "type": "uint256"
        }
      ],
      "name": "Approval",
      "type": "event"
    },
    {
      "anonymous": false,
      "inputs": [
        {
          "indexed": true,
          "internalType": "address",
          "name": "owner",
          "type": "address"
        },
        {
          "indexed": true,
          "internalType": "address",
          "name": "operator",
          "type": "address"
        },
        {
          "indexed": false,
          "internalType": "bool",
          "name": "approved",
          "type": "bool"
        }
      ],
      "name": "ApprovalForAll",
      "type": "event"
    },
    {
      "anonymous": false,
      "inputs": [
        {
          "indexed": true,
          "internalType": "address",
          "name": "delegator",
          "type": "address"
        },
        {
          "indexed": true,
          "internalType": "address",
          "name": "fromDelegate",
          "type": "address"
        },
        {
          "indexed": true,
          "internalType": "address",
          "name": "toDelegate",
          "type": "address"
        }
      ],
      "name": "DelegateChanged",
      "type": "event"
    },
    {
      "anonymous": false,
      "inputs": [
        {
          "indexed": true,
          "internalType": "address",
          "name": "delegate",
          "type": "address"
        },
        {
          "indexed": false,
          "internalType": "uint256",
          "name": "previousBalance",
          "type": "uint256"
        },
        {
          "indexed": false,
          "internalType": "uint256",
          "name": "newBalance",
          "type": "uint256"
        }
      ],
      "name": "DelegateVotesChanged",
      "type": "event"
    },
    {
      "anonymous": false,
      "inputs": [
        {
          "indexed": false,
          "internalType": "address",
          "name": "account",
          "type": "address"
        }
      ],
      "name": "Paused",
      "type": "event"
    },
    {
      "anonymous": false,
      "inputs": [
        {
          "indexed": true,
          "internalType": "bytes32",
          "name": "role",
          "type": "bytes32"
        },
        {
          "indexed": true,
          "internalType": "bytes32",
          "name": "previousAdminRole",
          "type": "bytes32"
        },
        {
          "indexed": true,
          "internalType": "bytes32",
          "name": "newAdminRole",
          "type": "bytes32"
        }
      ],
      "name": "RoleAdminChanged",
      "type": "event"
    },
    {
      "anonymous": false,
      "inputs": [
        {
          "indexed": true,
          "internalType": "bytes32",
          "name": "role",
          "type": "bytes32"
        },
        {
          "indexed": true,
          "internalType": "address",
          "name": "account",
          "type": "address"
        },
        {
          "indexed": true,
          "internalType": "address",
          "name": "sender",
          "type": "address"
        }
      ],
      "name": "RoleGranted",
      "type": "event"
    },
    {
      "anonymous": false,
      "inputs": [
        {
          "indexed": true,
          "internalType": "bytes32",
          "name": "role",
          "type": "bytes32"
        },
        {
          "indexed": true,
          "internalType": "address",
          "name": "account",
          "type": "address"
        },
        {
          "indexed": true,
          "internalType": "address",
          "name": "sender",
          "type": "address"
        }
      ],
      "name": "RoleRevoked",
      "type": "event"
    },
    {
      "anonymous": false,
      "inputs": [
        {
          "indexed": true,
          "internalType": "address",
          "name": "from",
          "type": "address"
        },
        {
          "indexed": true,
          "internalType": "address",
          "name": "to",
          "type": "address"
        },
        {
          "indexed": true,
          "internalType": "uint256",
          "name": "tokenId",
          "type": "uint256"
        }
      ],
      "name": "Transfer",
      "type": "event"
    },
    {
      "anonymous": false,
      "inputs": [
        {
          "indexed": false,
          "internalType": "address",
          "name": "account",
          "type": "address"
        }
      ],
      "name": "Unpaused",
      "type": "event"
    },
    {
      "inputs": [],
      "name": "DEFAULT_ADMIN_ROLE",
      "outputs": [
        {
          "internalType": "bytes32",
          "name": "",
          "type": "bytes32"
        }
      ],
      "stateMutability": "view",
      "type": "function"
    },
    {
      "inputs": [],
      "name": "DOMAIN_SEPARATOR",
      "outputs": [
        {
          "internalType": "bytes32",
          "name": "",
          "type": "bytes32"
        }
      ],
      "stateMutability": "view",
      "type": "function"
    },
    {
      "inputs": [],
      "name": "MINTER_ROLE",
      "outputs": [
        {
          "internalType": "bytes32",
          "name": "",
          "type": "bytes32"
        }
      ],
      "stateMutability": "view",
      "type": "function"
    },
    {
      "inputs": [],
      "name": "PAUSER_ROLE",
      "outputs": [
        {
          "internalType": "bytes32",
          "name": "",
          "type": "bytes32"
        }
      ],
      "stateMutability": "view",
      "type": "function"
    },
    {
      "inputs": [
        {
          "internalType": "address",
          "name": "to",
          "type": "address"
        },
        {
          "internalType": "uint256",
          "name": "tokenId",
          "type": "uint256"
        }
      ],
      "name": "approve",
      "outputs": [],
      "stateMutability": "nonpayable",
      "type": "function"
    },
    {
      "inputs": [
        {
          "internalType": "address",
          "name": "owner",
          "type": "address"
        }
      ],
      "name": "balanceOf",
      "outputs": [
        {
          "internalType": "uint256",
          "name": "",
          "type": "uint256"
        }
      ],
      "stateMutability": "view",
      "type": "function"
    },
    {
      "inputs": [
        {
          "internalType": "uint256",
          "name": "tokenId",
          "type": "uint256"
        }
      ],
      "name": "burn",
      "outputs": [],
      "stateMutability": "nonpayable",
      "type": "function"
    },
    {
      "inputs": [
        {
          "internalType": "address",
          "name": "delegatee",
          "type": "address"
        }
      ],
      "name": "delegate",
      "outputs": [],
      "stateMutability": "nonpayable",
      "type": "function"
    },
    {
      "inputs": [
        {
          "internalType": "address",
          "name": "delegatee",
          "type": "address"
        },
        {
          "internalType": "uint256",
          "name": "nonce",
          "type": "uint256"
        },
        {
          "internalType": "uint256",
          "name": "expiry",
          "type": "uint256"
        },
        {
          "internalType": "uint8",
          "name": "v",
          "type": "uint8"
        },
        {
          "internalType": "bytes32",
          "name": "r",
          "type": "bytes32"
        },
        {
          "internalType": "bytes32",
          "name": "s",
          "type": "bytes32"
        }
      ],
      "name": "delegateBySig",
      "outputs": [],
      "stateMutability": "nonpayable",
      "type": "function"
    },
    {
      "inputs": [
        {
          "internalType": "address",
          "name": "account",
          "type": "address"
        }
      ],
      "name": "delegates",
      "outputs": [
        {
          "internalType": "address",
          "name": "",
          "type": "address"
        }
      ],
      "stateMutability": "view",
      "type": "function"
    },
    {
      "inputs": [
        {
          "internalType": "uint256",
          "name": "tokenId",
          "type": "uint256"
        }
      ],
      "name": "getApproved",
      "outputs": [
        {
          "internalType": "address",
          "name": "",
          "type": "address"
        }
      ],
      "stateMutability": "view",
      "type": "function"
    },
    {
      "inputs": [
        {
          "internalType": "uint256",
          "name": "blockNumber",
          "type": "uint256"
        }
      ],
      "name": "getPastTotalSupply",
      "outputs": [
        {
          "internalType": "uint256",
          "name": "",
          "type": "uint256"
        }
      ],
      "stateMutability": "view",
      "type": "function"
    },
    {
      "inputs": [
        {
          "internalType": "address",
          "name": "account",
          "type": "address"
        },
        {
          "internalType": "uint256",
          "name": "blockNumber",
          "type": "uint256"
        }
      ],
      "name": "getPastVotes",
      "outputs": [
        {
          "internalType": "uint256",
          "name": "",
          "type": "uint256"
        }
      ],
      "stateMutability": "view",
      "type": "function"
    },
    {
      "inputs": [
        {
          "internalType": "bytes32",
          "name": "role",
          "type": "bytes32"
        }
      ],
      "name": "getRoleAdmin",
      "outputs": [
        {
          "internalType": "bytes32",
          "name": "",
          "type": "bytes32"
        }
      ],
      "stateMutability": "view",
      "type": "function"
    },
    {
      "inputs": [
        {
          "internalType": "address",
          "name": "account",
          "type": "address"
        }
      ],
      "name": "getVotes",
      "outputs": [
        {
          "internalType": "uint256",
          "name": "",
          "type": "uint256"
        }
      ],
      "stateMutability": "view",
      "type": "function"
    },
    {
      "inputs": [
        {
          "internalType": "bytes32",
          "name": "role",
          "type": "bytes32"
        },
        {
          "internalType": "address",
          "name": "account",
          "type": "address"
        }
      ],
      "name": "grantRole",
      "outputs": [],
      "stateMutability": "nonpayable",
      "type": "function"
    },
    {
      "inputs": [
        {
          "internalType": "bytes32",
          "name": "role",
          "type": "bytes32"
        },
        {
          "internalType": "address",
          "name": "account",
          "type": "address"
        }
      ],
      "name": "hasRole",
      "outputs": [
        {
          "internalType": "bool",
          "name": "",
          "type": "bool"
        }
      ],
      "stateMutability": "view",
      "type": "function"
    },
    {
      "inputs": [
        {
          "internalType": "address",
          "name": "owner",
          "type": "address"
        },
        {
          "internalType": "address",
          "name": "operator",
          "type": "address"
        }
      ],
      "name": "isApprovedForAll",
      "outputs": [
        {
          "internalType": "bool",
          "name": "",
          "type": "bool"
        }
      ],
      "stateMutability": "view",
      "type": "function"
    },
    {
      "inputs": [],
      "name": "name",
      "outputs": [
        {
          "internalType": "string",
          "name": "",
          "type": "string"
        }
      ],
      "stateMutability": "view",
      "type": "function"
    },
    {
      "inputs": [
        {
          "internalType": "address",
          "name": "owner",
          "type": "address"
        }
      ],
      "name": "nonces",
      "outputs": [
        {
          "internalType": "uint256",
          "name": "",
          "type": "uint256"
        }
      ],
      "stateMutability": "view",
      "type": "function"
    },
    {
      "inputs": [
        {
          "internalType": "uint256",
          "name": "tokenId",
          "type": "uint256"
        }
      ],
      "name": "ownerOf",
      "outputs": [
        {
          "internalType": "address",
          "name": "",
          "type": "address"
        }
      ],
      "stateMutability": "view",
      "type": "function"
    },
    {
      "inputs": [],
      "name": "pause",
      "outputs": [],
      "stateMutability": "nonpayable",
      "type": "function"
    },
    {
      "inputs": [],
      "name": "paused",
      "outputs": [
        {
          "internalType": "bool",
          "name": "",
          "type": "bool"
        }
      ],
      "stateMutability": "view",
      "type": "function"
    },
    {
      "inputs": [
        {
          "internalType": "bytes32",
          "name": "role",
          "type": "bytes32"
        },
        {
          "internalType": "address",
          "name": "account",
          "type": "address"
        }
      ],
      "name": "renounceRole",
      "outputs": [],
      "stateMutability": "nonpayable",
      "type": "function"
    },
    {
      "inputs": [
        {
          "internalType": "bytes32",
          "name": "role",
          "type": "bytes32"
        },
        {
          "internalType": "address",
          "name": "account",
          "type": "address"
        }
      ],
      "name": "revokeRole",
      "outputs": [],
      "stateMutability": "nonpayable",
      "type": "function"
    },
    {
      "inputs": [
        {
          "internalType": "address",
          "name": "to",
          "type": "address"
        },
        {
          "internalType": "string",
          "name": "uri",
          "type": "string"
        }
      ],
      "name": "safeMint",
      "outputs": [],
      "stateMutability": "nonpayable",
      "type": "function"
    },
    {
      "inputs": [
        {
          "internalType": "address",
          "name": "from",
          "type": "address"
        },
        {
          "internalType": "address",
          "name": "to",
          "type": "address"
        },
        {
          "internalType": "uint256",
          "name": "tokenId",
          "type": "uint256"
        }
      ],
      "name": "safeTransferFrom",
      "outputs": [],
      "stateMutability": "nonpayable",
      "type": "function"
    },
    {
      "inputs": [
        {
          "internalType": "address",
          "name": "from",
          "type": "address"
        },
        {
          "internalType": "address",
          "name": "to",
          "type": "address"
        },
        {
          "internalType": "uint256",
          "name": "tokenId",
          "type": "uint256"
        },
        {
          "internalType": "bytes",
          "name": "data",
          "type": "bytes"
        }
      ],
      "name": "safeTransferFrom",
      "outputs": [],
      "stateMutability": "nonpayable",
      "type": "function"
    },
    {
      "inputs": [
        {
          "internalType": "address",
          "name": "operator",
          "type": "address"
        },
        {
          "internalType": "bool",
          "name": "approved",
          "type": "bool"
        }
      ],
      "name": "setApprovalForAll",
      "outputs": [],
      "stateMutability": "nonpayable",
      "type": "function"
    },
    {
      "inputs": [
        {
          "internalType": "bytes4",
          "name": "interfaceId",
          "type": "bytes4"
        }
      ],
      "name": "supportsInterface",
      "outputs": [
        {
          "internalType": "bool",
          "name": "",
          "type": "bool"
        }
      ],
      "stateMutability": "view",
      "type": "function"
    },
    {
      "inputs": [],
      "name": "symbol",
      "outputs": [
        {
          "internalType": "string",
          "name": "",
          "type": "string"
        }
      ],
      "stateMutability": "view",
      "type": "function"
    },
    {
      "inputs": [
        {
          "internalType": "uint256",
          "name": "index",
          "type": "uint256"
        }
      ],
      "name": "tokenByIndex",
      "outputs": [
        {
          "internalType": "uint256",
          "name": "",
          "type": "uint256"
        }
      ],
      "stateMutability": "view",
      "type": "function"
    },
    {
      "inputs": [
        {
          "internalType": "address",
          "name": "owner",
          "type": "address"
        },
        {
          "internalType": "uint256",
          "name": "index",
          "type": "uint256"
        }
      ],
      "name": "tokenOfOwnerByIndex",
      "outputs": [
        {
          "internalType": "uint256",
          "name": "",
          "type": "uint256"
        }
      ],
      "stateMutability": "view",
      "type": "function"
    },
    {
      "inputs": [
        {
          "internalType": "uint256",
          "name": "tokenId",
          "type": "uint256"
        }
      ],
      "name": "tokenURI",
      "outputs": [
        {
          "internalType": "string",
          "name": "",
          "type": "string"
        }
      ],
      "stateMutability": "view",
      "type": "function"
    },
    {
      "inputs": [],
      "name": "totalSupply",
      "outputs": [
        {
          "internalType": "uint256",
          "name": "",
          "type": "uint256"
        }
      ],
      "stateMutability": "view",
      "type": "function"
    },
    {
      "inputs": [
        {
          "internalType": "address",
          "name": "from",
          "type": "address"
        },
        {
          "internalType": "address",
          "name": "to",
          "type": "address"
        },
        {
          "internalType": "uint256",
          "name": "tokenId",
          "type": "uint256"
        }
      ],
      "name": "transferFrom",
      "outputs": [],
      "stateMutability": "nonpayable",
      "type": "function"
    },
    {
      "inputs": [],
      "name": "unpause",
      "outputs": [],
      "stateMutability": "nonpayable",
      "type": "function"
    }
  ],
  "bytecode": "0x6101406040523480156200001257600080fd5b506040518060400160405280600881526020017f5370656e6444414f0000000000000000000000000000000000000000000000008152506040518060400160405280600181526020017f31000000000000000000000000000000000000000000000000000000000000008152506040518060400160405280600881526020017f5370656e6444414f0000000000000000000000000000000000000000000000008152506040518060400160405280600681526020017f53505444414f00000000000000000000000000000000000000000000000000008152508160009081620000fc919062000678565b5080600190816200010e919062000678565b5050506000600b60006101000a81548160ff02191690831515021790555060008280519060200120905060008280519060200120905060007f8b73c3c69bb8fe3d512ecc4cf759cc79239f7b179b0ffacaa9a75d522b39400f90508260e081815250508161010081815250504660a08181525050620001958184846200025d60201b60201c565b608081815250503073ffffffffffffffffffffffffffffffffffffffff1660c08173ffffffffffffffffffffffffffffffffffffffff16815250508061012081815250505050505050620001f36000801b336200029960201b60201c565b620002257f65d7a28e3265b37a6474929f336521b332c1681b933f6cb9f3376673440d862a336200029960201b60201c565b620002577f9f2df0fed2c77648de5860a4cc508cd0818c85b8b8a1ab4ceeef8d981c8956a6336200029960201b60201c565b6200082d565b600083838346306040516020016200027a959493929190620007d0565b6040516020818303038152906040528051906020012090509392505050565b620002ab82826200038b60201b60201c565b62000387576001600c600084815260200190815260200160002060000160008373ffffffffffffffffffffffffffffffffffffffff1673ffffffffffffffffffffffffffffffffffffffff16815260200190815260200160002060006101000a81548160ff0219169083151502179055506200032c620003f660201b60201c565b73ffffffffffffffffffffffffffffffffffffffff168173ffffffffffffffffffffffffffffffffffffffff16837f2f8788117e7eff1d82e926ec794901d17c78024a50270940304540a733656f0d60405160405180910390a45b5050565b6000600c600084815260200190815260200160002060000160008373ffffffffffffffffffffffffffffffffffffffff1673ffffffffffffffffffffffffffffffffffffffff16815260200190815260200160002060009054906101000a900460ff16905092915050565b600033905090565b600081519050919050565b7f4e487b7100000000000000000000000000000000000000000000000000000000600052604160045260246000fd5b7f4e487b7100000000000000000000000000000000000000000000000000000000600052602260045260246000fd5b600060028204905060018216806200048057607f821691505b60208210810362000496576200049562000438565b5b50919050565b60008190508160005260206000209050919050565b60006020601f8301049050919050565b600082821b905092915050565b600060088302620005007fffffffffffffffffffffffffffffffffffffffffffffffffffffffffffffffff82620004c1565b6200050c8683620004c1565b95508019841693508086168417925050509392505050565b6000819050919050565b6000819050919050565b600062000559620005536200054d8462000524565b6200052e565b62000524565b9050919050565b6000819050919050565b620005758362000538565b6200058d620005848262000560565b848454620004ce565b825550505050565b600090565b620005a462000595565b620005b18184846200056a565b505050565b5b81811015620005d957620005cd6000826200059a565b600181019050620005b7565b5050565b601f8211156200062857620005f2816200049c565b620005fd84620004b1565b810160208510156200060d578190505b620006256200061c85620004b1565b830182620005b6565b50505b505050565b600082821c905092915050565b60006200064d600019846008026200062d565b1980831691505092915050565b60006200066883836200063a565b9150826002028217905092915050565b6200068382620003fe565b67ffffffffffffffff8111156200069f576200069e62000409565b5b620006ab825462000467565b620006b8828285620005dd565b600060209050601f831160018114620006f05760008415620006db578287015190505b620006e785826200065a565b86555062000757565b601f19841662000700866200049c565b60005b828110156200072a5784890151825560018201915060208501945060208101905062000703565b868310156200074a578489015162000746601f8916826200063a565b8355505b6001600288020188555050505b505050505050565b6000819050919050565b62000774816200075f565b82525050565b620007858162000524565b82525050565b600073ffffffffffffffffffffffffffffffffffffffff82169050919050565b6000620007b8826200078b565b9050919050565b620007ca81620007ab565b82525050565b600060a082019050620007e7600083018862000769565b620007f6602083018762000769565b62000805604083018662000769565b6200081460608301856200077a565b620008236080830184620007bf565b9695505050505050565b60805160a05160c05160e05161010051610120516164f96200087d6000396000611a7e01526000611ac001526000611a9f015260006119d401526000611a2a01526000611a5301526164f96000f3fe608060405234801561001057600080fd5b50600436106102275760003560e01c80635c975abb11610130578063a217fddf116100b8578063d204c45e1161007c578063d204c45e146106ac578063d5391393146106c8578063d547741f146106e6578063e63ab1e914610702578063e985e9c51461072057610227565b8063a217fddf1461060a578063a22cb46514610628578063b88d4fde14610644578063c3cda52014610660578063c87b56dd1461067c57610227565b80638456cb59116100ff5780638456cb59146105525780638e539e8c1461055c57806391d148541461058c57806395d89b41146105bc5780639ab24eb0146105da57610227565b80635c975abb146104a45780636352211e146104c257806370a08231146104f25780637ecebe001461052257610227565b80633644e515116101b357806342842e0e1161018257806342842e0e146103f057806342966c681461040c5780634f6ccce714610428578063587cde1e146104585780635c19a95c1461048857610227565b80633644e5151461037c57806336568abe1461039a5780633a46b1a8146103b65780633f4ba83a146103e657610227565b806318160ddd116101fa57806318160ddd146102c657806323b872dd146102e4578063248a9ca3146103005780632f2ff15d146103305780632f745c591461034c57610227565b806301ffc9a71461022c57806306fdde031461025c578063081812fc1461027a578063095ea7b3146102aa575b600080fd5b610246600480360381019061024191906145d4565b610750565b604051610253919061461c565b60405180910390f35b610264610762565b60405161027191906146c7565b60405180910390f35b610294600480360381019061028f919061471f565b6107f4565b6040516102a1919061478d565b60405180910390f35b6102c460048036038101906102bf91906147d4565b61083a565b005b6102ce610951565b6040516102db9190614823565b60405180910390f35b6102fe60048036038101906102f9919061483e565b61095e565b005b61031a600480360381019061031591906148c7565b6109be565b6040516103279190614903565b60405180910390f35b61034a6004803603810190610345919061491e565b6109de565b005b610366600480360381019061036191906147d4565b6109ff565b6040516103739190614823565b60405180910390f35b610384610aa4565b6040516103919190614903565b60405180910390f35b6103b460048036038101906103af919061491e565b610ab3565b005b6103d060048036038101906103cb91906147d4565b610b36565b6040516103dd9190614823565b60405180910390f35b6103ee610b91565b005b61040a6004803603810190610405919061483e565b610bc6565b005b6104266004803603810190610421919061471f565b610be6565b005b610442600480360381019061043d919061471f565b610c42565b60405161044f9190614823565b60405180910390f35b610472600480360381019061046d919061495e565b610cb3565b60405161047f919061478d565b60405180910390f35b6104a2600480360381019061049d919061495e565b610d1c565b005b6104ac610d36565b6040516104b9919061461c565b60405180910390f35b6104dc60048036038101906104d7919061471f565b610d4d565b6040516104e9919061478d565b60405180910390f35b61050c6004803603810190610507919061495e565b610dd3565b6040516105199190614823565b60405180910390f35b61053c6004803603810190610537919061495e565b610e8a565b6040516105499190614823565b60405180910390f35b61055a610eda565b005b6105766004803603810190610571919061471f565b610f0f565b6040516105839190614823565b60405180910390f35b6105a660048036038101906105a1919061491e565b610f6e565b6040516105b3919061461c565b60405180910390f35b6105c4610fd9565b6040516105d191906146c7565b60405180910390f35b6105f460048036038101906105ef919061495e565b61106b565b6040516106019190614823565b60405180910390f35b6106126110d9565b60405161061f9190614903565b60405180910390f35b610642600480360381019061063d91906149b7565b6110e0565b005b61065e60048036038101906106599190614b2c565b6110f6565b005b61067a60048036038101906106759190614be8565b611158565b005b6106966004803603810190610691919061471f565b61125c565b6040516106a391906146c7565b60405180910390f35b6106c660048036038101906106c19190614d16565b61126e565b005b6106d06112ca565b6040516106dd9190614903565b60405180910390f35b61070060048036038101906106fb919061491e565b6112ee565b005b61070a61130f565b6040516107179190614903565b60405180910390f35b61073a60048036038101906107359190614d72565b611333565b604051610747919061461c565b60405180910390f35b600061075b826113c7565b9050919050565b60606000805461077190614de1565b80601f016020809104026020016040519081016040528092919081815260200182805461079d90614de1565b80156107ea5780601f106107bf576101008083540402835291602001916107ea565b820191906000526020600020905b8154815290600101906020018083116107cd57829003601f168201915b5050505050905090565b60006107ff82611441565b6004600083815260200190815260200160002060009054906101000a900473ffffffffffffffffffffffffffffffffffffffff169050919050565b600061084582610d4d565b90508073ffffffffffffffffffffffffffffffffffffffff168373ffffffffffffffffffffffffffffffffffffffff16036108b5576040517f08c379a00000000000000000000000000000000000000000000000000000000081526004016108ac90614e84565b60405180910390fd5b8073ffffffffffffffffffffffffffffffffffffffff166108d461148c565b73ffffffffffffffffffffffffffffffffffffffff1614806109035750610902816108fd61148c565b611333565b5b610942576040517f08c379a000000000000000000000000000000000000000000000000000000000815260040161093990614f16565b60405180910390fd5b61094c8383611494565b505050565b6000600880549050905090565b61096f61096961148c565b8261154d565b6109ae576040517f08c379a00000000000000000000000000000000000000000000000000000000081526004016109a590614fa8565b60405180910390fd5b6109b98383836115e2565b505050565b6000600c6000838152602001908152602001600020600101549050919050565b6109e7826109be565b6109f0816118db565b6109fa83836118ef565b505050565b6000610a0a83610dd3565b8210610a4b576040517f08c379a0000000000000000000000000000000000000000000000000000000008152600401610a429061503a565b60405180910390fd5b600660008473ffffffffffffffffffffffffffffffffffffffff1673ffffffffffffffffffffffffffffffffffffffff168152602001908152602001600020600083815260200190815260200160002054905092915050565b6000610aae6119d0565b905090565b610abb61148c565b73ffffffffffffffffffffffffffffffffffffffff168173ffffffffffffffffffffffffffffffffffffffff1614610b28576040517f08c379a0000000000000000000000000000000000000000000000000000000008152600401610b1f906150cc565b60405180910390fd5b610b328282611aea565b5050565b6000610b8982600e60008673ffffffffffffffffffffffffffffffffffffffff1673ffffffffffffffffffffffffffffffffffffffff168152602001908152602001600020611bcc90919063ffffffff16565b905092915050565b7f65d7a28e3265b37a6474929f336521b332c1681b933f6cb9f3376673440d862a610bbb816118db565b610bc3611d31565b50565b610be1838383604051806020016040528060008152506110f6565b505050565b610bf7610bf161148c565b8261154d565b610c36576040517f08c379a0000000000000000000000000000000000000000000000000000000008152600401610c2d90614fa8565b60405180910390fd5b610c3f81611d94565b50565b6000610c4c610951565b8210610c8d576040517f08c379a0000000000000000000000000000000000000000000000000000000008152600401610c849061515e565b60405180910390fd5b60088281548110610ca157610ca061517e565b5b90600052602060002001549050919050565b6000600d60008373ffffffffffffffffffffffffffffffffffffffff1673ffffffffffffffffffffffffffffffffffffffff16815260200190815260200160002060009054906101000a900473ffffffffffffffffffffffffffffffffffffffff169050919050565b6000610d2661148c565b9050610d328183611da0565b5050565b6000600b60009054906101000a900460ff16905090565b600080610d5983611eb4565b9050600073ffffffffffffffffffffffffffffffffffffffff168173ffffffffffffffffffffffffffffffffffffffff1603610dca576040517f08c379a0000000000000000000000000000000000000000000000000000000008152600401610dc1906151f9565b60405180910390fd5b80915050919050565b60008073ffffffffffffffffffffffffffffffffffffffff168273ffffffffffffffffffffffffffffffffffffffff1603610e43576040517f08c379a0000000000000000000000000000000000000000000000000000000008152600401610e3a9061528b565b60405180910390fd5b600360008373ffffffffffffffffffffffffffffffffffffffff1673ffffffffffffffffffffffffffffffffffffffff168152602001908152602001600020549050919050565b6000610ed3601060008473ffffffffffffffffffffffffffffffffffffffff1673ffffffffffffffffffffffffffffffffffffffff168152602001908152602001600020611ef1565b9050919050565b7f65d7a28e3265b37a6474929f336521b332c1681b933f6cb9f3376673440d862a610f04816118db565b610f0c611eff565b50565b6000438210610f53576040517f08c379a0000000000000000000000000000000000000000000000000000000008152600401610f4a906152f7565b60405180910390fd5b610f6782600f611bcc90919063ffffffff16565b9050919050565b6000600c600084815260200190815260200160002060000160008373ffffffffffffffffffffffffffffffffffffffff1673ffffffffffffffffffffffffffffffffffffffff16815260200190815260200160002060009054906101000a900460ff16905092915050565b606060018054610fe890614de1565b80601f016020809104026020016040519081016040528092919081815260200182805461101490614de1565b80156110615780601f1061103657610100808354040283529160200191611061565b820191906000526020600020905b81548152906001019060200180831161104457829003601f168201915b5050505050905090565b60006110b4600e60008473ffffffffffffffffffffffffffffffffffffffff1673ffffffffffffffffffffffffffffffffffffffff168152602001908152602001600020611f62565b7bffffffffffffffffffffffffffffffffffffffffffffffffffffffff169050919050565b6000801b81565b6110f26110eb61148c565b8383611fcc565b5050565b61110761110161148c565b8361154d565b611146576040517f08c379a000000000000000000000000000000000000000000000000000000000815260040161113d90614fa8565b60405180910390fd5b61115284848484612138565b50505050565b8342111561119b576040517f08c379a000000000000000000000000000000000000000000000000000000000815260040161119290615363565b60405180910390fd5b60006111fd6111f57fe48329057bfd03d55e49b547132e39cffd9c1820ad7b9d4c5307691425d15adf8989896040516020016111da9493929190615383565b60405160208183030381529060405280519060200120612194565b8585856121ae565b9050611208816121d9565b8614611249576040517f08c379a000000000000000000000000000000000000000000000000000000000815260040161124090615414565b60405180910390fd5b6112538188611da0565b50505050505050565b606061126782612237565b9050919050565b7f9f2df0fed2c77648de5860a4cc508cd0818c85b8b8a1ab4ceeef8d981c8956a6611298816118db565b60006112a46011611ef1565b90506112b06011612349565b6112ba848261235f565b6112c4818461237d565b50505050565b7f9f2df0fed2c77648de5860a4cc508cd0818c85b8b8a1ab4ceeef8d981c8956a681565b6112f7826109be565b611300816118db565b61130a8383611aea565b505050565b7f65d7a28e3265b37a6474929f336521b332c1681b933f6cb9f3376673440d862a81565b6000600560008473ffffffffffffffffffffffffffffffffffffffff1673ffffffffffffffffffffffffffffffffffffffff16815260200190815260200160002060008373ffffffffffffffffffffffffffffffffffffffff1673ffffffffffffffffffffffffffffffffffffffff16815260200190815260200160002060009054906101000a900460ff16905092915050565b60007f7965db0b000000000000000000000000000000000000000000000000000000007bffffffffffffffffffffffffffffffffffffffffffffffffffffffff1916827bffffffffffffffffffffffffffffffffffffffffffffffffffffffff1916148061143a5750611439826123ea565b5b9050919050565b61144a81612464565b611489576040517f08c379a0000000000000000000000000000000000000000000000000000000008152600401611480906151f9565b60405180910390fd5b50565b600033905090565b816004600083815260200190815260200160002060006101000a81548173ffffffffffffffffffffffffffffffffffffffff021916908373ffffffffffffffffffffffffffffffffffffffff160217905550808273ffffffffffffffffffffffffffffffffffffffff1661150783610d4d565b73ffffffffffffffffffffffffffffffffffffffff167f8c5be1e5ebec7d5bd14f71427d1e84f3dd0314c0f7b2291e5b200ac8c7c3b92560405160405180910390a45050565b60008061155983610d4d565b90508073ffffffffffffffffffffffffffffffffffffffff168473ffffffffffffffffffffffffffffffffffffffff16148061159b575061159a8185611333565b5b806115d957508373ffffffffffffffffffffffffffffffffffffffff166115c1846107f4565b73ffffffffffffffffffffffffffffffffffffffff16145b91505092915050565b8273ffffffffffffffffffffffffffffffffffffffff1661160282610d4d565b73ffffffffffffffffffffffffffffffffffffffff1614611658576040517f08c379a000000000000000000000000000000000000000000000000000000000815260040161164f906154a6565b60405180910390fd5b600073ffffffffffffffffffffffffffffffffffffffff168273ffffffffffffffffffffffffffffffffffffffff16036116c7576040517f08c379a00000000000000000000000000000000000000000000000000000000081526004016116be90615538565b60405180910390fd5b6116d483838360016124a5565b8273ffffffffffffffffffffffffffffffffffffffff166116f482610d4d565b73ffffffffffffffffffffffffffffffffffffffff161461174a576040517f08c379a0000000000000000000000000000000000000000000000000000000008152600401611741906154a6565b60405180910390fd5b6004600082815260200190815260200160002060006101000a81549073ffffffffffffffffffffffffffffffffffffffff02191690556001600360008573ffffffffffffffffffffffffffffffffffffffff1673ffffffffffffffffffffffffffffffffffffffff168152602001908152602001600020600082825403925050819055506001600360008473ffffffffffffffffffffffffffffffffffffffff1673ffffffffffffffffffffffffffffffffffffffff16815260200190815260200160002060008282540192505081905550816002600083815260200190815260200160002060006101000a81548173ffffffffffffffffffffffffffffffffffffffff021916908373ffffffffffffffffffffffffffffffffffffffff160217905550808273ffffffffffffffffffffffffffffffffffffffff168473ffffffffffffffffffffffffffffffffffffffff167fddf252ad1be2c89b69c2b068fc378daa952ba7f163c4a11628f55a4df523b3ef60405160405180910390a46118d683838360016124bf565b505050565b6118ec816118e761148c565b6124d1565b50565b6118f98282610f6e565b6119cc576001600c600084815260200190815260200160002060000160008373ffffffffffffffffffffffffffffffffffffffff1673ffffffffffffffffffffffffffffffffffffffff16815260200190815260200160002060006101000a81548160ff02191690831515021790555061197161148c565b73ffffffffffffffffffffffffffffffffffffffff168173ffffffffffffffffffffffffffffffffffffffff16837f2f8788117e7eff1d82e926ec794901d17c78024a50270940304540a733656f0d60405160405180910390a45b5050565b60007f000000000000000000000000000000000000000000000000000000000000000073ffffffffffffffffffffffffffffffffffffffff163073ffffffffffffffffffffffffffffffffffffffff16148015611a4c57507f000000000000000000000000000000000000000000000000000000000000000046145b15611a79577f00000000000000000000000000000000000000000000000000000000000000009050611ae7565b611ae47f00000000000000000000000000000000000000000000000000000000000000007f00000000000000000000000000000000000000000000000000000000000000007f0000000000000000000000000000000000000000000000000000000000000000612556565b90505b90565b611af48282610f6e565b15611bc8576000600c600084815260200190815260200160002060000160008373ffffffffffffffffffffffffffffffffffffffff1673ffffffffffffffffffffffffffffffffffffffff16815260200190815260200160002060006101000a81548160ff021916908315150217905550611b6d61148c565b73ffffffffffffffffffffffffffffffffffffffff168173ffffffffffffffffffffffffffffffffffffffff16837ff6391f5c32d9c69d2a47ea670b442974b53935d1edc7fd64eb21e047a839171b60405160405180910390a45b5050565b6000438210611c10576040517f08c379a0000000000000000000000000000000000000000000000000000000008152600401611c07906155a4565b60405180910390fd5b6000611c1b83612590565b90506000846000018054905090506000808290506005831115611c9e576000611c43846125e3565b84611c4e91906155f3565b9050611c5d88600001826126dc565b60000160009054906101000a900463ffffffff1663ffffffff168563ffffffff161015611c8c57809150611c9c565b600181611c999190615627565b92505b505b6000611caf886000018685856126f1565b905060008114611d0357611cd288600001600183611ccd91906155f3565b6126dc565b60000160049054906101000a90047bffffffffffffffffffffffffffffffffffffffffffffffffffffffff16611d06565b60005b7bffffffffffffffffffffffffffffffffffffffffffffffffffffffff169550505050505092915050565b611d39612764565b6000600b60006101000a81548160ff0219169083151502179055507f5db9ee0a495bf2e6ff9c91a7834c1ba4fdd244a5e8aa4e537bd38aeae4b073aa611d7d61148c565b604051611d8a919061478d565b60405180910390a1565b611d9d816127ad565b50565b6000611dab83610cb3565b905081600d60008573ffffffffffffffffffffffffffffffffffffffff1673ffffffffffffffffffffffffffffffffffffffff16815260200190815260200160002060006101000a81548173ffffffffffffffffffffffffffffffffffffffff021916908373ffffffffffffffffffffffffffffffffffffffff1602179055508173ffffffffffffffffffffffffffffffffffffffff168173ffffffffffffffffffffffffffffffffffffffff168473ffffffffffffffffffffffffffffffffffffffff167f3134e8a2e6d97e929a7e54011ea5485d7d196dd5f0ba4d4ef95803e8e3fc257f60405160405180910390a4611eaf8183611eaa86612800565b612812565b505050565b60006002600083815260200190815260200160002060009054906101000a900473ffffffffffffffffffffffffffffffffffffffff169050919050565b600081600001549050919050565b611f07612a1f565b6001600b60006101000a81548160ff0219169083151502179055507f62e78cea01bee320cd4e420270b5ea74000d11b0c9f74754ebdbfc544b05a258611f4b61148c565b604051611f58919061478d565b60405180910390a1565b6000808260000180549050905060008114611fc157611f9083600001600183611f8b91906155f3565b6126dc565b60000160049054906101000a90047bffffffffffffffffffffffffffffffffffffffffffffffffffffffff16611fc4565b60005b915050919050565b8173ffffffffffffffffffffffffffffffffffffffff168373ffffffffffffffffffffffffffffffffffffffff160361203a576040517f08c379a0000000000000000000000000000000000000000000000000000000008152600401612031906156a7565b60405180910390fd5b80600560008573ffffffffffffffffffffffffffffffffffffffff1673ffffffffffffffffffffffffffffffffffffffff16815260200190815260200160002060008473ffffffffffffffffffffffffffffffffffffffff1673ffffffffffffffffffffffffffffffffffffffff16815260200190815260200160002060006101000a81548160ff0219169083151502179055508173ffffffffffffffffffffffffffffffffffffffff168373ffffffffffffffffffffffffffffffffffffffff167f17307eab39ab6107e8899845ad3d59bd9653f200f220920489ca2b5937696c318360405161212b919061461c565b60405180910390a3505050565b6121438484846115e2565b61214f84848484612a69565b61218e576040517f08c379a000000000000000000000000000000000000000000000000000000000815260040161218590615739565b60405180910390fd5b50505050565b60006121a76121a16119d0565b83612bf0565b9050919050565b60008060006121bf87878787612c23565b915091506121cc81612d05565b8192505050949350505050565b600080601060008473ffffffffffffffffffffffffffffffffffffffff1673ffffffffffffffffffffffffffffffffffffffff168152602001908152602001600020905061222681611ef1565b915061223181612349565b50919050565b606061224282611441565b6000600a6000848152602001908152602001600020805461226290614de1565b80601f016020809104026020016040519081016040528092919081815260200182805461228e90614de1565b80156122db5780601f106122b0576101008083540402835291602001916122db565b820191906000526020600020905b8154815290600101906020018083116122be57829003601f168201915b5050505050905060006122ec612e6b565b90506000815103612301578192505050612344565b60008251111561233657808260405160200161231e929190615795565b60405160208183030381529060405292505050612344565b61233f84612e82565b925050505b919050565b6001816000016000828254019250508190555050565b612379828260405180602001604052806000815250612eea565b5050565b61238682612464565b6123c5576040517f08c379a00000000000000000000000000000000000000000000000000000000081526004016123bc9061582b565b60405180910390fd5b80600a600084815260200190815260200160002090816123e591906159f7565b505050565b60007f780e9d63000000000000000000000000000000000000000000000000000000007bffffffffffffffffffffffffffffffffffffffffffffffffffffffff1916827bffffffffffffffffffffffffffffffffffffffffffffffffffffffff1916148061245d575061245c82612f45565b5b9050919050565b60008073ffffffffffffffffffffffffffffffffffffffff1661248683611eb4565b73ffffffffffffffffffffffffffffffffffffffff1614159050919050565b6124ad612a1f565b6124b984848484613027565b50505050565b6124cb84848484613185565b50505050565b6124db8282610f6e565b612552576124e8816131a2565b6124f68360001c60206131cf565b604051602001612507929190615b61565b6040516020818303038152906040526040517f08c379a000000000000000000000000000000000000000000000000000000000815260040161254991906146c7565b60405180910390fd5b5050565b60008383834630604051602001612571959493929190615b9b565b6040516020818303038152906040528051906020012090509392505050565b600063ffffffff80168211156125db576040517f08c379a00000000000000000000000000000000000000000000000000000000081526004016125d290615c60565b60405180910390fd5b819050919050565b60008082036125f557600090506126d7565b600060016126028461340b565b901c6001901b9050600181848161261c5761261b615c80565b5b048201901c9050600181848161263557612634615c80565b5b048201901c9050600181848161264e5761264d615c80565b5b048201901c9050600181848161266757612666615c80565b5b048201901c905060018184816126805761267f615c80565b5b048201901c9050600181848161269957612698615c80565b5b048201901c905060018184816126b2576126b1615c80565b5b048201901c90506126d3818285816126cd576126cc615c80565b5b046134ec565b9150505b919050565b60008260005281602060002001905092915050565b60005b818310156127595760006127088484613505565b90508463ffffffff1661271b87836126dc565b60000160009054906101000a900463ffffffff1663ffffffff16111561274357809250612753565b6001816127509190615627565b93505b506126f4565b819050949350505050565b61276c610d36565b6127ab576040517f08c379a00000000000000000000000000000000000000000000000000000000081526004016127a290615cfb565b60405180910390fd5b565b6127b68161352b565b6000600a600083815260200190815260200160002080546127d690614de1565b9050146127fd57600a600082815260200190815260200160002060006127fc919061450b565b5b50565b600061280b82610dd3565b9050919050565b8173ffffffffffffffffffffffffffffffffffffffff168373ffffffffffffffffffffffffffffffffffffffff161415801561284e5750600081115b15612a1a57600073ffffffffffffffffffffffffffffffffffffffff168373ffffffffffffffffffffffffffffffffffffffff1614612936576000806128df61367984600e60008973ffffffffffffffffffffffffffffffffffffffff1673ffffffffffffffffffffffffffffffffffffffff16815260200190815260200160002061368f9092919063ffffffff16565b915091508473ffffffffffffffffffffffffffffffffffffffff167fdec2bacdd2f05b59de34da9b523dff8be42e5e38e818c82fdb0bae774387a724838360405161292b929190615d1b565b60405180910390a250505b600073ffffffffffffffffffffffffffffffffffffffff168273ffffffffffffffffffffffffffffffffffffffff1614612a19576000806129c26136db84600e60008873ffffffffffffffffffffffffffffffffffffffff1673ffffffffffffffffffffffffffffffffffffffff16815260200190815260200160002061368f9092919063ffffffff16565b915091508373ffffffffffffffffffffffffffffffffffffffff167fdec2bacdd2f05b59de34da9b523dff8be42e5e38e818c82fdb0bae774387a7248383604051612a0e929190615d1b565b60405180910390a250505b5b505050565b612a27610d36565b15612a67576040517f08c379a0000000000000000000000000000000000000000000000000000000008152600401612a5e90615d90565b60405180910390fd5b565b6000612a8a8473ffffffffffffffffffffffffffffffffffffffff166136f1565b15612be3578373ffffffffffffffffffffffffffffffffffffffff1663150b7a02612ab361148c565b8786866040518563ffffffff1660e01b8152600401612ad59493929190615e05565b6020604051808303816000875af1925050508015612b1157506040513d601f19601f82011682018060405250810190612b0e9190615e66565b60015b612b93573d8060008114612b41576040519150601f19603f3d011682016040523d82523d6000602084013e612b46565b606091505b506000815103612b8b576040517f08c379a0000000000000000000000000000000000000000000000000000000008152600401612b8290615739565b60405180910390fd5b805181602001fd5b63150b7a0260e01b7bffffffffffffffffffffffffffffffffffffffffffffffffffffffff1916817bffffffffffffffffffffffffffffffffffffffffffffffffffffffff191614915050612be8565b600190505b949350505050565b60008282604051602001612c05929190615f00565b60405160208183030381529060405280519060200120905092915050565b6000807f7fffffffffffffffffffffffffffffff5d576e7357a4501ddfe92f46681b20a08360001c1115612c5e576000600391509150612cfc565b600060018787878760405160008152602001604052604051612c839493929190615f46565b6020604051602081039080840390855afa158015612ca5573d6000803e3d6000fd5b505050602060405103519050600073ffffffffffffffffffffffffffffffffffffffff168173ffffffffffffffffffffffffffffffffffffffff1603612cf357600060019250925050612cfc565b80600092509250505b94509492505050565b60006004811115612d1957612d18615f8b565b5b816004811115612d2c57612d2b615f8b565b5b0315612e685760016004811115612d4657612d45615f8b565b5b816004811115612d5957612d58615f8b565b5b03612d99576040517f08c379a0000000000000000000000000000000000000000000000000000000008152600401612d9090616006565b60405180910390fd5b60026004811115612dad57612dac615f8b565b5b816004811115612dc057612dbf615f8b565b5b03612e00576040517f08c379a0000000000000000000000000000000000000000000000000000000008152600401612df790616072565b60405180910390fd5b60036004811115612e1457612e13615f8b565b5b816004811115612e2757612e26615f8b565b5b03612e67576040517f08c379a0000000000000000000000000000000000000000000000000000000008152600401612e5e90616104565b60405180910390fd5b5b50565b606060405180602001604052806000815250905090565b6060612e8d82611441565b6000612e97612e6b565b90506000815111612eb75760405180602001604052806000815250612ee2565b80612ec184613714565b604051602001612ed2929190615795565b6040516020818303038152906040525b915050919050565b612ef483836137e2565b612f016000848484612a69565b612f40576040517f08c379a0000000000000000000000000000000000000000000000000000000008152600401612f3790615739565b60405180910390fd5b505050565b60007f80ac58cd000000000000000000000000000000000000000000000000000000007bffffffffffffffffffffffffffffffffffffffffffffffffffffffff1916827bffffffffffffffffffffffffffffffffffffffffffffffffffffffff1916148061301057507f5b5e139f000000000000000000000000000000000000000000000000000000007bffffffffffffffffffffffffffffffffffffffffffffffffffffffff1916827bffffffffffffffffffffffffffffffffffffffffffffffffffffffff1916145b80613020575061301f826139ff565b5b9050919050565b61303384848484613a69565b6001811115613077576040517f08c379a000000000000000000000000000000000000000000000000000000000815260040161306e90616196565b60405180910390fd5b6000829050600073ffffffffffffffffffffffffffffffffffffffff168573ffffffffffffffffffffffffffffffffffffffff16036130be576130b981613b8f565b6130fd565b8373ffffffffffffffffffffffffffffffffffffffff168573ffffffffffffffffffffffffffffffffffffffff16146130fc576130fb8582613bd8565b5b5b600073ffffffffffffffffffffffffffffffffffffffff168473ffffffffffffffffffffffffffffffffffffffff160361313f5761313a81613d45565b61317e565b8473ffffffffffffffffffffffffffffffffffffffff168473ffffffffffffffffffffffffffffffffffffffff161461317d5761317c8482613e16565b5b5b5050505050565b613190848483613e95565b61319c84848484613f53565b50505050565b60606131c88273ffffffffffffffffffffffffffffffffffffffff16601460ff166131cf565b9050919050565b6060600060028360026131e291906161b6565b6131ec9190615627565b67ffffffffffffffff81111561320557613204614a01565b5b6040519080825280601f01601f1916602001820160405280156132375781602001600182028036833780820191505090505b5090507f30000000000000000000000000000000000000000000000000000000000000008160008151811061326f5761326e61517e565b5b60200101907effffffffffffffffffffffffffffffffffffffffffffffffffffffffffffff1916908160001a9053507f7800000000000000000000000000000000000000000000000000000000000000816001815181106132d3576132d261517e565b5b60200101907effffffffffffffffffffffffffffffffffffffffffffffffffffffffffffff1916908160001a9053506000600184600261331391906161b6565b61331d9190615627565b90505b60018111156133bd577f3031323334353637383961626364656600000000000000000000000000000000600f86166010811061335f5761335e61517e565b5b1a60f81b8282815181106133765761337561517e565b5b60200101907effffffffffffffffffffffffffffffffffffffffffffffffffffffffffffff1916908160001a905350600485901c9450806133b6906161f8565b9050613320565b5060008414613401576040517f08c379a00000000000000000000000000000000000000000000000000000000081526004016133f89061626d565b60405180910390fd5b8091505092915050565b600080600090506000608084901c111561342d57608083901c92506080810190505b6000604084901c111561344857604083901c92506040810190505b6000602084901c111561346357602083901c92506020810190505b6000601084901c111561347e57601083901c92506010810190505b6000600884901c111561349957600883901c92506008810190505b6000600484901c11156134b457600483901c92506004810190505b6000600284901c11156134cf57600283901c92506002810190505b6000600184901c11156134e3576001810190505b80915050919050565b60008183106134fb57816134fd565b825b905092915050565b60006002828418613516919061628d565b8284166135239190615627565b905092915050565b600061353682610d4d565b90506135468160008460016124a5565b61354f82610d4d565b90506004600083815260200190815260200160002060006101000a81549073ffffffffffffffffffffffffffffffffffffffff02191690556001600360008373ffffffffffffffffffffffffffffffffffffffff1673ffffffffffffffffffffffffffffffffffffffff168152602001908152602001600020600082825403925050819055506002600083815260200190815260200160002060006101000a81549073ffffffffffffffffffffffffffffffffffffffff021916905581600073ffffffffffffffffffffffffffffffffffffffff168273ffffffffffffffffffffffffffffffffffffffff167fddf252ad1be2c89b69c2b068fc378daa952ba7f163c4a11628f55a4df523b3ef60405160405180910390a46136758160008460016124bf565b5050565b6000818361368791906155f3565b905092915050565b6000806136cf856136ca6136a288611f62565b7bffffffffffffffffffffffffffffffffffffffffffffffffffffffff16868863ffffffff16565b613f59565b91509150935093915050565b600081836136e99190615627565b905092915050565b6000808273ffffffffffffffffffffffffffffffffffffffff163b119050919050565b60606000600161372384613fc7565b01905060008167ffffffffffffffff81111561374257613741614a01565b5b6040519080825280601f01601f1916602001820160405280156137745781602001600182028036833780820191505090505b509050600082602001820190505b6001156137d7578080600190039150507f3031323334353637383961626364656600000000000000000000000000000000600a86061a8153600a85816137cb576137ca615c80565b5b04945060008503613782575b819350505050919050565b600073ffffffffffffffffffffffffffffffffffffffff168273ffffffffffffffffffffffffffffffffffffffff1603613851576040517f08c379a00000000000000000000000000000000000000000000000000000000081526004016138489061630a565b60405180910390fd5b61385a81612464565b1561389a576040517f08c379a000000000000000000000000000000000000000000000000000000000815260040161389190616376565b60405180910390fd5b6138a86000838360016124a5565b6138b181612464565b156138f1576040517f08c379a00000000000000000000000000000000000000000000000000000000081526004016138e890616376565b60405180910390fd5b6001600360008473ffffffffffffffffffffffffffffffffffffffff1673ffffffffffffffffffffffffffffffffffffffff16815260200190815260200160002060008282540192505081905550816002600083815260200190815260200160002060006101000a81548173ffffffffffffffffffffffffffffffffffffffff021916908373ffffffffffffffffffffffffffffffffffffffff160217905550808273ffffffffffffffffffffffffffffffffffffffff16600073ffffffffffffffffffffffffffffffffffffffff167fddf252ad1be2c89b69c2b068fc378daa952ba7f163c4a11628f55a4df523b3ef60405160405180910390a46139fb6000838360016124bf565b5050565b60007f01ffc9a7000000000000000000000000000000000000000000000000000000007bffffffffffffffffffffffffffffffffffffffffffffffffffffffff1916827bffffffffffffffffffffffffffffffffffffffffffffffffffffffff1916149050919050565b6001811115613b8957600073ffffffffffffffffffffffffffffffffffffffff168473ffffffffffffffffffffffffffffffffffffffff1614613afd5780600360008673ffffffffffffffffffffffffffffffffffffffff1673ffffffffffffffffffffffffffffffffffffffff1681526020019081526020016000206000828254613af591906155f3565b925050819055505b600073ffffffffffffffffffffffffffffffffffffffff168373ffffffffffffffffffffffffffffffffffffffff1614613b885780600360008573ffffffffffffffffffffffffffffffffffffffff1673ffffffffffffffffffffffffffffffffffffffff1681526020019081526020016000206000828254613b809190615627565b925050819055505b5b50505050565b6008805490506009600083815260200190815260200160002081905550600881908060018154018082558091505060019003906000526020600020016000909190919091505550565b60006001613be584610dd3565b613bef91906155f3565b9050600060076000848152602001908152602001600020549050818114613cd4576000600660008673ffffffffffffffffffffffffffffffffffffffff1673ffffffffffffffffffffffffffffffffffffffff168152602001908152602001600020600084815260200190815260200160002054905080600660008773ffffffffffffffffffffffffffffffffffffffff1673ffffffffffffffffffffffffffffffffffffffff168152602001908152602001600020600084815260200190815260200160002081905550816007600083815260200190815260200160002081905550505b6007600084815260200190815260200160002060009055600660008573ffffffffffffffffffffffffffffffffffffffff1673ffffffffffffffffffffffffffffffffffffffff16815260200190815260200160002060008381526020019081526020016000206000905550505050565b60006001600880549050613d5991906155f3565b9050600060096000848152602001908152602001600020549050600060088381548110613d8957613d8861517e565b5b906000526020600020015490508060088381548110613dab57613daa61517e565b5b906000526020600020018190555081600960008381526020019081526020016000208190555060096000858152602001908152602001600020600090556008805480613dfa57613df9616396565b5b6001900381819060005260206000200160009055905550505050565b6000613e2183610dd3565b905081600660008573ffffffffffffffffffffffffffffffffffffffff1673ffffffffffffffffffffffffffffffffffffffff168152602001908152602001600020600083815260200190815260200160002081905550806007600084815260200190815260200160002081905550505050565b600073ffffffffffffffffffffffffffffffffffffffff168373ffffffffffffffffffffffffffffffffffffffff1603613ee457613ee16136db82600f61368f9092919063ffffffff16565b50505b600073ffffffffffffffffffffffffffffffffffffffff168273ffffffffffffffffffffffffffffffffffffffff1603613f3357613f3061367982600f61368f9092919063ffffffff16565b50505b613f4e613f3f84610cb3565b613f4884610cb3565b83612812565b505050565b50505050565b600080613f7a84600001613f6c43612590565b613f758661411a565b614185565b817bffffffffffffffffffffffffffffffffffffffffffffffffffffffff169150807bffffffffffffffffffffffffffffffffffffffffffffffffffffffff169050915091509250929050565b600080600090507a184f03e93ff9f4daa797ed6e38ed64bf6a1f0100000000000000008310614025577a184f03e93ff9f4daa797ed6e38ed64bf6a1f010000000000000000838161401b5761401a615c80565b5b0492506040810190505b6d04ee2d6d415b85acef81000000008310614062576d04ee2d6d415b85acef8100000000838161405857614057615c80565b5b0492506020810190505b662386f26fc10000831061409157662386f26fc10000838161408757614086615c80565b5b0492506010810190505b6305f5e10083106140ba576305f5e10083816140b0576140af615c80565b5b0492506008810190505b61271083106140df5761271083816140d5576140d4615c80565b5b0492506004810190505b6064831061410257606483816140f8576140f7615c80565b5b0492506002810190505b600a8310614111576001810190505b80915050919050565b60007bffffffffffffffffffffffffffffffffffffffffffffffffffffffff801682111561417d576040517f08c379a000000000000000000000000000000000000000000000000000000000815260040161417490616437565b60405180910390fd5b819050919050565b600080600085805490509050600081111561441b5760006141b2876001846141ad91906155f3565b6126dc565b6040518060400160405290816000820160009054906101000a900463ffffffff1663ffffffff1663ffffffff1681526020016000820160049054906101000a90047bffffffffffffffffffffffffffffffffffffffffffffffffffffffff167bffffffffffffffffffffffffffffffffffffffffffffffffffffffff167bffffffffffffffffffffffffffffffffffffffffffffffffffffffff168152505090508563ffffffff16816000015163ffffffff1611156142a6576040517f08c379a000000000000000000000000000000000000000000000000000000000815260040161429d906164a3565b60405180910390fd5b8563ffffffff16816000015163ffffffff160361432a57846142d4886001856142cf91906155f3565b6126dc565b60000160046101000a8154817bffffffffffffffffffffffffffffffffffffffffffffffffffffffff02191690837bffffffffffffffffffffffffffffffffffffffffffffffffffffffff16021790555061440a565b8660405180604001604052808863ffffffff168152602001877bffffffffffffffffffffffffffffffffffffffffffffffffffffffff168152509080600181540180825580915050600190039060005260206000200160009091909190915060008201518160000160006101000a81548163ffffffff021916908363ffffffff16021790555060208201518160000160046101000a8154817bffffffffffffffffffffffffffffffffffffffffffffffffffffffff02191690837bffffffffffffffffffffffffffffffffffffffffffffffffffffffff16021790555050505b806020015185935093505050614503565b8560405180604001604052808763ffffffff168152602001867bffffffffffffffffffffffffffffffffffffffffffffffffffffffff168152509080600181540180825580915050600190039060005260206000200160009091909190915060008201518160000160006101000a81548163ffffffff021916908363ffffffff16021790555060208201518160000160046101000a8154817bffffffffffffffffffffffffffffffffffffffffffffffffffffffff02191690837bffffffffffffffffffffffffffffffffffffffffffffffffffffffff160217905550505060008492509250505b935093915050565b50805461451790614de1565b6000825580601f106145295750614548565b601f016020900490600052602060002090810190614547919061454b565b5b50565b5b8082111561456457600081600090555060010161454c565b5090565b6000604051905090565b600080fd5b600080fd5b60007fffffffff0000000000000000000000000000000000000000000000000000000082169050919050565b6145b18161457c565b81146145bc57600080fd5b50565b6000813590506145ce816145a8565b92915050565b6000602082840312156145ea576145e9614572565b5b60006145f8848285016145bf565b91505092915050565b60008115159050919050565b61461681614601565b82525050565b6000602082019050614631600083018461460d565b92915050565b600081519050919050565b600082825260208201905092915050565b60005b83811015614671578082015181840152602081019050614656565b60008484015250505050565b6000601f19601f8301169050919050565b600061469982614637565b6146a38185614642565b93506146b3818560208601614653565b6146bc8161467d565b840191505092915050565b600060208201905081810360008301526146e1818461468e565b905092915050565b6000819050919050565b6146fc816146e9565b811461470757600080fd5b50565b600081359050614719816146f3565b92915050565b60006020828403121561473557614734614572565b5b60006147438482850161470a565b91505092915050565b600073ffffffffffffffffffffffffffffffffffffffff82169050919050565b60006147778261474c565b9050919050565b6147878161476c565b82525050565b60006020820190506147a2600083018461477e565b92915050565b6147b18161476c565b81146147bc57600080fd5b50565b6000813590506147ce816147a8565b92915050565b600080604083850312156147eb576147ea614572565b5b60006147f9858286016147bf565b925050602061480a8582860161470a565b9150509250929050565b61481d816146e9565b82525050565b60006020820190506148386000830184614814565b92915050565b60008060006060848603121561485757614856614572565b5b6000614865868287016147bf565b9350506020614876868287016147bf565b92505060406148878682870161470a565b9150509250925092565b6000819050919050565b6148a481614891565b81146148af57600080fd5b50565b6000813590506148c18161489b565b92915050565b6000602082840312156148dd576148dc614572565b5b60006148eb848285016148b2565b91505092915050565b6148fd81614891565b82525050565b600060208201905061491860008301846148f4565b92915050565b6000806040838503121561493557614934614572565b5b6000614943858286016148b2565b9250506020614954858286016147bf565b9150509250929050565b60006020828403121561497457614973614572565b5b6000614982848285016147bf565b91505092915050565b61499481614601565b811461499f57600080fd5b50565b6000813590506149b18161498b565b92915050565b600080604083850312156149ce576149cd614572565b5b60006149dc858286016147bf565b92505060206149ed858286016149a2565b9150509250929050565b600080fd5b600080fd5b7f4e487b7100000000000000000000000000000000000000000000000000000000600052604160045260246000fd5b614a398261467d565b810181811067ffffffffffffffff82111715614a5857614a57614a01565b5b80604052505050565b6000614a6b614568565b9050614a778282614a30565b919050565b600067ffffffffffffffff821115614a9757614a96614a01565b5b614aa08261467d565b9050602081019050919050565b82818337600083830152505050565b6000614acf614aca84614a7c565b614a61565b905082815260208101848484011115614aeb57614aea6149fc565b5b614af6848285614aad565b509392505050565b600082601f830112614b1357614b126149f7565b5b8135614b23848260208601614abc565b91505092915050565b60008060008060808587031215614b4657614b45614572565b5b6000614b54878288016147bf565b9450506020614b65878288016147bf565b9350506040614b768782880161470a565b925050606085013567ffffffffffffffff811115614b9757614b96614577565b5b614ba387828801614afe565b91505092959194509250565b600060ff82169050919050565b614bc581614baf565b8114614bd057600080fd5b50565b600081359050614be281614bbc565b92915050565b60008060008060008060c08789031215614c0557614c04614572565b5b6000614c1389828a016147bf565b9650506020614c2489828a0161470a565b9550506040614c3589828a0161470a565b9450506060614c4689828a01614bd3565b9350506080614c5789828a016148b2565b92505060a0614c6889828a016148b2565b9150509295509295509295565b600067ffffffffffffffff821115614c9057614c8f614a01565b5b614c998261467d565b9050602081019050919050565b6000614cb9614cb484614c75565b614a61565b905082815260208101848484011115614cd557614cd46149fc565b5b614ce0848285614aad565b509392505050565b600082601f830112614cfd57614cfc6149f7565b5b8135614d0d848260208601614ca6565b91505092915050565b60008060408385031215614d2d57614d2c614572565b5b6000614d3b858286016147bf565b925050602083013567ffffffffffffffff811115614d5c57614d5b614577565b5b614d6885828601614ce8565b9150509250929050565b60008060408385031215614d8957614d88614572565b5b6000614d97858286016147bf565b9250506020614da8858286016147bf565b9150509250929050565b7f4e487b7100000000000000000000000000000000000000000000000000000000600052602260045260246000fd5b60006002820490506001821680614df957607f821691505b602082108103614e0c57614e0b614db2565b5b50919050565b7f4552433732313a20617070726f76616c20746f2063757272656e74206f776e6560008201527f7200000000000000000000000000000000000000000000000000000000000000602082015250565b6000614e6e602183614642565b9150614e7982614e12565b604082019050919050565b60006020820190508181036000830152614e9d81614e61565b9050919050565b7f4552433732313a20617070726f76652063616c6c6572206973206e6f7420746f60008201527f6b656e206f776e6572206f7220617070726f76656420666f7220616c6c000000602082015250565b6000614f00603d83614642565b9150614f0b82614ea4565b604082019050919050565b60006020820190508181036000830152614f2f81614ef3565b9050919050565b7f4552433732313a2063616c6c6572206973206e6f7420746f6b656e206f776e6560008201527f72206f7220617070726f76656400000000000000000000000000000000000000602082015250565b6000614f92602d83614642565b9150614f9d82614f36565b604082019050919050565b60006020820190508181036000830152614fc181614f85565b9050919050565b7f455243373231456e756d657261626c653a206f776e657220696e646578206f7560008201527f74206f6620626f756e6473000000000000000000000000000000000000000000602082015250565b6000615024602b83614642565b915061502f82614fc8565b604082019050919050565b6000602082019050818103600083015261505381615017565b9050919050565b7f416363657373436f6e74726f6c3a2063616e206f6e6c792072656e6f756e636560008201527f20726f6c657320666f722073656c660000000000000000000000000000000000602082015250565b60006150b6602f83614642565b91506150c18261505a565b604082019050919050565b600060208201905081810360008301526150e5816150a9565b9050919050565b7f455243373231456e756d657261626c653a20676c6f62616c20696e646578206f60008201527f7574206f6620626f756e64730000000000000000000000000000000000000000602082015250565b6000615148602c83614642565b9150615153826150ec565b604082019050919050565b600060208201905081810360008301526151778161513b565b9050919050565b7f4e487b7100000000000000000000000000000000000000000000000000000000600052603260045260246000fd5b7f4552433732313a20696e76616c696420746f6b656e2049440000000000000000600082015250565b60006151e3601883614642565b91506151ee826151ad565b602082019050919050565b60006020820190508181036000830152615212816151d6565b9050919050565b7f4552433732313a2061646472657373207a65726f206973206e6f74206120766160008201527f6c6964206f776e65720000000000000000000000000000000000000000000000602082015250565b6000615275602983614642565b915061528082615219565b604082019050919050565b600060208201905081810360008301526152a481615268565b9050919050565b7f566f7465733a20626c6f636b206e6f7420796574206d696e6564000000000000600082015250565b60006152e1601a83614642565b91506152ec826152ab565b602082019050919050565b60006020820190508181036000830152615310816152d4565b9050919050565b7f566f7465733a207369676e617475726520657870697265640000000000000000600082015250565b600061534d601883614642565b915061535882615317565b602082019050919050565b6000602082019050818103600083015261537c81615340565b9050919050565b600060808201905061539860008301876148f4565b6153a5602083018661477e565b6153b26040830185614814565b6153bf6060830184614814565b95945050505050565b7f566f7465733a20696e76616c6964206e6f6e6365000000000000000000000000600082015250565b60006153fe601483614642565b9150615409826153c8565b602082019050919050565b6000602082019050818103600083015261542d816153f1565b9050919050565b7f4552433732313a207472616e736665722066726f6d20696e636f72726563742060008201527f6f776e6572000000000000000000000000000000000000000000000000000000602082015250565b6000615490602583614642565b915061549b82615434565b604082019050919050565b600060208201905081810360008301526154bf81615483565b9050919050565b7f4552433732313a207472616e7366657220746f20746865207a65726f2061646460008201527f7265737300000000000000000000000000000000000000000000000000000000602082015250565b6000615522602483614642565b915061552d826154c6565b604082019050919050565b6000602082019050818103600083015261555181615515565b9050919050565b7f436865636b706f696e74733a20626c6f636b206e6f7420796574206d696e6564600082015250565b600061558e602083614642565b915061559982615558565b602082019050919050565b600060208201905081810360008301526155bd81615581565b9050919050565b7f4e487b7100000000000000000000000000000000000000000000000000000000600052601160045260246000fd5b60006155fe826146e9565b9150615609836146e9565b9250828203905081811115615621576156206155c4565b5b92915050565b6000615632826146e9565b915061563d836146e9565b9250828201905080821115615655576156546155c4565b5b92915050565b7f4552433732313a20617070726f766520746f2063616c6c657200000000000000600082015250565b6000615691601983614642565b915061569c8261565b565b602082019050919050565b600060208201905081810360008301526156c081615684565b9050919050565b7f4552433732313a207472616e7366657220746f206e6f6e20455243373231526560008201527f63656976657220696d706c656d656e7465720000000000000000000000000000602082015250565b6000615723603283614642565b915061572e826156c7565b604082019050919050565b6000602082019050818103600083015261575281615716565b9050919050565b600081905092915050565b600061576f82614637565b6157798185615759565b9350615789818560208601614653565b80840191505092915050565b60006157a18285615764565b91506157ad8284615764565b91508190509392505050565b7f45524337323155524953746f726167653a2055524920736574206f66206e6f6e60008201527f6578697374656e7420746f6b656e000000000000000000000000000000000000602082015250565b6000615815602e83614642565b9150615820826157b9565b604082019050919050565b6000602082019050818103600083015261584481615808565b9050919050565b60008190508160005260206000209050919050565b60006020601f8301049050919050565b600082821b905092915050565b6000600883026158ad7fffffffffffffffffffffffffffffffffffffffffffffffffffffffffffffffff82615870565b6158b78683615870565b95508019841693508086168417925050509392505050565b6000819050919050565b60006158f46158ef6158ea846146e9565b6158cf565b6146e9565b9050919050565b6000819050919050565b61590e836158d9565b61592261591a826158fb565b84845461587d565b825550505050565b600090565b61593761592a565b615942818484615905565b505050565b5b818110156159665761595b60008261592f565b600181019050615948565b5050565b601f8211156159ab5761597c8161584b565b61598584615860565b81016020851015615994578190505b6159a86159a085615860565b830182615947565b50505b505050565b600082821c905092915050565b60006159ce600019846008026159b0565b1980831691505092915050565b60006159e783836159bd565b9150826002028217905092915050565b615a0082614637565b67ffffffffffffffff811115615a1957615a18614a01565b5b615a238254614de1565b615a2e82828561596a565b600060209050601f831160018114615a615760008415615a4f578287015190505b615a5985826159db565b865550615ac1565b601f198416615a6f8661584b565b60005b82811015615a9757848901518255600182019150602085019450602081019050615a72565b86831015615ab45784890151615ab0601f8916826159bd565b8355505b6001600288020188555050505b505050505050565b7f416363657373436f6e74726f6c3a206163636f756e7420000000000000000000600082015250565b6000615aff601783615759565b9150615b0a82615ac9565b601782019050919050565b7f206973206d697373696e6720726f6c6520000000000000000000000000000000600082015250565b6000615b4b601183615759565b9150615b5682615b15565b601182019050919050565b6000615b6c82615af2565b9150615b788285615764565b9150615b8382615b3e565b9150615b8f8284615764565b91508190509392505050565b600060a082019050615bb060008301886148f4565b615bbd60208301876148f4565b615bca60408301866148f4565b615bd76060830185614814565b615be4608083018461477e565b9695505050505050565b7f53616665436173743a2076616c756520646f65736e27742066697420696e203360008201527f3220626974730000000000000000000000000000000000000000000000000000602082015250565b6000615c4a602683614642565b9150615c5582615bee565b604082019050919050565b60006020820190508181036000830152615c7981615c3d565b9050919050565b7f4e487b7100000000000000000000000000000000000000000000000000000000600052601260045260246000fd5b7f5061757361626c653a206e6f7420706175736564000000000000000000000000600082015250565b6000615ce5601483614642565b9150615cf082615caf565b602082019050919050565b60006020820190508181036000830152615d1481615cd8565b9050919050565b6000604082019050615d306000830185614814565b615d3d6020830184614814565b9392505050565b7f5061757361626c653a2070617573656400000000000000000000000000000000600082015250565b6000615d7a601083614642565b9150615d8582615d44565b602082019050919050565b60006020820190508181036000830152615da981615d6d565b9050919050565b600081519050919050565b600082825260208201905092915050565b6000615dd782615db0565b615de18185615dbb565b9350615df1818560208601614653565b615dfa8161467d565b840191505092915050565b6000608082019050615e1a600083018761477e565b615e27602083018661477e565b615e346040830185614814565b8181036060830152615e468184615dcc565b905095945050505050565b600081519050615e60816145a8565b92915050565b600060208284031215615e7c57615e7b614572565b5b6000615e8a84828501615e51565b91505092915050565b7f1901000000000000000000000000000000000000000000000000000000000000600082015250565b6000615ec9600283615759565b9150615ed482615e93565b600282019050919050565b6000819050919050565b615efa615ef582614891565b615edf565b82525050565b6000615f0b82615ebc565b9150615f178285615ee9565b602082019150615f278284615ee9565b6020820191508190509392505050565b615f4081614baf565b82525050565b6000608082019050615f5b60008301876148f4565b615f686020830186615f37565b615f7560408301856148f4565b615f8260608301846148f4565b95945050505050565b7f4e487b7100000000000000000000000000000000000000000000000000000000600052602160045260246000fd5b7f45434453413a20696e76616c6964207369676e61747572650000000000000000600082015250565b6000615ff0601883614642565b9150615ffb82615fba565b602082019050919050565b6000602082019050818103600083015261601f81615fe3565b9050919050565b7f45434453413a20696e76616c6964207369676e6174757265206c656e67746800600082015250565b600061605c601f83614642565b915061606782616026565b602082019050919050565b6000602082019050818103600083015261608b8161604f565b9050919050565b7f45434453413a20696e76616c6964207369676e6174757265202773272076616c60008201527f7565000000000000000000000000000000000000000000000000000000000000602082015250565b60006160ee602283614642565b91506160f982616092565b604082019050919050565b6000602082019050818103600083015261611d816160e1565b9050919050565b7f455243373231456e756d657261626c653a20636f6e736563757469766520747260008201527f616e7366657273206e6f7420737570706f727465640000000000000000000000602082015250565b6000616180603583614642565b915061618b82616124565b604082019050919050565b600060208201905081810360008301526161af81616173565b9050919050565b60006161c1826146e9565b91506161cc836146e9565b92508282026161da816146e9565b915082820484148315176161f1576161f06155c4565b5b5092915050565b6000616203826146e9565b915060008203616216576162156155c4565b5b600182039050919050565b7f537472696e67733a20686578206c656e67746820696e73756666696369656e74600082015250565b6000616257602083614642565b915061626282616221565b602082019050919050565b600060208201905081810360008301526162868161624a565b9050919050565b6000616298826146e9565b91506162a3836146e9565b9250826162b3576162b2615c80565b5b828204905092915050565b7f4552433732313a206d696e7420746f20746865207a65726f2061646472657373600082015250565b60006162f4602083614642565b91506162ff826162be565b602082019050919050565b60006020820190508181036000830152616323816162e7565b9050919050565b7f4552433732313a20746f6b656e20616c7265616479206d696e74656400000000600082015250565b6000616360601c83614642565b915061636b8261632a565b602082019050919050565b6000602082019050818103600083015261638f81616353565b9050919050565b7f4e487b7100000000000000000000000000000000000000000000000000000000600052603160045260246000fd5b7f53616665436173743a2076616c756520646f65736e27742066697420696e203260008201527f3234206269747300000000000000000000000000000000000000000000000000602082015250565b6000616421602783614642565b915061642c826163c5565b604082019050919050565b6000602082019050818103600083015261645081616414565b9050919050565b7f436865636b706f696e743a20696e76616c6964206b6579000000000000000000600082015250565b600061648d601783614642565b915061649882616457565b602082019050919050565b600060208201905081810360008301526164bc81616480565b905091905056fea2646970667358221220c35a9b8c8a99404052d4ca446c5fb5c88e2479260e60506ab73d9a217479be6764736f6c63430008110033",
  "linkReferences": {},
  "deployedLinkReferences": {}
}